{"abi":[{"inputs":[{"internalType":"string","name":"name","type":"string"},{"internalType":"uint256","name":"minContribution","type":"uint256"},{"internalType":"address","name":"creator","type":"address"}],"stateMutability":"nonpayable","type":"constructor"},{"inputs":[],"name":"campaignName","outputs":[{"internalType":"string","name":"","type":"string"}],"stateMutability":"view","type":"function"},{"inputs":[{"internalType":"uint256","name":"","type":"uint256"}],"name":"campaignRequests","outputs":[{"internalType":"string","name":"description","type":"string"},{"internalType":"uint256","name":"payoutValue","type":"uint256"},{"internalType":"address payable","name":"recipient","type":"address"},{"internalType":"bool","name":"complete","type":"bool"},{"internalType":"uint256","name":"approvalCount","type":"uint256"}],"stateMutability":"view","type":"function"},{"inputs":[],"name":"contractManager","outputs":[{"internalType":"address","name":"","type":"address"}],"stateMutability":"view","type":"function"},{"inputs":[],"name":"contribute","outputs":[],"stateMutability":"payable","type":"function"},{"inputs":[{"internalType":"string","name":"description","type":"string"},{"internalType":"uint256","name":"payoutValue","type":"uint256"},{"internalType":"address","name":"recipient","type":"address"}],"name":"createManagerRequest","outputs":[{"internalType":"uint256","name":"requestID","type":"uint256"}],"stateMutability":"nonpayable","type":"function"},{"inputs":[{"internalType":"uint256","name":"campaignID","type":"uint256"}],"name":"finalizeManagerRequest","outputs":[],"stateMutability":"nonpayable","type":"function"},{"inputs":[{"internalType":"address","name":"","type":"address"}],"name":"funders","outputs":[{"internalType":"uint256","name":"","type":"uint256"}],"stateMutability":"view","type":"function"},{"inputs":[],"name":"fundersCount","outputs":[{"internalType":"uint256","name":"","type":"uint256"}],"stateMutability":"view","type":"function"},{"inputs":[],"name":"getRequestsCount","outputs":[{"internalType":"uint256","name":"","type":"uint256"}],"stateMutability":"view","type":"function"},{"inputs":[],"name":"getSummary","outputs":[{"internalType":"uint256","name":"","type":"uint256"},{"internalType":"uint256","name":"","type":"uint256"},{"internalType":"uint256","name":"","type":"uint256"},{"internalType":"uint256","name":"","type":"uint256"},{"internalType":"address","name":"","type":"address"},{"internalType":"string","name":"","type":"string"}],"stateMutability":"view","type":"function"},{"inputs":[],"name":"minimumContribution","outputs":[{"internalType":"uint256","name":"","type":"uint256"}],"stateMutability":"view","type":"function"},{"inputs":[],"name":"numRequests","outputs":[{"internalType":"uint256","name":"","type":"uint256"}],"stateMutability":"view","type":"function"},{"inputs":[{"internalType":"uint256","name":"campaignID","type":"uint256"}],"name":"voteForRequest","outputs":[],"stateMutability":"nonpayable","type":"function"}],"devdoc":{"kind":"dev","methods":{},"version":1},"evm":{"assembly":"    /* \"KickstarterCampaign.sol\":74:2976   */\n  mstore(0x40, 0x80)\n    /* \"KickstarterCampaign.sol\":446:638   */\n  callvalue\n  dup1\n  iszero\n  tag_1\n  jumpi\n  0x00\n  dup1\n  revert\ntag_1:\n  pop\n  mload(0x40)\n  sub(codesize, bytecodeSize)\n  dup1\n  bytecodeSize\n  dup4\n  codecopy\n  dup2\n  dup2\n  add\n  0x40\n  mstore\n  dup2\n  add\n  swap1\n  tag_2\n  swap2\n  swap1\n  tag_3\n  jump\t// in\ntag_2:\n    /* \"KickstarterCampaign.sol\":545:552   */\n  dup1\n    /* \"KickstarterCampaign.sol\":527:542   */\n  0x00\n  dup1\n    /* \"KickstarterCampaign.sol\":527:552   */\n  0x0100\n  exp\n  dup2\n  sload\n  dup2\n  0xffffffffffffffffffffffffffffffffffffffff\n  mul\n  not\n  and\n  swap1\n  dup4\n  0xffffffffffffffffffffffffffffffffffffffff\n  and\n  mul\n  or\n  swap1\n  sstore\n  pop\n    /* \"KickstarterCampaign.sol\":578:582   */\n  dup3\n    /* \"KickstarterCampaign.sol\":563:575   */\n  0x01\n    /* \"KickstarterCampaign.sol\":563:582   */\n  swap1\n  dup1\n  mload\n  swap1\n  0x20\n  add\n  swap1\n  tag_6\n  swap3\n  swap2\n  swap1\n  tag_7\n  jump\t// in\ntag_6:\n  pop\n    /* \"KickstarterCampaign.sol\":615:630   */\n  dup2\n    /* \"KickstarterCampaign.sol\":593:612   */\n  0x02\n    /* \"KickstarterCampaign.sol\":593:630   */\n  dup2\n  swap1\n  sstore\n  pop\n    /* \"KickstarterCampaign.sol\":446:638   */\n  pop\n  pop\n  pop\n    /* \"KickstarterCampaign.sol\":74:2976   */\n  jump(tag_8)\ntag_7:\n  dup3\n  dup1\n  sload\n  tag_9\n  swap1\n  tag_10\n  jump\t// in\ntag_9:\n  swap1\n  0x00\n  mstore\n  keccak256(0x00, 0x20)\n  swap1\n  0x1f\n  add\n  0x20\n  swap1\n  div\n  dup2\n  add\n  swap3\n  dup3\n  tag_12\n  jumpi\n  0x00\n  dup6\n  sstore\n  jump(tag_11)\ntag_12:\n  dup3\n  0x1f\n  lt\n  tag_13\n  jumpi\n  dup1\n  mload\n  not(0xff)\n  and\n  dup4\n  dup1\n  add\n  or\n  dup6\n  sstore\n  jump(tag_11)\ntag_13:\n  dup3\n  dup1\n  add\n  0x01\n  add\n  dup6\n  sstore\n  dup3\n  iszero\n  tag_11\n  jumpi\n  swap2\n  dup3\n  add\ntag_14:\n  dup3\n  dup2\n  gt\n  iszero\n  tag_15\n  jumpi\n  dup3\n  mload\n  dup3\n  sstore\n  swap2\n  0x20\n  add\n  swap2\n  swap1\n  0x01\n  add\n  swap1\n  jump(tag_14)\ntag_15:\ntag_11:\n  pop\n  swap1\n  pop\n  tag_16\n  swap2\n  swap1\n  tag_17\n  jump\t// in\ntag_16:\n  pop\n  swap1\n  jump\t// out\ntag_17:\ntag_18:\n  dup1\n  dup3\n  gt\n  iszero\n  tag_19\n  jumpi\n  0x00\n  dup2\n  0x00\n  swap1\n  sstore\n  pop\n  0x01\n  add\n  jump(tag_18)\ntag_19:\n  pop\n  swap1\n  jump\t// out\n    /* \"#utility.yul\":7:82   */\ntag_20:\n    /* \"#utility.yul\":40:46   */\n  0x00\n    /* \"#utility.yul\":73:75   */\n  0x40\n    /* \"#utility.yul\":67:76   */\n  mload\n    /* \"#utility.yul\":57:76   */\n  swap1\n  pop\n    /* \"#utility.yul\":7:82   */\n  swap1\n  jump\t// out\n    /* \"#utility.yul\":88:205   */\ntag_21:\n    /* \"#utility.yul\":197:198   */\n  0x00\n    /* \"#utility.yul\":194:195   */\n  dup1\n    /* \"#utility.yul\":187:199   */\n  revert\n    /* \"#utility.yul\":211:328   */\ntag_22:\n    /* \"#utility.yul\":320:321   */\n  0x00\n    /* \"#utility.yul\":317:318   */\n  dup1\n    /* \"#utility.yul\":310:322   */\n  revert\n    /* \"#utility.yul\":334:451   */\ntag_23:\n    /* \"#utility.yul\":443:444   */\n  0x00\n    /* \"#utility.yul\":440:441   */\n  dup1\n    /* \"#utility.yul\":433:445   */\n  revert\n    /* \"#utility.yul\":457:574   */\ntag_24:\n    /* \"#utility.yul\":566:567   */\n  0x00\n    /* \"#utility.yul\":563:564   */\n  dup1\n    /* \"#utility.yul\":556:568   */\n  revert\n    /* \"#utility.yul\":580:682   */\ntag_25:\n    /* \"#utility.yul\":621:627   */\n  0x00\n    /* \"#utility.yul\":672:674   */\n  0x1f\n    /* \"#utility.yul\":668:675   */\n  not\n    /* \"#utility.yul\":663:665   */\n  0x1f\n    /* \"#utility.yul\":656:661   */\n  dup4\n    /* \"#utility.yul\":652:666   */\n  add\n    /* \"#utility.yul\":648:676   */\n  and\n    /* \"#utility.yul\":638:676   */\n  swap1\n  pop\n    /* \"#utility.yul\":580:682   */\n  swap2\n  swap1\n  pop\n  jump\t// out\n    /* \"#utility.yul\":688:868   */\ntag_26:\n    /* \"#utility.yul\":736:813   */\n  0x4e487b7100000000000000000000000000000000000000000000000000000000\n    /* \"#utility.yul\":733:734   */\n  0x00\n    /* \"#utility.yul\":726:814   */\n  mstore\n    /* \"#utility.yul\":833:837   */\n  0x41\n    /* \"#utility.yul\":830:831   */\n  0x04\n    /* \"#utility.yul\":823:838   */\n  mstore\n    /* \"#utility.yul\":857:861   */\n  0x24\n    /* \"#utility.yul\":854:855   */\n  0x00\n    /* \"#utility.yul\":847:862   */\n  revert\n    /* \"#utility.yul\":874:1155   */\ntag_27:\n    /* \"#utility.yul\":957:984   */\n  tag_50\n    /* \"#utility.yul\":979:983   */\n  dup3\n    /* \"#utility.yul\":957:984   */\n  tag_25\n  jump\t// in\ntag_50:\n    /* \"#utility.yul\":949:955   */\n  dup2\n    /* \"#utility.yul\":945:985   */\n  add\n    /* \"#utility.yul\":1087:1093   */\n  dup2\n    /* \"#utility.yul\":1075:1085   */\n  dup2\n    /* \"#utility.yul\":1072:1094   */\n  lt\n    /* \"#utility.yul\":1051:1069   */\n  0xffffffffffffffff\n    /* \"#utility.yul\":1039:1049   */\n  dup3\n    /* \"#utility.yul\":1036:1070   */\n  gt\n    /* \"#utility.yul\":1033:1095   */\n  or\n    /* \"#utility.yul\":1030:1118   */\n  iszero\n  tag_51\n  jumpi\n    /* \"#utility.yul\":1098:1116   */\n  tag_52\n  tag_26\n  jump\t// in\ntag_52:\n    /* \"#utility.yul\":1030:1118   */\ntag_51:\n    /* \"#utility.yul\":1138:1148   */\n  dup1\n    /* \"#utility.yul\":1134:1136   */\n  0x40\n    /* \"#utility.yul\":1127:1149   */\n  mstore\n    /* \"#utility.yul\":917:1155   */\n  pop\n    /* \"#utility.yul\":874:1155   */\n  pop\n  pop\n  jump\t// out\n    /* \"#utility.yul\":1161:1290   */\ntag_28:\n    /* \"#utility.yul\":1195:1201   */\n  0x00\n    /* \"#utility.yul\":1222:1242   */\n  tag_54\n  tag_20\n  jump\t// in\ntag_54:\n    /* \"#utility.yul\":1212:1242   */\n  swap1\n  pop\n    /* \"#utility.yul\":1251:1284   */\n  tag_55\n    /* \"#utility.yul\":1279:1283   */\n  dup3\n    /* \"#utility.yul\":1271:1277   */\n  dup3\n    /* \"#utility.yul\":1251:1284   */\n  tag_27\n  jump\t// in\ntag_55:\n    /* \"#utility.yul\":1161:1290   */\n  swap2\n  swap1\n  pop\n  jump\t// out\n    /* \"#utility.yul\":1296:1604   */\ntag_29:\n    /* \"#utility.yul\":1358:1362   */\n  0x00\n    /* \"#utility.yul\":1448:1466   */\n  0xffffffffffffffff\n    /* \"#utility.yul\":1440:1446   */\n  dup3\n    /* \"#utility.yul\":1437:1467   */\n  gt\n    /* \"#utility.yul\":1434:1490   */\n  iszero\n  tag_57\n  jumpi\n    /* \"#utility.yul\":1470:1488   */\n  tag_58\n  tag_26\n  jump\t// in\ntag_58:\n    /* \"#utility.yul\":1434:1490   */\ntag_57:\n    /* \"#utility.yul\":1508:1537   */\n  tag_59\n    /* \"#utility.yul\":1530:1536   */\n  dup3\n    /* \"#utility.yul\":1508:1537   */\n  tag_25\n  jump\t// in\ntag_59:\n    /* \"#utility.yul\":1500:1537   */\n  swap1\n  pop\n    /* \"#utility.yul\":1592:1596   */\n  0x20\n    /* \"#utility.yul\":1586:1590   */\n  dup2\n    /* \"#utility.yul\":1582:1597   */\n  add\n    /* \"#utility.yul\":1574:1597   */\n  swap1\n  pop\n    /* \"#utility.yul\":1296:1604   */\n  swap2\n  swap1\n  pop\n  jump\t// out\n    /* \"#utility.yul\":1610:1917   */\ntag_30:\n    /* \"#utility.yul\":1678:1679   */\n  0x00\n    /* \"#utility.yul\":1688:1801   */\ntag_61:\n    /* \"#utility.yul\":1702:1708   */\n  dup4\n    /* \"#utility.yul\":1699:1700   */\n  dup2\n    /* \"#utility.yul\":1696:1709   */\n  lt\n    /* \"#utility.yul\":1688:1801   */\n  iszero\n  tag_63\n  jumpi\n    /* \"#utility.yul\":1787:1788   */\n  dup1\n    /* \"#utility.yul\":1782:1785   */\n  dup3\n    /* \"#utility.yul\":1778:1789   */\n  add\n    /* \"#utility.yul\":1772:1790   */\n  mload\n    /* \"#utility.yul\":1768:1769   */\n  dup2\n    /* \"#utility.yul\":1763:1766   */\n  dup5\n    /* \"#utility.yul\":1759:1770   */\n  add\n    /* \"#utility.yul\":1752:1791   */\n  mstore\n    /* \"#utility.yul\":1724:1726   */\n  0x20\n    /* \"#utility.yul\":1721:1722   */\n  dup2\n    /* \"#utility.yul\":1717:1727   */\n  add\n    /* \"#utility.yul\":1712:1727   */\n  swap1\n  pop\n    /* \"#utility.yul\":1688:1801   */\n  jump(tag_61)\ntag_63:\n    /* \"#utility.yul\":1819:1825   */\n  dup4\n    /* \"#utility.yul\":1816:1817   */\n  dup2\n    /* \"#utility.yul\":1813:1826   */\n  gt\n    /* \"#utility.yul\":1810:1911   */\n  iszero\n  tag_64\n  jumpi\n    /* \"#utility.yul\":1899:1900   */\n  0x00\n    /* \"#utility.yul\":1890:1896   */\n  dup5\n    /* \"#utility.yul\":1885:1888   */\n  dup5\n    /* \"#utility.yul\":1881:1897   */\n  add\n    /* \"#utility.yul\":1874:1901   */\n  mstore\n    /* \"#utility.yul\":1810:1911   */\ntag_64:\n    /* \"#utility.yul\":1659:1917   */\n  pop\n    /* \"#utility.yul\":1610:1917   */\n  pop\n  pop\n  pop\n  jump\t// out\n    /* \"#utility.yul\":1923:2344   */\ntag_31:\n    /* \"#utility.yul\":2012:2017   */\n  0x00\n    /* \"#utility.yul\":2037:2103   */\n  tag_66\n    /* \"#utility.yul\":2053:2102   */\n  tag_67\n    /* \"#utility.yul\":2095:2101   */\n  dup5\n    /* \"#utility.yul\":2053:2102   */\n  tag_29\n  jump\t// in\ntag_67:\n    /* \"#utility.yul\":2037:2103   */\n  tag_28\n  jump\t// in\ntag_66:\n    /* \"#utility.yul\":2028:2103   */\n  swap1\n  pop\n    /* \"#utility.yul\":2126:2132   */\n  dup3\n    /* \"#utility.yul\":2119:2124   */\n  dup2\n    /* \"#utility.yul\":2112:2133   */\n  mstore\n    /* \"#utility.yul\":2164:2168   */\n  0x20\n    /* \"#utility.yul\":2157:2162   */\n  dup2\n    /* \"#utility.yul\":2153:2169   */\n  add\n    /* \"#utility.yul\":2202:2205   */\n  dup5\n    /* \"#utility.yul\":2193:2199   */\n  dup5\n    /* \"#utility.yul\":2188:2191   */\n  dup5\n    /* \"#utility.yul\":2184:2200   */\n  add\n    /* \"#utility.yul\":2181:2206   */\n  gt\n    /* \"#utility.yul\":2178:2290   */\n  iszero\n  tag_68\n  jumpi\n    /* \"#utility.yul\":2209:2288   */\n  tag_69\n  tag_24\n  jump\t// in\ntag_69:\n    /* \"#utility.yul\":2178:2290   */\ntag_68:\n    /* \"#utility.yul\":2299:2338   */\n  tag_70\n    /* \"#utility.yul\":2331:2337   */\n  dup5\n    /* \"#utility.yul\":2326:2329   */\n  dup3\n    /* \"#utility.yul\":2321:2324   */\n  dup6\n    /* \"#utility.yul\":2299:2338   */\n  tag_30\n  jump\t// in\ntag_70:\n    /* \"#utility.yul\":2018:2344   */\n  pop\n    /* \"#utility.yul\":1923:2344   */\n  swap4\n  swap3\n  pop\n  pop\n  pop\n  jump\t// out\n    /* \"#utility.yul\":2364:2719   */\ntag_32:\n    /* \"#utility.yul\":2431:2436   */\n  0x00\n    /* \"#utility.yul\":2480:2483   */\n  dup3\n    /* \"#utility.yul\":2473:2477   */\n  0x1f\n    /* \"#utility.yul\":2465:2471   */\n  dup4\n    /* \"#utility.yul\":2461:2478   */\n  add\n    /* \"#utility.yul\":2457:2484   */\n  slt\n    /* \"#utility.yul\":2447:2569   */\n  tag_72\n  jumpi\n    /* \"#utility.yul\":2488:2567   */\n  tag_73\n  tag_23\n  jump\t// in\ntag_73:\n    /* \"#utility.yul\":2447:2569   */\ntag_72:\n    /* \"#utility.yul\":2598:2604   */\n  dup2\n    /* \"#utility.yul\":2592:2605   */\n  mload\n    /* \"#utility.yul\":2623:2713   */\n  tag_74\n    /* \"#utility.yul\":2709:2712   */\n  dup5\n    /* \"#utility.yul\":2701:2707   */\n  dup3\n    /* \"#utility.yul\":2694:2698   */\n  0x20\n    /* \"#utility.yul\":2686:2692   */\n  dup7\n    /* \"#utility.yul\":2682:2699   */\n  add\n    /* \"#utility.yul\":2623:2713   */\n  tag_31\n  jump\t// in\ntag_74:\n    /* \"#utility.yul\":2614:2713   */\n  swap2\n  pop\n    /* \"#utility.yul\":2437:2719   */\n  pop\n    /* \"#utility.yul\":2364:2719   */\n  swap3\n  swap2\n  pop\n  pop\n  jump\t// out\n    /* \"#utility.yul\":2725:2802   */\ntag_33:\n    /* \"#utility.yul\":2762:2769   */\n  0x00\n    /* \"#utility.yul\":2791:2796   */\n  dup2\n    /* \"#utility.yul\":2780:2796   */\n  swap1\n  pop\n    /* \"#utility.yul\":2725:2802   */\n  swap2\n  swap1\n  pop\n  jump\t// out\n    /* \"#utility.yul\":2808:2930   */\ntag_34:\n    /* \"#utility.yul\":2881:2905   */\n  tag_77\n    /* \"#utility.yul\":2899:2904   */\n  dup2\n    /* \"#utility.yul\":2881:2905   */\n  tag_33\n  jump\t// in\ntag_77:\n    /* \"#utility.yul\":2874:2879   */\n  dup2\n    /* \"#utility.yul\":2871:2906   */\n  eq\n    /* \"#utility.yul\":2861:2924   */\n  tag_78\n  jumpi\n    /* \"#utility.yul\":2920:2921   */\n  0x00\n    /* \"#utility.yul\":2917:2918   */\n  dup1\n    /* \"#utility.yul\":2910:2922   */\n  revert\n    /* \"#utility.yul\":2861:2924   */\ntag_78:\n    /* \"#utility.yul\":2808:2930   */\n  pop\n  jump\t// out\n    /* \"#utility.yul\":2936:3079   */\ntag_35:\n    /* \"#utility.yul\":2993:2998   */\n  0x00\n    /* \"#utility.yul\":3024:3030   */\n  dup2\n    /* \"#utility.yul\":3018:3031   */\n  mload\n    /* \"#utility.yul\":3009:3031   */\n  swap1\n  pop\n    /* \"#utility.yul\":3040:3073   */\n  tag_80\n    /* \"#utility.yul\":3067:3072   */\n  dup2\n    /* \"#utility.yul\":3040:3073   */\n  tag_34\n  jump\t// in\ntag_80:\n    /* \"#utility.yul\":2936:3079   */\n  swap3\n  swap2\n  pop\n  pop\n  jump\t// out\n    /* \"#utility.yul\":3085:3211   */\ntag_36:\n    /* \"#utility.yul\":3122:3129   */\n  0x00\n    /* \"#utility.yul\":3162:3204   */\n  0xffffffffffffffffffffffffffffffffffffffff\n    /* \"#utility.yul\":3155:3160   */\n  dup3\n    /* \"#utility.yul\":3151:3205   */\n  and\n    /* \"#utility.yul\":3140:3205   */\n  swap1\n  pop\n    /* \"#utility.yul\":3085:3211   */\n  swap2\n  swap1\n  pop\n  jump\t// out\n    /* \"#utility.yul\":3217:3313   */\ntag_37:\n    /* \"#utility.yul\":3254:3261   */\n  0x00\n    /* \"#utility.yul\":3283:3307   */\n  tag_83\n    /* \"#utility.yul\":3301:3306   */\n  dup3\n    /* \"#utility.yul\":3283:3307   */\n  tag_36\n  jump\t// in\ntag_83:\n    /* \"#utility.yul\":3272:3307   */\n  swap1\n  pop\n    /* \"#utility.yul\":3217:3313   */\n  swap2\n  swap1\n  pop\n  jump\t// out\n    /* \"#utility.yul\":3319:3441   */\ntag_38:\n    /* \"#utility.yul\":3392:3416   */\n  tag_85\n    /* \"#utility.yul\":3410:3415   */\n  dup2\n    /* \"#utility.yul\":3392:3416   */\n  tag_37\n  jump\t// in\ntag_85:\n    /* \"#utility.yul\":3385:3390   */\n  dup2\n    /* \"#utility.yul\":3382:3417   */\n  eq\n    /* \"#utility.yul\":3372:3435   */\n  tag_86\n  jumpi\n    /* \"#utility.yul\":3431:3432   */\n  0x00\n    /* \"#utility.yul\":3428:3429   */\n  dup1\n    /* \"#utility.yul\":3421:3433   */\n  revert\n    /* \"#utility.yul\":3372:3435   */\ntag_86:\n    /* \"#utility.yul\":3319:3441   */\n  pop\n  jump\t// out\n    /* \"#utility.yul\":3447:3590   */\ntag_39:\n    /* \"#utility.yul\":3504:3509   */\n  0x00\n    /* \"#utility.yul\":3535:3541   */\n  dup2\n    /* \"#utility.yul\":3529:3542   */\n  mload\n    /* \"#utility.yul\":3520:3542   */\n  swap1\n  pop\n    /* \"#utility.yul\":3551:3584   */\n  tag_88\n    /* \"#utility.yul\":3578:3583   */\n  dup2\n    /* \"#utility.yul\":3551:3584   */\n  tag_38\n  jump\t// in\ntag_88:\n    /* \"#utility.yul\":3447:3590   */\n  swap3\n  swap2\n  pop\n  pop\n  jump\t// out\n    /* \"#utility.yul\":3596:4432   */\ntag_3:\n    /* \"#utility.yul\":3694:3700   */\n  0x00\n    /* \"#utility.yul\":3702:3708   */\n  dup1\n    /* \"#utility.yul\":3710:3716   */\n  0x00\n    /* \"#utility.yul\":3759:3761   */\n  0x60\n    /* \"#utility.yul\":3747:3756   */\n  dup5\n    /* \"#utility.yul\":3738:3745   */\n  dup7\n    /* \"#utility.yul\":3734:3757   */\n  sub\n    /* \"#utility.yul\":3730:3762   */\n  slt\n    /* \"#utility.yul\":3727:3846   */\n  iszero\n  tag_90\n  jumpi\n    /* \"#utility.yul\":3765:3844   */\n  tag_91\n  tag_21\n  jump\t// in\ntag_91:\n    /* \"#utility.yul\":3727:3846   */\ntag_90:\n    /* \"#utility.yul\":3906:3907   */\n  0x00\n    /* \"#utility.yul\":3895:3904   */\n  dup5\n    /* \"#utility.yul\":3891:3908   */\n  add\n    /* \"#utility.yul\":3885:3909   */\n  mload\n    /* \"#utility.yul\":3936:3954   */\n  0xffffffffffffffff\n    /* \"#utility.yul\":3928:3934   */\n  dup2\n    /* \"#utility.yul\":3925:3955   */\n  gt\n    /* \"#utility.yul\":3922:4039   */\n  iszero\n  tag_92\n  jumpi\n    /* \"#utility.yul\":3958:4037   */\n  tag_93\n  tag_22\n  jump\t// in\ntag_93:\n    /* \"#utility.yul\":3922:4039   */\ntag_92:\n    /* \"#utility.yul\":4063:4137   */\n  tag_94\n    /* \"#utility.yul\":4129:4136   */\n  dup7\n    /* \"#utility.yul\":4120:4126   */\n  dup3\n    /* \"#utility.yul\":4109:4118   */\n  dup8\n    /* \"#utility.yul\":4105:4127   */\n  add\n    /* \"#utility.yul\":4063:4137   */\n  tag_32\n  jump\t// in\ntag_94:\n    /* \"#utility.yul\":4053:4137   */\n  swap4\n  pop\n    /* \"#utility.yul\":3856:4147   */\n  pop\n    /* \"#utility.yul\":4186:4188   */\n  0x20\n    /* \"#utility.yul\":4212:4276   */\n  tag_95\n    /* \"#utility.yul\":4268:4275   */\n  dup7\n    /* \"#utility.yul\":4259:4265   */\n  dup3\n    /* \"#utility.yul\":4248:4257   */\n  dup8\n    /* \"#utility.yul\":4244:4266   */\n  add\n    /* \"#utility.yul\":4212:4276   */\n  tag_35\n  jump\t// in\ntag_95:\n    /* \"#utility.yul\":4202:4276   */\n  swap3\n  pop\n    /* \"#utility.yul\":4157:4286   */\n  pop\n    /* \"#utility.yul\":4325:4327   */\n  0x40\n    /* \"#utility.yul\":4351:4415   */\n  tag_96\n    /* \"#utility.yul\":4407:4414   */\n  dup7\n    /* \"#utility.yul\":4398:4404   */\n  dup3\n    /* \"#utility.yul\":4387:4396   */\n  dup8\n    /* \"#utility.yul\":4383:4405   */\n  add\n    /* \"#utility.yul\":4351:4415   */\n  tag_39\n  jump\t// in\ntag_96:\n    /* \"#utility.yul\":4341:4415   */\n  swap2\n  pop\n    /* \"#utility.yul\":4296:4425   */\n  pop\n    /* \"#utility.yul\":3596:4432   */\n  swap3\n  pop\n  swap3\n  pop\n  swap3\n  jump\t// out\n    /* \"#utility.yul\":4438:4618   */\ntag_40:\n    /* \"#utility.yul\":4486:4563   */\n  0x4e487b7100000000000000000000000000000000000000000000000000000000\n    /* \"#utility.yul\":4483:4484   */\n  0x00\n    /* \"#utility.yul\":4476:4564   */\n  mstore\n    /* \"#utility.yul\":4583:4587   */\n  0x22\n    /* \"#utility.yul\":4580:4581   */\n  0x04\n    /* \"#utility.yul\":4573:4588   */\n  mstore\n    /* \"#utility.yul\":4607:4611   */\n  0x24\n    /* \"#utility.yul\":4604:4605   */\n  0x00\n    /* \"#utility.yul\":4597:4612   */\n  revert\n    /* \"#utility.yul\":4624:4944   */\ntag_10:\n    /* \"#utility.yul\":4668:4674   */\n  0x00\n    /* \"#utility.yul\":4705:4706   */\n  0x02\n    /* \"#utility.yul\":4699:4703   */\n  dup3\n    /* \"#utility.yul\":4695:4707   */\n  div\n    /* \"#utility.yul\":4685:4707   */\n  swap1\n  pop\n    /* \"#utility.yul\":4752:4753   */\n  0x01\n    /* \"#utility.yul\":4746:4750   */\n  dup3\n    /* \"#utility.yul\":4742:4754   */\n  and\n    /* \"#utility.yul\":4773:4791   */\n  dup1\n    /* \"#utility.yul\":4763:4844   */\n  tag_99\n  jumpi\n    /* \"#utility.yul\":4829:4833   */\n  0x7f\n    /* \"#utility.yul\":4821:4827   */\n  dup3\n    /* \"#utility.yul\":4817:4834   */\n  and\n    /* \"#utility.yul\":4807:4834   */\n  swap2\n  pop\n    /* \"#utility.yul\":4763:4844   */\ntag_99:\n    /* \"#utility.yul\":4891:4893   */\n  0x20\n    /* \"#utility.yul\":4883:4889   */\n  dup3\n    /* \"#utility.yul\":4880:4894   */\n  lt\n    /* \"#utility.yul\":4860:4878   */\n  dup2\n    /* \"#utility.yul\":4857:4895   */\n  eq\n    /* \"#utility.yul\":4854:4938   */\n  iszero\n  tag_100\n  jumpi\n    /* \"#utility.yul\":4910:4928   */\n  tag_101\n  tag_40\n  jump\t// in\ntag_101:\n    /* \"#utility.yul\":4854:4938   */\ntag_100:\n    /* \"#utility.yul\":4675:4944   */\n  pop\n    /* \"#utility.yul\":4624:4944   */\n  swap2\n  swap1\n  pop\n  jump\t// out\n    /* \"KickstarterCampaign.sol\":74:2976   */\ntag_8:\n  dataSize(sub_0)\n  dup1\n  dataOffset(sub_0)\n  0x00\n  codecopy\n  0x00\n  return\nstop\n\nsub_0: assembly {\n        /* \"KickstarterCampaign.sol\":74:2976   */\n      mstore(0x40, 0x80)\n      jumpi(tag_1, lt(calldatasize, 0x04))\n      shr(0xe0, calldataload(0x00))\n      dup1\n      0x6c60a942\n      gt\n      tag_15\n      jumpi\n      dup1\n      0x9fb42b1f\n      gt\n      tag_16\n      jumpi\n      dup1\n      0x9fb42b1f\n      eq\n      tag_11\n      jumpi\n      dup1\n      0xb39e12cf\n      eq\n      tag_12\n      jumpi\n      dup1\n      0xcf97e294\n      eq\n      tag_13\n      jumpi\n      dup1\n      0xd7bb99ba\n      eq\n      tag_14\n      jumpi\n      jump(tag_1)\n    tag_16:\n      dup1\n      0x6c60a942\n      eq\n      tag_8\n      jumpi\n      dup1\n      0x700127ef\n      eq\n      tag_9\n      jumpi\n      dup1\n      0x937e09b1\n      eq\n      tag_10\n      jumpi\n      jump(tag_1)\n    tag_15:\n      dup1\n      0x031b3677\n      eq\n      tag_2\n      jumpi\n      dup1\n      0x0724fda9\n      eq\n      tag_3\n      jumpi\n      dup1\n      0x13a2e117\n      eq\n      tag_4\n      jumpi\n      dup1\n      0x30559591\n      eq\n      tag_5\n      jumpi\n      dup1\n      0x3410452a\n      eq\n      tag_6\n      jumpi\n      dup1\n      0x4051ddac\n      eq\n      tag_7\n      jumpi\n    tag_1:\n      0x00\n      dup1\n      revert\n        /* \"KickstarterCampaign.sol\":218:257   */\n    tag_2:\n      callvalue\n      dup1\n      iszero\n      tag_17\n      jumpi\n      0x00\n      dup1\n      revert\n    tag_17:\n      pop\n      tag_18\n      0x04\n      dup1\n      calldatasize\n      sub\n      dup2\n      add\n      swap1\n      tag_19\n      swap2\n      swap1\n      tag_20\n      jump\t// in\n    tag_19:\n      tag_21\n      jump\t// in\n    tag_18:\n      mload(0x40)\n      tag_22\n      swap2\n      swap1\n      tag_23\n      jump\t// in\n    tag_22:\n      mload(0x40)\n      dup1\n      swap2\n      sub\n      swap1\n      return\n        /* \"KickstarterCampaign.sol\":147:173   */\n    tag_3:\n      callvalue\n      dup1\n      iszero\n      tag_24\n      jumpi\n      0x00\n      dup1\n      revert\n    tag_24:\n      pop\n      tag_25\n      tag_26\n      jump\t// in\n    tag_25:\n      mload(0x40)\n      tag_27\n      swap2\n      swap1\n      tag_28\n      jump\t// in\n    tag_27:\n      mload(0x40)\n      dup1\n      swap2\n      sub\n      swap1\n      return\n        /* \"KickstarterCampaign.sol\":264:288   */\n    tag_4:\n      callvalue\n      dup1\n      iszero\n      tag_29\n      jumpi\n      0x00\n      dup1\n      revert\n    tag_29:\n      pop\n      tag_30\n      tag_31\n      jump\t// in\n    tag_30:\n      mload(0x40)\n      tag_32\n      swap2\n      swap1\n      tag_23\n      jump\t// in\n    tag_32:\n      mload(0x40)\n      dup1\n      swap2\n      sub\n      swap1\n      return\n        /* \"KickstarterCampaign.sol\":1394:1779   */\n    tag_5:\n      callvalue\n      dup1\n      iszero\n      tag_33\n      jumpi\n      0x00\n      dup1\n      revert\n    tag_33:\n      pop\n      tag_34\n      0x04\n      dup1\n      calldatasize\n      sub\n      dup2\n      add\n      swap1\n      tag_35\n      swap2\n      swap1\n      tag_36\n      jump\t// in\n    tag_35:\n      tag_37\n      jump\t// in\n    tag_34:\n      stop\n        /* \"KickstarterCampaign.sol\":2546:2638   */\n    tag_6:\n      callvalue\n      dup1\n      iszero\n      tag_38\n      jumpi\n      0x00\n      dup1\n      revert\n    tag_38:\n      pop\n      tag_39\n      tag_40\n      jump\t// in\n    tag_39:\n      mload(0x40)\n      tag_41\n      swap2\n      swap1\n      tag_23\n      jump\t// in\n    tag_41:\n      mload(0x40)\n      dup1\n      swap2\n      sub\n      swap1\n      return\n        /* \"KickstarterCampaign.sol\":2254:2538   */\n    tag_7:\n      callvalue\n      dup1\n      iszero\n      tag_42\n      jumpi\n      0x00\n      dup1\n      revert\n    tag_42:\n      pop\n      tag_43\n      tag_44\n      jump\t// in\n    tag_43:\n      mload(0x40)\n      tag_45\n      swap7\n      swap6\n      swap5\n      swap4\n      swap3\n      swap2\n      swap1\n      tag_46\n      jump\t// in\n    tag_45:\n      mload(0x40)\n      dup1\n      swap2\n      sub\n      swap1\n      return\n        /* \"KickstarterCampaign.sol\":379:435   */\n    tag_8:\n      callvalue\n      dup1\n      iszero\n      tag_47\n      jumpi\n      0x00\n      dup1\n      revert\n    tag_47:\n      pop\n      tag_48\n      0x04\n      dup1\n      calldatasize\n      sub\n      dup2\n      add\n      swap1\n      tag_49\n      swap2\n      swap1\n      tag_36\n      jump\t// in\n    tag_49:\n      tag_50\n      jump\t// in\n    tag_48:\n      mload(0x40)\n      tag_51\n      swap6\n      swap5\n      swap4\n      swap3\n      swap2\n      swap1\n      tag_52\n      jump\t// in\n    tag_51:\n      mload(0x40)\n      dup1\n      swap2\n      sub\n      swap1\n      return\n        /* \"KickstarterCampaign.sol\":1787:2246   */\n    tag_9:\n      callvalue\n      dup1\n      iszero\n      tag_53\n      jumpi\n      0x00\n      dup1\n      revert\n    tag_53:\n      pop\n      tag_54\n      0x04\n      dup1\n      calldatasize\n      sub\n      dup2\n      add\n      swap1\n      tag_55\n      swap2\n      swap1\n      tag_36\n      jump\t// in\n    tag_55:\n      tag_56\n      jump\t// in\n    tag_54:\n      stop\n        /* \"KickstarterCampaign.sol\":180:211   */\n    tag_10:\n      callvalue\n      dup1\n      iszero\n      tag_57\n      jumpi\n      0x00\n      dup1\n      revert\n    tag_57:\n      pop\n      tag_58\n      tag_59\n      jump\t// in\n    tag_58:\n      mload(0x40)\n      tag_60\n      swap2\n      swap1\n      tag_23\n      jump\t// in\n    tag_60:\n      mload(0x40)\n      dup1\n      swap2\n      sub\n      swap1\n      return\n        /* \"KickstarterCampaign.sol\":349:372   */\n    tag_11:\n      callvalue\n      dup1\n      iszero\n      tag_61\n      jumpi\n      0x00\n      dup1\n      revert\n    tag_61:\n      pop\n      tag_62\n      tag_63\n      jump\t// in\n    tag_62:\n      mload(0x40)\n      tag_64\n      swap2\n      swap1\n      tag_23\n      jump\t// in\n    tag_64:\n      mload(0x40)\n      dup1\n      swap2\n      sub\n      swap1\n      return\n        /* \"KickstarterCampaign.sol\":110:140   */\n    tag_12:\n      callvalue\n      dup1\n      iszero\n      tag_65\n      jumpi\n      0x00\n      dup1\n      revert\n    tag_65:\n      pop\n      tag_66\n      tag_67\n      jump\t// in\n    tag_66:\n      mload(0x40)\n      tag_68\n      swap2\n      swap1\n      tag_69\n      jump\t// in\n    tag_68:\n      mload(0x40)\n      dup1\n      swap2\n      sub\n      swap1\n      return\n        /* \"KickstarterCampaign.sol\":878:1386   */\n    tag_13:\n      callvalue\n      dup1\n      iszero\n      tag_70\n      jumpi\n      0x00\n      dup1\n      revert\n    tag_70:\n      pop\n      tag_71\n      0x04\n      dup1\n      calldatasize\n      sub\n      dup2\n      add\n      swap1\n      tag_72\n      swap2\n      swap1\n      tag_73\n      jump\t// in\n    tag_72:\n      tag_74\n      jump\t// in\n    tag_71:\n      mload(0x40)\n      tag_75\n      swap2\n      swap1\n      tag_23\n      jump\t// in\n    tag_75:\n      mload(0x40)\n      dup1\n      swap2\n      sub\n      swap1\n      return\n        /* \"KickstarterCampaign.sol\":646:870   */\n    tag_14:\n      tag_76\n      tag_77\n      jump\t// in\n    tag_76:\n      stop\n        /* \"KickstarterCampaign.sol\":218:257   */\n    tag_21:\n      mstore(0x20, 0x03)\n      dup1\n      0x00\n      mstore\n      keccak256(0x00, 0x40)\n      0x00\n      swap2\n      pop\n      swap1\n      pop\n      sload\n      dup2\n      jump\t// out\n        /* \"KickstarterCampaign.sol\":147:173   */\n    tag_26:\n      0x01\n      dup1\n      sload\n      tag_78\n      swap1\n      tag_79\n      jump\t// in\n    tag_78:\n      dup1\n      0x1f\n      add\n      0x20\n      dup1\n      swap2\n      div\n      mul\n      0x20\n      add\n      mload(0x40)\n      swap1\n      dup2\n      add\n      0x40\n      mstore\n      dup1\n      swap3\n      swap2\n      swap1\n      dup2\n      dup2\n      mstore\n      0x20\n      add\n      dup3\n      dup1\n      sload\n      tag_80\n      swap1\n      tag_79\n      jump\t// in\n    tag_80:\n      dup1\n      iszero\n      tag_81\n      jumpi\n      dup1\n      0x1f\n      lt\n      tag_82\n      jumpi\n      0x0100\n      dup1\n      dup4\n      sload\n      div\n      mul\n      dup4\n      mstore\n      swap2\n      0x20\n      add\n      swap2\n      jump(tag_81)\n    tag_82:\n      dup3\n      add\n      swap2\n      swap1\n      0x00\n      mstore\n      keccak256(0x00, 0x20)\n      swap1\n    tag_83:\n      dup2\n      sload\n      dup2\n      mstore\n      swap1\n      0x01\n      add\n      swap1\n      0x20\n      add\n      dup1\n      dup4\n      gt\n      tag_83\n      jumpi\n      dup3\n      swap1\n      sub\n      0x1f\n      and\n      dup3\n      add\n      swap2\n    tag_81:\n      pop\n      pop\n      pop\n      pop\n      pop\n      dup2\n      jump\t// out\n        /* \"KickstarterCampaign.sol\":264:288   */\n    tag_31:\n      sload(0x04)\n      dup2\n      jump\t// out\n        /* \"KickstarterCampaign.sol\":1394:1779   */\n    tag_37:\n        /* \"KickstarterCampaign.sol\":2701:2716   */\n      0x00\n      dup1\n      sload\n      swap1\n      0x0100\n      exp\n      swap1\n      div\n      0xffffffffffffffffffffffffffffffffffffffff\n      and\n        /* \"KickstarterCampaign.sol\":2687:2716   */\n      0xffffffffffffffffffffffffffffffffffffffff\n      and\n        /* \"KickstarterCampaign.sol\":2687:2697   */\n      caller\n        /* \"KickstarterCampaign.sol\":2687:2716   */\n      0xffffffffffffffffffffffffffffffffffffffff\n      and\n      eq\n        /* \"KickstarterCampaign.sol\":2679:2717   */\n      tag_85\n      jumpi\n      0x00\n      dup1\n      revert\n    tag_85:\n        /* \"KickstarterCampaign.sol\":1472:1510   */\n      0x00\n        /* \"KickstarterCampaign.sol\":1513:1529   */\n      0x06\n        /* \"KickstarterCampaign.sol\":1513:1541   */\n      0x00\n        /* \"KickstarterCampaign.sol\":1530:1540   */\n      dup4\n        /* \"KickstarterCampaign.sol\":1513:1541   */\n      dup2\n      mstore\n      0x20\n      add\n      swap1\n      dup2\n      mstore\n      0x20\n      add\n      0x00\n      keccak256\n        /* \"KickstarterCampaign.sol\":1472:1541   */\n      swap1\n      pop\n        /* \"KickstarterCampaign.sol\":1563:1577   */\n      dup1\n        /* \"KickstarterCampaign.sol\":1563:1586   */\n      0x02\n      add\n      0x14\n      swap1\n      sload\n      swap1\n      0x0100\n      exp\n      swap1\n      div\n      0xff\n      and\n        /* \"KickstarterCampaign.sol\":1562:1586   */\n      iszero\n        /* \"KickstarterCampaign.sol\":1554:1587   */\n      tag_87\n      jumpi\n      0x00\n      dup1\n      revert\n    tag_87:\n        /* \"KickstarterCampaign.sol\":1653:1654   */\n      0x02\n        /* \"KickstarterCampaign.sol\":1638:1650   */\n      sload(0x04)\n        /* \"KickstarterCampaign.sol\":1638:1654   */\n      tag_88\n      swap2\n      swap1\n      tag_89\n      jump\t// in\n    tag_88:\n        /* \"KickstarterCampaign.sol\":1606:1620   */\n      dup2\n        /* \"KickstarterCampaign.sol\":1606:1634   */\n      0x03\n      add\n      sload\n        /* \"KickstarterCampaign.sol\":1606:1655   */\n      gt\n        /* \"KickstarterCampaign.sol\":1598:1656   */\n      tag_90\n      jumpi\n      0x00\n      dup1\n      revert\n    tag_90:\n        /* \"KickstarterCampaign.sol\":1669:1683   */\n      dup1\n        /* \"KickstarterCampaign.sol\":1669:1693   */\n      0x02\n      add\n      0x00\n      swap1\n      sload\n      swap1\n      0x0100\n      exp\n      swap1\n      div\n      0xffffffffffffffffffffffffffffffffffffffff\n      and\n        /* \"KickstarterCampaign.sol\":1669:1702   */\n      0xffffffffffffffffffffffffffffffffffffffff\n      and\n        /* \"KickstarterCampaign.sol\":1669:1730   */\n      0x08fc\n        /* \"KickstarterCampaign.sol\":1703:1717   */\n      dup3\n        /* \"KickstarterCampaign.sol\":1703:1729   */\n      0x01\n      add\n      sload\n        /* \"KickstarterCampaign.sol\":1669:1730   */\n      swap1\n      dup2\n      iszero\n      mul\n      swap1\n      mload(0x40)\n      0x00\n      mload(0x40)\n      dup1\n      dup4\n      sub\n      dup2\n      dup6\n      dup9\n      dup9\n      call\n      swap4\n      pop\n      pop\n      pop\n      pop\n      iszero\n      dup1\n      iszero\n      tag_92\n      jumpi\n      returndatasize\n      0x00\n      dup1\n      returndatacopy\n      revert(0x00, returndatasize)\n    tag_92:\n      pop\n        /* \"KickstarterCampaign.sol\":1767:1771   */\n      0x01\n        /* \"KickstarterCampaign.sol\":1741:1755   */\n      dup2\n        /* \"KickstarterCampaign.sol\":1741:1764   */\n      0x02\n      add\n      0x14\n        /* \"KickstarterCampaign.sol\":1741:1771   */\n      0x0100\n      exp\n      dup2\n      sload\n      dup2\n      0xff\n      mul\n      not\n      and\n      swap1\n      dup4\n      iszero\n      iszero\n      mul\n      or\n      swap1\n      sstore\n      pop\n        /* \"KickstarterCampaign.sol\":1461:1779   */\n      pop\n        /* \"KickstarterCampaign.sol\":1394:1779   */\n      pop\n      jump\t// out\n        /* \"KickstarterCampaign.sol\":2546:2638   */\n    tag_40:\n        /* \"KickstarterCampaign.sol\":2595:2599   */\n      0x00\n        /* \"KickstarterCampaign.sol\":2619:2630   */\n      sload(0x05)\n        /* \"KickstarterCampaign.sol\":2612:2630   */\n      swap1\n      pop\n        /* \"KickstarterCampaign.sol\":2546:2638   */\n      swap1\n      jump\t// out\n        /* \"KickstarterCampaign.sol\":2254:2538   */\n    tag_44:\n        /* \"KickstarterCampaign.sol\":2297:2301   */\n      0x00\n        /* \"KickstarterCampaign.sol\":2303:2307   */\n      dup1\n        /* \"KickstarterCampaign.sol\":2309:2313   */\n      0x00\n        /* \"KickstarterCampaign.sol\":2315:2319   */\n      dup1\n        /* \"KickstarterCampaign.sol\":2321:2328   */\n      0x00\n        /* \"KickstarterCampaign.sol\":2330:2343   */\n      0x60\n        /* \"KickstarterCampaign.sol\":2374:2393   */\n      sload(0x02)\n        /* \"KickstarterCampaign.sol\":2404:2425   */\n      selfbalance\n        /* \"KickstarterCampaign.sol\":2436:2447   */\n      sload(0x05)\n        /* \"KickstarterCampaign.sol\":2458:2470   */\n      sload(0x04)\n        /* \"KickstarterCampaign.sol\":2481:2496   */\n      0x00\n      dup1\n      sload\n      swap1\n      0x0100\n      exp\n      swap1\n      div\n      0xffffffffffffffffffffffffffffffffffffffff\n      and\n        /* \"KickstarterCampaign.sol\":2507:2519   */\n      0x01\n        /* \"KickstarterCampaign.sol\":2356:2530   */\n      dup1\n      dup1\n      sload\n      tag_95\n      swap1\n      tag_79\n      jump\t// in\n    tag_95:\n      dup1\n      0x1f\n      add\n      0x20\n      dup1\n      swap2\n      div\n      mul\n      0x20\n      add\n      mload(0x40)\n      swap1\n      dup2\n      add\n      0x40\n      mstore\n      dup1\n      swap3\n      swap2\n      swap1\n      dup2\n      dup2\n      mstore\n      0x20\n      add\n      dup3\n      dup1\n      sload\n      tag_96\n      swap1\n      tag_79\n      jump\t// in\n    tag_96:\n      dup1\n      iszero\n      tag_97\n      jumpi\n      dup1\n      0x1f\n      lt\n      tag_98\n      jumpi\n      0x0100\n      dup1\n      dup4\n      sload\n      div\n      mul\n      dup4\n      mstore\n      swap2\n      0x20\n      add\n      swap2\n      jump(tag_97)\n    tag_98:\n      dup3\n      add\n      swap2\n      swap1\n      0x00\n      mstore\n      keccak256(0x00, 0x20)\n      swap1\n    tag_99:\n      dup2\n      sload\n      dup2\n      mstore\n      swap1\n      0x01\n      add\n      swap1\n      0x20\n      add\n      dup1\n      dup4\n      gt\n      tag_99\n      jumpi\n      dup3\n      swap1\n      sub\n      0x1f\n      and\n      dup3\n      add\n      swap2\n    tag_97:\n      pop\n      pop\n      pop\n      pop\n      pop\n      swap1\n      pop\n      swap6\n      pop\n      swap6\n      pop\n      swap6\n      pop\n      swap6\n      pop\n      swap6\n      pop\n      swap6\n      pop\n        /* \"KickstarterCampaign.sol\":2254:2538   */\n      swap1\n      swap2\n      swap3\n      swap4\n      swap5\n      swap6\n      jump\t// out\n        /* \"KickstarterCampaign.sol\":379:435   */\n    tag_50:\n      mstore(0x20, 0x06)\n      dup1\n      0x00\n      mstore\n      keccak256(0x00, 0x40)\n      0x00\n      swap2\n      pop\n      swap1\n      pop\n      dup1\n      0x00\n      add\n      dup1\n      sload\n      tag_100\n      swap1\n      tag_79\n      jump\t// in\n    tag_100:\n      dup1\n      0x1f\n      add\n      0x20\n      dup1\n      swap2\n      div\n      mul\n      0x20\n      add\n      mload(0x40)\n      swap1\n      dup2\n      add\n      0x40\n      mstore\n      dup1\n      swap3\n      swap2\n      swap1\n      dup2\n      dup2\n      mstore\n      0x20\n      add\n      dup3\n      dup1\n      sload\n      tag_101\n      swap1\n      tag_79\n      jump\t// in\n    tag_101:\n      dup1\n      iszero\n      tag_102\n      jumpi\n      dup1\n      0x1f\n      lt\n      tag_103\n      jumpi\n      0x0100\n      dup1\n      dup4\n      sload\n      div\n      mul\n      dup4\n      mstore\n      swap2\n      0x20\n      add\n      swap2\n      jump(tag_102)\n    tag_103:\n      dup3\n      add\n      swap2\n      swap1\n      0x00\n      mstore\n      keccak256(0x00, 0x20)\n      swap1\n    tag_104:\n      dup2\n      sload\n      dup2\n      mstore\n      swap1\n      0x01\n      add\n      swap1\n      0x20\n      add\n      dup1\n      dup4\n      gt\n      tag_104\n      jumpi\n      dup3\n      swap1\n      sub\n      0x1f\n      and\n      dup3\n      add\n      swap2\n    tag_102:\n      pop\n      pop\n      pop\n      pop\n      pop\n      swap1\n      dup1\n      0x01\n      add\n      sload\n      swap1\n      dup1\n      0x02\n      add\n      0x00\n      swap1\n      sload\n      swap1\n      0x0100\n      exp\n      swap1\n      div\n      0xffffffffffffffffffffffffffffffffffffffff\n      and\n      swap1\n      dup1\n      0x02\n      add\n      0x14\n      swap1\n      sload\n      swap1\n      0x0100\n      exp\n      swap1\n      div\n      0xff\n      and\n      swap1\n      dup1\n      0x03\n      add\n      sload\n      swap1\n      pop\n      dup6\n      jump\t// out\n        /* \"KickstarterCampaign.sol\":1787:2246   */\n    tag_56:\n        /* \"KickstarterCampaign.sol\":1915:1916   */\n      0x00\n        /* \"KickstarterCampaign.sol\":1893:1900   */\n      0x03\n        /* \"KickstarterCampaign.sol\":1893:1912   */\n      0x00\n        /* \"KickstarterCampaign.sol\":1901:1911   */\n      caller\n        /* \"KickstarterCampaign.sol\":1893:1912   */\n      0xffffffffffffffffffffffffffffffffffffffff\n      and\n      0xffffffffffffffffffffffffffffffffffffffff\n      and\n      dup2\n      mstore\n      0x20\n      add\n      swap1\n      dup2\n      mstore\n      0x20\n      add\n      0x00\n      keccak256\n      sload\n        /* \"KickstarterCampaign.sol\":1893:1916   */\n      gt\n        /* \"KickstarterCampaign.sol\":1885:1917   */\n      tag_106\n      jumpi\n      0x00\n      dup1\n      revert\n    tag_106:\n        /* \"KickstarterCampaign.sol\":1930:1968   */\n      0x00\n        /* \"KickstarterCampaign.sol\":1971:1987   */\n      0x06\n        /* \"KickstarterCampaign.sol\":1971:1999   */\n      0x00\n        /* \"KickstarterCampaign.sol\":1988:1998   */\n      dup4\n        /* \"KickstarterCampaign.sol\":1971:1999   */\n      dup2\n      mstore\n      0x20\n      add\n      swap1\n      dup2\n      mstore\n      0x20\n      add\n      0x00\n      keccak256\n        /* \"KickstarterCampaign.sol\":1930:1999   */\n      swap1\n      pop\n        /* \"KickstarterCampaign.sol\":2089:2103   */\n      dup1\n        /* \"KickstarterCampaign.sol\":2089:2120   */\n      0x04\n      add\n        /* \"KickstarterCampaign.sol\":2089:2132   */\n      0x00\n        /* \"KickstarterCampaign.sol\":2121:2131   */\n      caller\n        /* \"KickstarterCampaign.sol\":2089:2132   */\n      0xffffffffffffffffffffffffffffffffffffffff\n      and\n      0xffffffffffffffffffffffffffffffffffffffff\n      and\n      dup2\n      mstore\n      0x20\n      add\n      swap1\n      dup2\n      mstore\n      0x20\n      add\n      0x00\n      keccak256\n      0x00\n      swap1\n      sload\n      swap1\n      0x0100\n      exp\n      swap1\n      div\n      0xff\n      and\n        /* \"KickstarterCampaign.sol\":2087:2133   */\n      iszero\n        /* \"KickstarterCampaign.sol\":2079:2134   */\n      tag_107\n      jumpi\n      0x00\n      dup1\n      revert\n    tag_107:\n        /* \"KickstarterCampaign.sol\":2193:2197   */\n      0x01\n        /* \"KickstarterCampaign.sol\":2147:2161   */\n      dup2\n        /* \"KickstarterCampaign.sol\":2147:2178   */\n      0x04\n      add\n        /* \"KickstarterCampaign.sol\":2147:2190   */\n      0x00\n        /* \"KickstarterCampaign.sol\":2179:2189   */\n      caller\n        /* \"KickstarterCampaign.sol\":2147:2190   */\n      0xffffffffffffffffffffffffffffffffffffffff\n      and\n      0xffffffffffffffffffffffffffffffffffffffff\n      and\n      dup2\n      mstore\n      0x20\n      add\n      swap1\n      dup2\n      mstore\n      0x20\n      add\n      0x00\n      keccak256\n      0x00\n        /* \"KickstarterCampaign.sol\":2147:2197   */\n      0x0100\n      exp\n      dup2\n      sload\n      dup2\n      0xff\n      mul\n      not\n      and\n      swap1\n      dup4\n      iszero\n      iszero\n      mul\n      or\n      swap1\n      sstore\n      pop\n        /* \"KickstarterCampaign.sol\":2208:2222   */\n      dup1\n        /* \"KickstarterCampaign.sol\":2208:2236   */\n      0x03\n      add\n      0x00\n        /* \"KickstarterCampaign.sol\":2208:2238   */\n      dup2\n      sload\n      dup1\n      swap3\n      swap2\n      swap1\n      tag_108\n      swap1\n      tag_109\n      jump\t// in\n    tag_108:\n      swap2\n      swap1\n      pop\n      sstore\n      pop\n        /* \"KickstarterCampaign.sol\":1835:2246   */\n      pop\n        /* \"KickstarterCampaign.sol\":1787:2246   */\n      pop\n      jump\t// out\n        /* \"KickstarterCampaign.sol\":180:211   */\n    tag_59:\n      sload(0x02)\n      dup2\n      jump\t// out\n        /* \"KickstarterCampaign.sol\":349:372   */\n    tag_63:\n      sload(0x05)\n      dup2\n      jump\t// out\n        /* \"KickstarterCampaign.sol\":110:140   */\n    tag_67:\n      0x00\n      dup1\n      sload\n      swap1\n      0x0100\n      exp\n      swap1\n      div\n      0xffffffffffffffffffffffffffffffffffffffff\n      and\n      dup2\n      jump\t// out\n        /* \"KickstarterCampaign.sol\":878:1386   */\n    tag_74:\n        /* \"KickstarterCampaign.sol\":999:1013   */\n      0x00\n        /* \"KickstarterCampaign.sol\":2701:2716   */\n      dup1\n      0x00\n      swap1\n      sload\n      swap1\n      0x0100\n      exp\n      swap1\n      div\n      0xffffffffffffffffffffffffffffffffffffffff\n      and\n        /* \"KickstarterCampaign.sol\":2687:2716   */\n      0xffffffffffffffffffffffffffffffffffffffff\n      and\n        /* \"KickstarterCampaign.sol\":2687:2697   */\n      caller\n        /* \"KickstarterCampaign.sol\":2687:2716   */\n      0xffffffffffffffffffffffffffffffffffffffff\n      and\n      eq\n        /* \"KickstarterCampaign.sol\":2679:2717   */\n      tag_111\n      jumpi\n      0x00\n      dup1\n      revert\n    tag_111:\n        /* \"KickstarterCampaign.sol\":1037:1048   */\n      0x05\n      0x00\n        /* \"KickstarterCampaign.sol\":1037:1050   */\n      dup2\n      sload\n      dup1\n      swap3\n      swap2\n      swap1\n      tag_113\n      swap1\n      tag_109\n      jump\t// in\n    tag_113:\n      swap2\n      swap1\n      pop\n      sstore\n        /* \"KickstarterCampaign.sol\":1025:1050   */\n      swap1\n      pop\n        /* \"KickstarterCampaign.sol\":1061:1100   */\n      0x00\n        /* \"KickstarterCampaign.sol\":1103:1119   */\n      0x06\n        /* \"KickstarterCampaign.sol\":1103:1130   */\n      0x00\n        /* \"KickstarterCampaign.sol\":1120:1129   */\n      dup4\n        /* \"KickstarterCampaign.sol\":1103:1130   */\n      dup2\n      mstore\n      0x20\n      add\n      swap1\n      dup2\n      mstore\n      0x20\n      add\n      0x00\n      keccak256\n        /* \"KickstarterCampaign.sol\":1061:1130   */\n      swap1\n      pop\n        /* \"KickstarterCampaign.sol\":1177:1186   */\n      dup3\n        /* \"KickstarterCampaign.sol\":1141:1156   */\n      dup2\n        /* \"KickstarterCampaign.sol\":1141:1166   */\n      0x02\n      add\n      0x00\n        /* \"KickstarterCampaign.sol\":1141:1187   */\n      0x0100\n      exp\n      dup2\n      sload\n      dup2\n      0xffffffffffffffffffffffffffffffffffffffff\n      mul\n      not\n      and\n      swap1\n      dup4\n      0xffffffffffffffffffffffffffffffffffffffff\n      and\n      mul\n      or\n      swap1\n      sstore\n      pop\n        /* \"KickstarterCampaign.sol\":1228:1239   */\n      dup4\n        /* \"KickstarterCampaign.sol\":1198:1213   */\n      dup2\n        /* \"KickstarterCampaign.sol\":1198:1225   */\n      0x01\n      add\n        /* \"KickstarterCampaign.sol\":1198:1239   */\n      dup2\n      swap1\n      sstore\n      pop\n        /* \"KickstarterCampaign.sol\":1280:1291   */\n      dup5\n        /* \"KickstarterCampaign.sol\":1250:1265   */\n      dup2\n        /* \"KickstarterCampaign.sol\":1250:1277   */\n      0x00\n      add\n        /* \"KickstarterCampaign.sol\":1250:1291   */\n      swap1\n      dup1\n      mload\n      swap1\n      0x20\n      add\n      swap1\n      tag_114\n      swap3\n      swap2\n      swap1\n      tag_115\n      jump\t// in\n    tag_114:\n      pop\n        /* \"KickstarterCampaign.sol\":1334:1335   */\n      0x00\n        /* \"KickstarterCampaign.sol\":1302:1317   */\n      dup2\n        /* \"KickstarterCampaign.sol\":1302:1331   */\n      0x03\n      add\n        /* \"KickstarterCampaign.sol\":1302:1335   */\n      dup2\n      swap1\n      sstore\n      pop\n        /* \"KickstarterCampaign.sol\":1373:1378   */\n      0x00\n        /* \"KickstarterCampaign.sol\":1346:1361   */\n      dup2\n        /* \"KickstarterCampaign.sol\":1346:1370   */\n      0x02\n      add\n      0x14\n        /* \"KickstarterCampaign.sol\":1346:1378   */\n      0x0100\n      exp\n      dup2\n      sload\n      dup2\n      0xff\n      mul\n      not\n      and\n      swap1\n      dup4\n      iszero\n      iszero\n      mul\n      or\n      swap1\n      sstore\n      pop\n        /* \"KickstarterCampaign.sol\":1014:1386   */\n      pop\n        /* \"KickstarterCampaign.sol\":878:1386   */\n      swap4\n      swap3\n      pop\n      pop\n      pop\n      jump\t// out\n        /* \"KickstarterCampaign.sol\":646:870   */\n    tag_77:\n        /* \"KickstarterCampaign.sol\":714:733   */\n      sload(0x02)\n        /* \"KickstarterCampaign.sol\":702:711   */\n      callvalue\n        /* \"KickstarterCampaign.sol\":702:733   */\n      gt\n        /* \"KickstarterCampaign.sol\":694:734   */\n      tag_117\n      jumpi\n      0x00\n      dup1\n      revert\n    tag_117:\n        /* \"KickstarterCampaign.sol\":774:775   */\n      0x00\n        /* \"KickstarterCampaign.sol\":751:758   */\n      0x03\n        /* \"KickstarterCampaign.sol\":751:770   */\n      0x00\n        /* \"KickstarterCampaign.sol\":759:769   */\n      caller\n        /* \"KickstarterCampaign.sol\":751:770   */\n      0xffffffffffffffffffffffffffffffffffffffff\n      and\n      0xffffffffffffffffffffffffffffffffffffffff\n      and\n      dup2\n      mstore\n      0x20\n      add\n      swap1\n      dup2\n      mstore\n      0x20\n      add\n      0x00\n      keccak256\n      sload\n        /* \"KickstarterCampaign.sol\":751:775   */\n      eq\n        /* \"KickstarterCampaign.sol\":747:818   */\n      iszero\n      tag_118\n      jumpi\n        /* \"KickstarterCampaign.sol\":792:804   */\n      0x04\n      0x00\n        /* \"KickstarterCampaign.sol\":792:806   */\n      dup2\n      sload\n      dup1\n      swap3\n      swap2\n      swap1\n      tag_119\n      swap1\n      tag_109\n      jump\t// in\n    tag_119:\n      swap2\n      swap1\n      pop\n      sstore\n      pop\n        /* \"KickstarterCampaign.sol\":747:818   */\n    tag_118:\n        /* \"KickstarterCampaign.sol\":853:862   */\n      callvalue\n        /* \"KickstarterCampaign.sol\":830:837   */\n      0x03\n        /* \"KickstarterCampaign.sol\":830:849   */\n      0x00\n        /* \"KickstarterCampaign.sol\":838:848   */\n      caller\n        /* \"KickstarterCampaign.sol\":830:849   */\n      0xffffffffffffffffffffffffffffffffffffffff\n      and\n      0xffffffffffffffffffffffffffffffffffffffff\n      and\n      dup2\n      mstore\n      0x20\n      add\n      swap1\n      dup2\n      mstore\n      0x20\n      add\n      0x00\n      keccak256\n      0x00\n        /* \"KickstarterCampaign.sol\":830:862   */\n      dup3\n      dup3\n      sload\n      tag_120\n      swap2\n      swap1\n      tag_121\n      jump\t// in\n    tag_120:\n      swap3\n      pop\n      pop\n      dup2\n      swap1\n      sstore\n      pop\n        /* \"KickstarterCampaign.sol\":646:870   */\n      jump\t// out\n    tag_115:\n      dup3\n      dup1\n      sload\n      tag_122\n      swap1\n      tag_79\n      jump\t// in\n    tag_122:\n      swap1\n      0x00\n      mstore\n      keccak256(0x00, 0x20)\n      swap1\n      0x1f\n      add\n      0x20\n      swap1\n      div\n      dup2\n      add\n      swap3\n      dup3\n      tag_124\n      jumpi\n      0x00\n      dup6\n      sstore\n      jump(tag_123)\n    tag_124:\n      dup3\n      0x1f\n      lt\n      tag_125\n      jumpi\n      dup1\n      mload\n      not(0xff)\n      and\n      dup4\n      dup1\n      add\n      or\n      dup6\n      sstore\n      jump(tag_123)\n    tag_125:\n      dup3\n      dup1\n      add\n      0x01\n      add\n      dup6\n      sstore\n      dup3\n      iszero\n      tag_123\n      jumpi\n      swap2\n      dup3\n      add\n    tag_126:\n      dup3\n      dup2\n      gt\n      iszero\n      tag_127\n      jumpi\n      dup3\n      mload\n      dup3\n      sstore\n      swap2\n      0x20\n      add\n      swap2\n      swap1\n      0x01\n      add\n      swap1\n      jump(tag_126)\n    tag_127:\n    tag_123:\n      pop\n      swap1\n      pop\n      tag_128\n      swap2\n      swap1\n      tag_129\n      jump\t// in\n    tag_128:\n      pop\n      swap1\n      jump\t// out\n    tag_129:\n    tag_130:\n      dup1\n      dup3\n      gt\n      iszero\n      tag_131\n      jumpi\n      0x00\n      dup2\n      0x00\n      swap1\n      sstore\n      pop\n      0x01\n      add\n      jump(tag_130)\n    tag_131:\n      pop\n      swap1\n      jump\t// out\n        /* \"#utility.yul\":7:82   */\n    tag_132:\n        /* \"#utility.yul\":40:46   */\n      0x00\n        /* \"#utility.yul\":73:75   */\n      0x40\n        /* \"#utility.yul\":67:76   */\n      mload\n        /* \"#utility.yul\":57:76   */\n      swap1\n      pop\n        /* \"#utility.yul\":7:82   */\n      swap1\n      jump\t// out\n        /* \"#utility.yul\":88:205   */\n    tag_133:\n        /* \"#utility.yul\":197:198   */\n      0x00\n        /* \"#utility.yul\":194:195   */\n      dup1\n        /* \"#utility.yul\":187:199   */\n      revert\n        /* \"#utility.yul\":211:328   */\n    tag_134:\n        /* \"#utility.yul\":320:321   */\n      0x00\n        /* \"#utility.yul\":317:318   */\n      dup1\n        /* \"#utility.yul\":310:322   */\n      revert\n        /* \"#utility.yul\":334:460   */\n    tag_135:\n        /* \"#utility.yul\":371:378   */\n      0x00\n        /* \"#utility.yul\":411:453   */\n      0xffffffffffffffffffffffffffffffffffffffff\n        /* \"#utility.yul\":404:409   */\n      dup3\n        /* \"#utility.yul\":400:454   */\n      and\n        /* \"#utility.yul\":389:454   */\n      swap1\n      pop\n        /* \"#utility.yul\":334:460   */\n      swap2\n      swap1\n      pop\n      jump\t// out\n        /* \"#utility.yul\":466:562   */\n    tag_136:\n        /* \"#utility.yul\":503:510   */\n      0x00\n        /* \"#utility.yul\":532:556   */\n      tag_171\n        /* \"#utility.yul\":550:555   */\n      dup3\n        /* \"#utility.yul\":532:556   */\n      tag_135\n      jump\t// in\n    tag_171:\n        /* \"#utility.yul\":521:556   */\n      swap1\n      pop\n        /* \"#utility.yul\":466:562   */\n      swap2\n      swap1\n      pop\n      jump\t// out\n        /* \"#utility.yul\":568:690   */\n    tag_137:\n        /* \"#utility.yul\":641:665   */\n      tag_173\n        /* \"#utility.yul\":659:664   */\n      dup2\n        /* \"#utility.yul\":641:665   */\n      tag_136\n      jump\t// in\n    tag_173:\n        /* \"#utility.yul\":634:639   */\n      dup2\n        /* \"#utility.yul\":631:666   */\n      eq\n        /* \"#utility.yul\":621:684   */\n      tag_174\n      jumpi\n        /* \"#utility.yul\":680:681   */\n      0x00\n        /* \"#utility.yul\":677:678   */\n      dup1\n        /* \"#utility.yul\":670:682   */\n      revert\n        /* \"#utility.yul\":621:684   */\n    tag_174:\n        /* \"#utility.yul\":568:690   */\n      pop\n      jump\t// out\n        /* \"#utility.yul\":696:835   */\n    tag_138:\n        /* \"#utility.yul\":742:747   */\n      0x00\n        /* \"#utility.yul\":780:786   */\n      dup2\n        /* \"#utility.yul\":767:787   */\n      calldataload\n        /* \"#utility.yul\":758:787   */\n      swap1\n      pop\n        /* \"#utility.yul\":796:829   */\n      tag_176\n        /* \"#utility.yul\":823:828   */\n      dup2\n        /* \"#utility.yul\":796:829   */\n      tag_137\n      jump\t// in\n    tag_176:\n        /* \"#utility.yul\":696:835   */\n      swap3\n      swap2\n      pop\n      pop\n      jump\t// out\n        /* \"#utility.yul\":841:1170   */\n    tag_20:\n        /* \"#utility.yul\":900:906   */\n      0x00\n        /* \"#utility.yul\":949:951   */\n      0x20\n        /* \"#utility.yul\":937:946   */\n      dup3\n        /* \"#utility.yul\":928:935   */\n      dup5\n        /* \"#utility.yul\":924:947   */\n      sub\n        /* \"#utility.yul\":920:952   */\n      slt\n        /* \"#utility.yul\":917:1036   */\n      iszero\n      tag_178\n      jumpi\n        /* \"#utility.yul\":955:1034   */\n      tag_179\n      tag_133\n      jump\t// in\n    tag_179:\n        /* \"#utility.yul\":917:1036   */\n    tag_178:\n        /* \"#utility.yul\":1075:1076   */\n      0x00\n        /* \"#utility.yul\":1100:1153   */\n      tag_180\n        /* \"#utility.yul\":1145:1152   */\n      dup5\n        /* \"#utility.yul\":1136:1142   */\n      dup3\n        /* \"#utility.yul\":1125:1134   */\n      dup6\n        /* \"#utility.yul\":1121:1143   */\n      add\n        /* \"#utility.yul\":1100:1153   */\n      tag_138\n      jump\t// in\n    tag_180:\n        /* \"#utility.yul\":1090:1153   */\n      swap2\n      pop\n        /* \"#utility.yul\":1046:1163   */\n      pop\n        /* \"#utility.yul\":841:1170   */\n      swap3\n      swap2\n      pop\n      pop\n      jump\t// out\n        /* \"#utility.yul\":1176:1253   */\n    tag_139:\n        /* \"#utility.yul\":1213:1220   */\n      0x00\n        /* \"#utility.yul\":1242:1247   */\n      dup2\n        /* \"#utility.yul\":1231:1247   */\n      swap1\n      pop\n        /* \"#utility.yul\":1176:1253   */\n      swap2\n      swap1\n      pop\n      jump\t// out\n        /* \"#utility.yul\":1259:1377   */\n    tag_140:\n        /* \"#utility.yul\":1346:1370   */\n      tag_183\n        /* \"#utility.yul\":1364:1369   */\n      dup2\n        /* \"#utility.yul\":1346:1370   */\n      tag_139\n      jump\t// in\n    tag_183:\n        /* \"#utility.yul\":1341:1344   */\n      dup3\n        /* \"#utility.yul\":1334:1371   */\n      mstore\n        /* \"#utility.yul\":1259:1377   */\n      pop\n      pop\n      jump\t// out\n        /* \"#utility.yul\":1383:1605   */\n    tag_23:\n        /* \"#utility.yul\":1476:1480   */\n      0x00\n        /* \"#utility.yul\":1514:1516   */\n      0x20\n        /* \"#utility.yul\":1503:1512   */\n      dup3\n        /* \"#utility.yul\":1499:1517   */\n      add\n        /* \"#utility.yul\":1491:1517   */\n      swap1\n      pop\n        /* \"#utility.yul\":1527:1598   */\n      tag_185\n        /* \"#utility.yul\":1595:1596   */\n      0x00\n        /* \"#utility.yul\":1584:1593   */\n      dup4\n        /* \"#utility.yul\":1580:1597   */\n      add\n        /* \"#utility.yul\":1571:1577   */\n      dup5\n        /* \"#utility.yul\":1527:1598   */\n      tag_140\n      jump\t// in\n    tag_185:\n        /* \"#utility.yul\":1383:1605   */\n      swap3\n      swap2\n      pop\n      pop\n      jump\t// out\n        /* \"#utility.yul\":1611:1710   */\n    tag_141:\n        /* \"#utility.yul\":1663:1669   */\n      0x00\n        /* \"#utility.yul\":1697:1702   */\n      dup2\n        /* \"#utility.yul\":1691:1703   */\n      mload\n        /* \"#utility.yul\":1681:1703   */\n      swap1\n      pop\n        /* \"#utility.yul\":1611:1710   */\n      swap2\n      swap1\n      pop\n      jump\t// out\n        /* \"#utility.yul\":1716:1885   */\n    tag_142:\n        /* \"#utility.yul\":1800:1811   */\n      0x00\n        /* \"#utility.yul\":1834:1840   */\n      dup3\n        /* \"#utility.yul\":1829:1832   */\n      dup3\n        /* \"#utility.yul\":1822:1841   */\n      mstore\n        /* \"#utility.yul\":1874:1878   */\n      0x20\n        /* \"#utility.yul\":1869:1872   */\n      dup3\n        /* \"#utility.yul\":1865:1879   */\n      add\n        /* \"#utility.yul\":1850:1879   */\n      swap1\n      pop\n        /* \"#utility.yul\":1716:1885   */\n      swap3\n      swap2\n      pop\n      pop\n      jump\t// out\n        /* \"#utility.yul\":1891:2198   */\n    tag_143:\n        /* \"#utility.yul\":1959:1960   */\n      0x00\n        /* \"#utility.yul\":1969:2082   */\n    tag_189:\n        /* \"#utility.yul\":1983:1989   */\n      dup4\n        /* \"#utility.yul\":1980:1981   */\n      dup2\n        /* \"#utility.yul\":1977:1990   */\n      lt\n        /* \"#utility.yul\":1969:2082   */\n      iszero\n      tag_191\n      jumpi\n        /* \"#utility.yul\":2068:2069   */\n      dup1\n        /* \"#utility.yul\":2063:2066   */\n      dup3\n        /* \"#utility.yul\":2059:2070   */\n      add\n        /* \"#utility.yul\":2053:2071   */\n      mload\n        /* \"#utility.yul\":2049:2050   */\n      dup2\n        /* \"#utility.yul\":2044:2047   */\n      dup5\n        /* \"#utility.yul\":2040:2051   */\n      add\n        /* \"#utility.yul\":2033:2072   */\n      mstore\n        /* \"#utility.yul\":2005:2007   */\n      0x20\n        /* \"#utility.yul\":2002:2003   */\n      dup2\n        /* \"#utility.yul\":1998:2008   */\n      add\n        /* \"#utility.yul\":1993:2008   */\n      swap1\n      pop\n        /* \"#utility.yul\":1969:2082   */\n      jump(tag_189)\n    tag_191:\n        /* \"#utility.yul\":2100:2106   */\n      dup4\n        /* \"#utility.yul\":2097:2098   */\n      dup2\n        /* \"#utility.yul\":2094:2107   */\n      gt\n        /* \"#utility.yul\":2091:2192   */\n      iszero\n      tag_192\n      jumpi\n        /* \"#utility.yul\":2180:2181   */\n      0x00\n        /* \"#utility.yul\":2171:2177   */\n      dup5\n        /* \"#utility.yul\":2166:2169   */\n      dup5\n        /* \"#utility.yul\":2162:2178   */\n      add\n        /* \"#utility.yul\":2155:2182   */\n      mstore\n        /* \"#utility.yul\":2091:2192   */\n    tag_192:\n        /* \"#utility.yul\":1940:2198   */\n      pop\n        /* \"#utility.yul\":1891:2198   */\n      pop\n      pop\n      pop\n      jump\t// out\n        /* \"#utility.yul\":2204:2306   */\n    tag_144:\n        /* \"#utility.yul\":2245:2251   */\n      0x00\n        /* \"#utility.yul\":2296:2298   */\n      0x1f\n        /* \"#utility.yul\":2292:2299   */\n      not\n        /* \"#utility.yul\":2287:2289   */\n      0x1f\n        /* \"#utility.yul\":2280:2285   */\n      dup4\n        /* \"#utility.yul\":2276:2290   */\n      add\n        /* \"#utility.yul\":2272:2300   */\n      and\n        /* \"#utility.yul\":2262:2300   */\n      swap1\n      pop\n        /* \"#utility.yul\":2204:2306   */\n      swap2\n      swap1\n      pop\n      jump\t// out\n        /* \"#utility.yul\":2312:2676   */\n    tag_145:\n        /* \"#utility.yul\":2400:2403   */\n      0x00\n        /* \"#utility.yul\":2428:2467   */\n      tag_195\n        /* \"#utility.yul\":2461:2466   */\n      dup3\n        /* \"#utility.yul\":2428:2467   */\n      tag_141\n      jump\t// in\n    tag_195:\n        /* \"#utility.yul\":2483:2554   */\n      tag_196\n        /* \"#utility.yul\":2547:2553   */\n      dup2\n        /* \"#utility.yul\":2542:2545   */\n      dup6\n        /* \"#utility.yul\":2483:2554   */\n      tag_142\n      jump\t// in\n    tag_196:\n        /* \"#utility.yul\":2476:2554   */\n      swap4\n      pop\n        /* \"#utility.yul\":2563:2615   */\n      tag_197\n        /* \"#utility.yul\":2608:2614   */\n      dup2\n        /* \"#utility.yul\":2603:2606   */\n      dup6\n        /* \"#utility.yul\":2596:2600   */\n      0x20\n        /* \"#utility.yul\":2589:2594   */\n      dup7\n        /* \"#utility.yul\":2585:2601   */\n      add\n        /* \"#utility.yul\":2563:2615   */\n      tag_143\n      jump\t// in\n    tag_197:\n        /* \"#utility.yul\":2640:2669   */\n      tag_198\n        /* \"#utility.yul\":2662:2668   */\n      dup2\n        /* \"#utility.yul\":2640:2669   */\n      tag_144\n      jump\t// in\n    tag_198:\n        /* \"#utility.yul\":2635:2638   */\n      dup5\n        /* \"#utility.yul\":2631:2670   */\n      add\n        /* \"#utility.yul\":2624:2670   */\n      swap2\n      pop\n        /* \"#utility.yul\":2404:2676   */\n      pop\n        /* \"#utility.yul\":2312:2676   */\n      swap3\n      swap2\n      pop\n      pop\n      jump\t// out\n        /* \"#utility.yul\":2682:2995   */\n    tag_28:\n        /* \"#utility.yul\":2795:2799   */\n      0x00\n        /* \"#utility.yul\":2833:2835   */\n      0x20\n        /* \"#utility.yul\":2822:2831   */\n      dup3\n        /* \"#utility.yul\":2818:2836   */\n      add\n        /* \"#utility.yul\":2810:2836   */\n      swap1\n      pop\n        /* \"#utility.yul\":2882:2891   */\n      dup2\n        /* \"#utility.yul\":2876:2880   */\n      dup2\n        /* \"#utility.yul\":2872:2892   */\n      sub\n        /* \"#utility.yul\":2868:2869   */\n      0x00\n        /* \"#utility.yul\":2857:2866   */\n      dup4\n        /* \"#utility.yul\":2853:2870   */\n      add\n        /* \"#utility.yul\":2846:2893   */\n      mstore\n        /* \"#utility.yul\":2910:2988   */\n      tag_200\n        /* \"#utility.yul\":2983:2987   */\n      dup2\n        /* \"#utility.yul\":2974:2980   */\n      dup5\n        /* \"#utility.yul\":2910:2988   */\n      tag_145\n      jump\t// in\n    tag_200:\n        /* \"#utility.yul\":2902:2988   */\n      swap1\n      pop\n        /* \"#utility.yul\":2682:2995   */\n      swap3\n      swap2\n      pop\n      pop\n      jump\t// out\n        /* \"#utility.yul\":3001:3123   */\n    tag_146:\n        /* \"#utility.yul\":3074:3098   */\n      tag_202\n        /* \"#utility.yul\":3092:3097   */\n      dup2\n        /* \"#utility.yul\":3074:3098   */\n      tag_139\n      jump\t// in\n    tag_202:\n        /* \"#utility.yul\":3067:3072   */\n      dup2\n        /* \"#utility.yul\":3064:3099   */\n      eq\n        /* \"#utility.yul\":3054:3117   */\n      tag_203\n      jumpi\n        /* \"#utility.yul\":3113:3114   */\n      0x00\n        /* \"#utility.yul\":3110:3111   */\n      dup1\n        /* \"#utility.yul\":3103:3115   */\n      revert\n        /* \"#utility.yul\":3054:3117   */\n    tag_203:\n        /* \"#utility.yul\":3001:3123   */\n      pop\n      jump\t// out\n        /* \"#utility.yul\":3129:3268   */\n    tag_147:\n        /* \"#utility.yul\":3175:3180   */\n      0x00\n        /* \"#utility.yul\":3213:3219   */\n      dup2\n        /* \"#utility.yul\":3200:3220   */\n      calldataload\n        /* \"#utility.yul\":3191:3220   */\n      swap1\n      pop\n        /* \"#utility.yul\":3229:3262   */\n      tag_205\n        /* \"#utility.yul\":3256:3261   */\n      dup2\n        /* \"#utility.yul\":3229:3262   */\n      tag_146\n      jump\t// in\n    tag_205:\n        /* \"#utility.yul\":3129:3268   */\n      swap3\n      swap2\n      pop\n      pop\n      jump\t// out\n        /* \"#utility.yul\":3274:3603   */\n    tag_36:\n        /* \"#utility.yul\":3333:3339   */\n      0x00\n        /* \"#utility.yul\":3382:3384   */\n      0x20\n        /* \"#utility.yul\":3370:3379   */\n      dup3\n        /* \"#utility.yul\":3361:3368   */\n      dup5\n        /* \"#utility.yul\":3357:3380   */\n      sub\n        /* \"#utility.yul\":3353:3385   */\n      slt\n        /* \"#utility.yul\":3350:3469   */\n      iszero\n      tag_207\n      jumpi\n        /* \"#utility.yul\":3388:3467   */\n      tag_208\n      tag_133\n      jump\t// in\n    tag_208:\n        /* \"#utility.yul\":3350:3469   */\n    tag_207:\n        /* \"#utility.yul\":3508:3509   */\n      0x00\n        /* \"#utility.yul\":3533:3586   */\n      tag_209\n        /* \"#utility.yul\":3578:3585   */\n      dup5\n        /* \"#utility.yul\":3569:3575   */\n      dup3\n        /* \"#utility.yul\":3558:3567   */\n      dup6\n        /* \"#utility.yul\":3554:3576   */\n      add\n        /* \"#utility.yul\":3533:3586   */\n      tag_147\n      jump\t// in\n    tag_209:\n        /* \"#utility.yul\":3523:3586   */\n      swap2\n      pop\n        /* \"#utility.yul\":3479:3596   */\n      pop\n        /* \"#utility.yul\":3274:3603   */\n      swap3\n      swap2\n      pop\n      pop\n      jump\t// out\n        /* \"#utility.yul\":3609:3727   */\n    tag_148:\n        /* \"#utility.yul\":3696:3720   */\n      tag_211\n        /* \"#utility.yul\":3714:3719   */\n      dup2\n        /* \"#utility.yul\":3696:3720   */\n      tag_136\n      jump\t// in\n    tag_211:\n        /* \"#utility.yul\":3691:3694   */\n      dup3\n        /* \"#utility.yul\":3684:3721   */\n      mstore\n        /* \"#utility.yul\":3609:3727   */\n      pop\n      pop\n      jump\t// out\n        /* \"#utility.yul\":3733:4599   */\n    tag_46:\n        /* \"#utility.yul\":3986:3990   */\n      0x00\n        /* \"#utility.yul\":4024:4027   */\n      0xc0\n        /* \"#utility.yul\":4013:4022   */\n      dup3\n        /* \"#utility.yul\":4009:4028   */\n      add\n        /* \"#utility.yul\":4001:4028   */\n      swap1\n      pop\n        /* \"#utility.yul\":4038:4109   */\n      tag_213\n        /* \"#utility.yul\":4106:4107   */\n      0x00\n        /* \"#utility.yul\":4095:4104   */\n      dup4\n        /* \"#utility.yul\":4091:4108   */\n      add\n        /* \"#utility.yul\":4082:4088   */\n      dup10\n        /* \"#utility.yul\":4038:4109   */\n      tag_140\n      jump\t// in\n    tag_213:\n        /* \"#utility.yul\":4119:4191   */\n      tag_214\n        /* \"#utility.yul\":4187:4189   */\n      0x20\n        /* \"#utility.yul\":4176:4185   */\n      dup4\n        /* \"#utility.yul\":4172:4190   */\n      add\n        /* \"#utility.yul\":4163:4169   */\n      dup9\n        /* \"#utility.yul\":4119:4191   */\n      tag_140\n      jump\t// in\n    tag_214:\n        /* \"#utility.yul\":4201:4273   */\n      tag_215\n        /* \"#utility.yul\":4269:4271   */\n      0x40\n        /* \"#utility.yul\":4258:4267   */\n      dup4\n        /* \"#utility.yul\":4254:4272   */\n      add\n        /* \"#utility.yul\":4245:4251   */\n      dup8\n        /* \"#utility.yul\":4201:4273   */\n      tag_140\n      jump\t// in\n    tag_215:\n        /* \"#utility.yul\":4283:4355   */\n      tag_216\n        /* \"#utility.yul\":4351:4353   */\n      0x60\n        /* \"#utility.yul\":4340:4349   */\n      dup4\n        /* \"#utility.yul\":4336:4354   */\n      add\n        /* \"#utility.yul\":4327:4333   */\n      dup7\n        /* \"#utility.yul\":4283:4355   */\n      tag_140\n      jump\t// in\n    tag_216:\n        /* \"#utility.yul\":4365:4438   */\n      tag_217\n        /* \"#utility.yul\":4433:4436   */\n      0x80\n        /* \"#utility.yul\":4422:4431   */\n      dup4\n        /* \"#utility.yul\":4418:4437   */\n      add\n        /* \"#utility.yul\":4409:4415   */\n      dup6\n        /* \"#utility.yul\":4365:4438   */\n      tag_148\n      jump\t// in\n    tag_217:\n        /* \"#utility.yul\":4486:4495   */\n      dup2\n        /* \"#utility.yul\":4480:4484   */\n      dup2\n        /* \"#utility.yul\":4476:4496   */\n      sub\n        /* \"#utility.yul\":4470:4473   */\n      0xa0\n        /* \"#utility.yul\":4459:4468   */\n      dup4\n        /* \"#utility.yul\":4455:4474   */\n      add\n        /* \"#utility.yul\":4448:4497   */\n      mstore\n        /* \"#utility.yul\":4514:4592   */\n      tag_218\n        /* \"#utility.yul\":4587:4591   */\n      dup2\n        /* \"#utility.yul\":4578:4584   */\n      dup5\n        /* \"#utility.yul\":4514:4592   */\n      tag_145\n      jump\t// in\n    tag_218:\n        /* \"#utility.yul\":4506:4592   */\n      swap1\n      pop\n        /* \"#utility.yul\":3733:4599   */\n      swap8\n      swap7\n      pop\n      pop\n      pop\n      pop\n      pop\n      pop\n      pop\n      jump\t// out\n        /* \"#utility.yul\":4605:4709   */\n    tag_149:\n        /* \"#utility.yul\":4650:4657   */\n      0x00\n        /* \"#utility.yul\":4679:4703   */\n      tag_220\n        /* \"#utility.yul\":4697:4702   */\n      dup3\n        /* \"#utility.yul\":4679:4703   */\n      tag_135\n      jump\t// in\n    tag_220:\n        /* \"#utility.yul\":4668:4703   */\n      swap1\n      pop\n        /* \"#utility.yul\":4605:4709   */\n      swap2\n      swap1\n      pop\n      jump\t// out\n        /* \"#utility.yul\":4715:4857   */\n    tag_150:\n        /* \"#utility.yul\":4818:4850   */\n      tag_222\n        /* \"#utility.yul\":4844:4849   */\n      dup2\n        /* \"#utility.yul\":4818:4850   */\n      tag_149\n      jump\t// in\n    tag_222:\n        /* \"#utility.yul\":4813:4816   */\n      dup3\n        /* \"#utility.yul\":4806:4851   */\n      mstore\n        /* \"#utility.yul\":4715:4857   */\n      pop\n      pop\n      jump\t// out\n        /* \"#utility.yul\":4863:4953   */\n    tag_151:\n        /* \"#utility.yul\":4897:4904   */\n      0x00\n        /* \"#utility.yul\":4940:4945   */\n      dup2\n        /* \"#utility.yul\":4933:4946   */\n      iszero\n        /* \"#utility.yul\":4926:4947   */\n      iszero\n        /* \"#utility.yul\":4915:4947   */\n      swap1\n      pop\n        /* \"#utility.yul\":4863:4953   */\n      swap2\n      swap1\n      pop\n      jump\t// out\n        /* \"#utility.yul\":4959:5068   */\n    tag_152:\n        /* \"#utility.yul\":5040:5061   */\n      tag_225\n        /* \"#utility.yul\":5055:5060   */\n      dup2\n        /* \"#utility.yul\":5040:5061   */\n      tag_151\n      jump\t// in\n    tag_225:\n        /* \"#utility.yul\":5035:5038   */\n      dup3\n        /* \"#utility.yul\":5028:5062   */\n      mstore\n        /* \"#utility.yul\":4959:5068   */\n      pop\n      pop\n      jump\t// out\n        /* \"#utility.yul\":5074:5849   */\n    tag_52:\n        /* \"#utility.yul\":5309:5313   */\n      0x00\n        /* \"#utility.yul\":5347:5350   */\n      0xa0\n        /* \"#utility.yul\":5336:5345   */\n      dup3\n        /* \"#utility.yul\":5332:5351   */\n      add\n        /* \"#utility.yul\":5324:5351   */\n      swap1\n      pop\n        /* \"#utility.yul\":5397:5406   */\n      dup2\n        /* \"#utility.yul\":5391:5395   */\n      dup2\n        /* \"#utility.yul\":5387:5407   */\n      sub\n        /* \"#utility.yul\":5383:5384   */\n      0x00\n        /* \"#utility.yul\":5372:5381   */\n      dup4\n        /* \"#utility.yul\":5368:5385   */\n      add\n        /* \"#utility.yul\":5361:5408   */\n      mstore\n        /* \"#utility.yul\":5425:5503   */\n      tag_227\n        /* \"#utility.yul\":5498:5502   */\n      dup2\n        /* \"#utility.yul\":5489:5495   */\n      dup9\n        /* \"#utility.yul\":5425:5503   */\n      tag_145\n      jump\t// in\n    tag_227:\n        /* \"#utility.yul\":5417:5503   */\n      swap1\n      pop\n        /* \"#utility.yul\":5513:5585   */\n      tag_228\n        /* \"#utility.yul\":5581:5583   */\n      0x20\n        /* \"#utility.yul\":5570:5579   */\n      dup4\n        /* \"#utility.yul\":5566:5584   */\n      add\n        /* \"#utility.yul\":5557:5563   */\n      dup8\n        /* \"#utility.yul\":5513:5585   */\n      tag_140\n      jump\t// in\n    tag_228:\n        /* \"#utility.yul\":5595:5683   */\n      tag_229\n        /* \"#utility.yul\":5679:5681   */\n      0x40\n        /* \"#utility.yul\":5668:5677   */\n      dup4\n        /* \"#utility.yul\":5664:5682   */\n      add\n        /* \"#utility.yul\":5655:5661   */\n      dup7\n        /* \"#utility.yul\":5595:5683   */\n      tag_150\n      jump\t// in\n    tag_229:\n        /* \"#utility.yul\":5693:5759   */\n      tag_230\n        /* \"#utility.yul\":5755:5757   */\n      0x60\n        /* \"#utility.yul\":5744:5753   */\n      dup4\n        /* \"#utility.yul\":5740:5758   */\n      add\n        /* \"#utility.yul\":5731:5737   */\n      dup6\n        /* \"#utility.yul\":5693:5759   */\n      tag_152\n      jump\t// in\n    tag_230:\n        /* \"#utility.yul\":5769:5842   */\n      tag_231\n        /* \"#utility.yul\":5837:5840   */\n      0x80\n        /* \"#utility.yul\":5826:5835   */\n      dup4\n        /* \"#utility.yul\":5822:5841   */\n      add\n        /* \"#utility.yul\":5813:5819   */\n      dup5\n        /* \"#utility.yul\":5769:5842   */\n      tag_140\n      jump\t// in\n    tag_231:\n        /* \"#utility.yul\":5074:5849   */\n      swap7\n      swap6\n      pop\n      pop\n      pop\n      pop\n      pop\n      pop\n      jump\t// out\n        /* \"#utility.yul\":5855:6077   */\n    tag_69:\n        /* \"#utility.yul\":5948:5952   */\n      0x00\n        /* \"#utility.yul\":5986:5988   */\n      0x20\n        /* \"#utility.yul\":5975:5984   */\n      dup3\n        /* \"#utility.yul\":5971:5989   */\n      add\n        /* \"#utility.yul\":5963:5989   */\n      swap1\n      pop\n        /* \"#utility.yul\":5999:6070   */\n      tag_233\n        /* \"#utility.yul\":6067:6068   */\n      0x00\n        /* \"#utility.yul\":6056:6065   */\n      dup4\n        /* \"#utility.yul\":6052:6069   */\n      add\n        /* \"#utility.yul\":6043:6049   */\n      dup5\n        /* \"#utility.yul\":5999:6070   */\n      tag_148\n      jump\t// in\n    tag_233:\n        /* \"#utility.yul\":5855:6077   */\n      swap3\n      swap2\n      pop\n      pop\n      jump\t// out\n        /* \"#utility.yul\":6083:6200   */\n    tag_153:\n        /* \"#utility.yul\":6192:6193   */\n      0x00\n        /* \"#utility.yul\":6189:6190   */\n      dup1\n        /* \"#utility.yul\":6182:6194   */\n      revert\n        /* \"#utility.yul\":6206:6323   */\n    tag_154:\n        /* \"#utility.yul\":6315:6316   */\n      0x00\n        /* \"#utility.yul\":6312:6313   */\n      dup1\n        /* \"#utility.yul\":6305:6317   */\n      revert\n        /* \"#utility.yul\":6329:6509   */\n    tag_155:\n        /* \"#utility.yul\":6377:6454   */\n      0x4e487b7100000000000000000000000000000000000000000000000000000000\n        /* \"#utility.yul\":6374:6375   */\n      0x00\n        /* \"#utility.yul\":6367:6455   */\n      mstore\n        /* \"#utility.yul\":6474:6478   */\n      0x41\n        /* \"#utility.yul\":6471:6472   */\n      0x04\n        /* \"#utility.yul\":6464:6479   */\n      mstore\n        /* \"#utility.yul\":6498:6502   */\n      0x24\n        /* \"#utility.yul\":6495:6496   */\n      0x00\n        /* \"#utility.yul\":6488:6503   */\n      revert\n        /* \"#utility.yul\":6515:6796   */\n    tag_156:\n        /* \"#utility.yul\":6598:6625   */\n      tag_238\n        /* \"#utility.yul\":6620:6624   */\n      dup3\n        /* \"#utility.yul\":6598:6625   */\n      tag_144\n      jump\t// in\n    tag_238:\n        /* \"#utility.yul\":6590:6596   */\n      dup2\n        /* \"#utility.yul\":6586:6626   */\n      add\n        /* \"#utility.yul\":6728:6734   */\n      dup2\n        /* \"#utility.yul\":6716:6726   */\n      dup2\n        /* \"#utility.yul\":6713:6735   */\n      lt\n        /* \"#utility.yul\":6692:6710   */\n      0xffffffffffffffff\n        /* \"#utility.yul\":6680:6690   */\n      dup3\n        /* \"#utility.yul\":6677:6711   */\n      gt\n        /* \"#utility.yul\":6674:6736   */\n      or\n        /* \"#utility.yul\":6671:6759   */\n      iszero\n      tag_239\n      jumpi\n        /* \"#utility.yul\":6739:6757   */\n      tag_240\n      tag_155\n      jump\t// in\n    tag_240:\n        /* \"#utility.yul\":6671:6759   */\n    tag_239:\n        /* \"#utility.yul\":6779:6789   */\n      dup1\n        /* \"#utility.yul\":6775:6777   */\n      0x40\n        /* \"#utility.yul\":6768:6790   */\n      mstore\n        /* \"#utility.yul\":6558:6796   */\n      pop\n        /* \"#utility.yul\":6515:6796   */\n      pop\n      pop\n      jump\t// out\n        /* \"#utility.yul\":6802:6931   */\n    tag_157:\n        /* \"#utility.yul\":6836:6842   */\n      0x00\n        /* \"#utility.yul\":6863:6883   */\n      tag_242\n      tag_132\n      jump\t// in\n    tag_242:\n        /* \"#utility.yul\":6853:6883   */\n      swap1\n      pop\n        /* \"#utility.yul\":6892:6925   */\n      tag_243\n        /* \"#utility.yul\":6920:6924   */\n      dup3\n        /* \"#utility.yul\":6912:6918   */\n      dup3\n        /* \"#utility.yul\":6892:6925   */\n      tag_156\n      jump\t// in\n    tag_243:\n        /* \"#utility.yul\":6802:6931   */\n      swap2\n      swap1\n      pop\n      jump\t// out\n        /* \"#utility.yul\":6937:7245   */\n    tag_158:\n        /* \"#utility.yul\":6999:7003   */\n      0x00\n        /* \"#utility.yul\":7089:7107   */\n      0xffffffffffffffff\n        /* \"#utility.yul\":7081:7087   */\n      dup3\n        /* \"#utility.yul\":7078:7108   */\n      gt\n        /* \"#utility.yul\":7075:7131   */\n      iszero\n      tag_245\n      jumpi\n        /* \"#utility.yul\":7111:7129   */\n      tag_246\n      tag_155\n      jump\t// in\n    tag_246:\n        /* \"#utility.yul\":7075:7131   */\n    tag_245:\n        /* \"#utility.yul\":7149:7178   */\n      tag_247\n        /* \"#utility.yul\":7171:7177   */\n      dup3\n        /* \"#utility.yul\":7149:7178   */\n      tag_144\n      jump\t// in\n    tag_247:\n        /* \"#utility.yul\":7141:7178   */\n      swap1\n      pop\n        /* \"#utility.yul\":7233:7237   */\n      0x20\n        /* \"#utility.yul\":7227:7231   */\n      dup2\n        /* \"#utility.yul\":7223:7238   */\n      add\n        /* \"#utility.yul\":7215:7238   */\n      swap1\n      pop\n        /* \"#utility.yul\":6937:7245   */\n      swap2\n      swap1\n      pop\n      jump\t// out\n        /* \"#utility.yul\":7251:7405   */\n    tag_159:\n        /* \"#utility.yul\":7335:7341   */\n      dup3\n        /* \"#utility.yul\":7330:7333   */\n      dup2\n        /* \"#utility.yul\":7325:7328   */\n      dup4\n        /* \"#utility.yul\":7312:7342   */\n      calldatacopy\n        /* \"#utility.yul\":7397:7398   */\n      0x00\n        /* \"#utility.yul\":7388:7394   */\n      dup4\n        /* \"#utility.yul\":7383:7386   */\n      dup4\n        /* \"#utility.yul\":7379:7395   */\n      add\n        /* \"#utility.yul\":7372:7399   */\n      mstore\n        /* \"#utility.yul\":7251:7405   */\n      pop\n      pop\n      pop\n      jump\t// out\n        /* \"#utility.yul\":7411:7823   */\n    tag_160:\n        /* \"#utility.yul\":7489:7494   */\n      0x00\n        /* \"#utility.yul\":7514:7580   */\n      tag_250\n        /* \"#utility.yul\":7530:7579   */\n      tag_251\n        /* \"#utility.yul\":7572:7578   */\n      dup5\n        /* \"#utility.yul\":7530:7579   */\n      tag_158\n      jump\t// in\n    tag_251:\n        /* \"#utility.yul\":7514:7580   */\n      tag_157\n      jump\t// in\n    tag_250:\n        /* \"#utility.yul\":7505:7580   */\n      swap1\n      pop\n        /* \"#utility.yul\":7603:7609   */\n      dup3\n        /* \"#utility.yul\":7596:7601   */\n      dup2\n        /* \"#utility.yul\":7589:7610   */\n      mstore\n        /* \"#utility.yul\":7641:7645   */\n      0x20\n        /* \"#utility.yul\":7634:7639   */\n      dup2\n        /* \"#utility.yul\":7630:7646   */\n      add\n        /* \"#utility.yul\":7679:7682   */\n      dup5\n        /* \"#utility.yul\":7670:7676   */\n      dup5\n        /* \"#utility.yul\":7665:7668   */\n      dup5\n        /* \"#utility.yul\":7661:7677   */\n      add\n        /* \"#utility.yul\":7658:7683   */\n      gt\n        /* \"#utility.yul\":7655:7767   */\n      iszero\n      tag_252\n      jumpi\n        /* \"#utility.yul\":7686:7765   */\n      tag_253\n      tag_154\n      jump\t// in\n    tag_253:\n        /* \"#utility.yul\":7655:7767   */\n    tag_252:\n        /* \"#utility.yul\":7776:7817   */\n      tag_254\n        /* \"#utility.yul\":7810:7816   */\n      dup5\n        /* \"#utility.yul\":7805:7808   */\n      dup3\n        /* \"#utility.yul\":7800:7803   */\n      dup6\n        /* \"#utility.yul\":7776:7817   */\n      tag_159\n      jump\t// in\n    tag_254:\n        /* \"#utility.yul\":7495:7823   */\n      pop\n        /* \"#utility.yul\":7411:7823   */\n      swap4\n      swap3\n      pop\n      pop\n      pop\n      jump\t// out\n        /* \"#utility.yul\":7843:8183   */\n    tag_161:\n        /* \"#utility.yul\":7899:7904   */\n      0x00\n        /* \"#utility.yul\":7948:7951   */\n      dup3\n        /* \"#utility.yul\":7941:7945   */\n      0x1f\n        /* \"#utility.yul\":7933:7939   */\n      dup4\n        /* \"#utility.yul\":7929:7946   */\n      add\n        /* \"#utility.yul\":7925:7952   */\n      slt\n        /* \"#utility.yul\":7915:8037   */\n      tag_256\n      jumpi\n        /* \"#utility.yul\":7956:8035   */\n      tag_257\n      tag_153\n      jump\t// in\n    tag_257:\n        /* \"#utility.yul\":7915:8037   */\n    tag_256:\n        /* \"#utility.yul\":8073:8079   */\n      dup2\n        /* \"#utility.yul\":8060:8080   */\n      calldataload\n        /* \"#utility.yul\":8098:8177   */\n      tag_258\n        /* \"#utility.yul\":8173:8176   */\n      dup5\n        /* \"#utility.yul\":8165:8171   */\n      dup3\n        /* \"#utility.yul\":8158:8162   */\n      0x20\n        /* \"#utility.yul\":8150:8156   */\n      dup7\n        /* \"#utility.yul\":8146:8163   */\n      add\n        /* \"#utility.yul\":8098:8177   */\n      tag_160\n      jump\t// in\n    tag_258:\n        /* \"#utility.yul\":8089:8177   */\n      swap2\n      pop\n        /* \"#utility.yul\":7905:8183   */\n      pop\n        /* \"#utility.yul\":7843:8183   */\n      swap3\n      swap2\n      pop\n      pop\n      jump\t// out\n        /* \"#utility.yul\":8189:8988   */\n    tag_73:\n        /* \"#utility.yul\":8276:8282   */\n      0x00\n        /* \"#utility.yul\":8284:8290   */\n      dup1\n        /* \"#utility.yul\":8292:8298   */\n      0x00\n        /* \"#utility.yul\":8341:8343   */\n      0x60\n        /* \"#utility.yul\":8329:8338   */\n      dup5\n        /* \"#utility.yul\":8320:8327   */\n      dup7\n        /* \"#utility.yul\":8316:8339   */\n      sub\n        /* \"#utility.yul\":8312:8344   */\n      slt\n        /* \"#utility.yul\":8309:8428   */\n      iszero\n      tag_260\n      jumpi\n        /* \"#utility.yul\":8347:8426   */\n      tag_261\n      tag_133\n      jump\t// in\n    tag_261:\n        /* \"#utility.yul\":8309:8428   */\n    tag_260:\n        /* \"#utility.yul\":8495:8496   */\n      0x00\n        /* \"#utility.yul\":8484:8493   */\n      dup5\n        /* \"#utility.yul\":8480:8497   */\n      add\n        /* \"#utility.yul\":8467:8498   */\n      calldataload\n        /* \"#utility.yul\":8525:8543   */\n      0xffffffffffffffff\n        /* \"#utility.yul\":8517:8523   */\n      dup2\n        /* \"#utility.yul\":8514:8544   */\n      gt\n        /* \"#utility.yul\":8511:8628   */\n      iszero\n      tag_262\n      jumpi\n        /* \"#utility.yul\":8547:8626   */\n      tag_263\n      tag_134\n      jump\t// in\n    tag_263:\n        /* \"#utility.yul\":8511:8628   */\n    tag_262:\n        /* \"#utility.yul\":8652:8715   */\n      tag_264\n        /* \"#utility.yul\":8707:8714   */\n      dup7\n        /* \"#utility.yul\":8698:8704   */\n      dup3\n        /* \"#utility.yul\":8687:8696   */\n      dup8\n        /* \"#utility.yul\":8683:8705   */\n      add\n        /* \"#utility.yul\":8652:8715   */\n      tag_161\n      jump\t// in\n    tag_264:\n        /* \"#utility.yul\":8642:8715   */\n      swap4\n      pop\n        /* \"#utility.yul\":8438:8725   */\n      pop\n        /* \"#utility.yul\":8764:8766   */\n      0x20\n        /* \"#utility.yul\":8790:8843   */\n      tag_265\n        /* \"#utility.yul\":8835:8842   */\n      dup7\n        /* \"#utility.yul\":8826:8832   */\n      dup3\n        /* \"#utility.yul\":8815:8824   */\n      dup8\n        /* \"#utility.yul\":8811:8833   */\n      add\n        /* \"#utility.yul\":8790:8843   */\n      tag_147\n      jump\t// in\n    tag_265:\n        /* \"#utility.yul\":8780:8843   */\n      swap3\n      pop\n        /* \"#utility.yul\":8735:8853   */\n      pop\n        /* \"#utility.yul\":8892:8894   */\n      0x40\n        /* \"#utility.yul\":8918:8971   */\n      tag_266\n        /* \"#utility.yul\":8963:8970   */\n      dup7\n        /* \"#utility.yul\":8954:8960   */\n      dup3\n        /* \"#utility.yul\":8943:8952   */\n      dup8\n        /* \"#utility.yul\":8939:8961   */\n      add\n        /* \"#utility.yul\":8918:8971   */\n      tag_138\n      jump\t// in\n    tag_266:\n        /* \"#utility.yul\":8908:8971   */\n      swap2\n      pop\n        /* \"#utility.yul\":8863:8981   */\n      pop\n        /* \"#utility.yul\":8189:8988   */\n      swap3\n      pop\n      swap3\n      pop\n      swap3\n      jump\t// out\n        /* \"#utility.yul\":8994:9174   */\n    tag_162:\n        /* \"#utility.yul\":9042:9119   */\n      0x4e487b7100000000000000000000000000000000000000000000000000000000\n        /* \"#utility.yul\":9039:9040   */\n      0x00\n        /* \"#utility.yul\":9032:9120   */\n      mstore\n        /* \"#utility.yul\":9139:9143   */\n      0x22\n        /* \"#utility.yul\":9136:9137   */\n      0x04\n        /* \"#utility.yul\":9129:9144   */\n      mstore\n        /* \"#utility.yul\":9163:9167   */\n      0x24\n        /* \"#utility.yul\":9160:9161   */\n      0x00\n        /* \"#utility.yul\":9153:9168   */\n      revert\n        /* \"#utility.yul\":9180:9500   */\n    tag_79:\n        /* \"#utility.yul\":9224:9230   */\n      0x00\n        /* \"#utility.yul\":9261:9262   */\n      0x02\n        /* \"#utility.yul\":9255:9259   */\n      dup3\n        /* \"#utility.yul\":9251:9263   */\n      div\n        /* \"#utility.yul\":9241:9263   */\n      swap1\n      pop\n        /* \"#utility.yul\":9308:9309   */\n      0x01\n        /* \"#utility.yul\":9302:9306   */\n      dup3\n        /* \"#utility.yul\":9298:9310   */\n      and\n        /* \"#utility.yul\":9329:9347   */\n      dup1\n        /* \"#utility.yul\":9319:9400   */\n      tag_269\n      jumpi\n        /* \"#utility.yul\":9385:9389   */\n      0x7f\n        /* \"#utility.yul\":9377:9383   */\n      dup3\n        /* \"#utility.yul\":9373:9390   */\n      and\n        /* \"#utility.yul\":9363:9390   */\n      swap2\n      pop\n        /* \"#utility.yul\":9319:9400   */\n    tag_269:\n        /* \"#utility.yul\":9447:9449   */\n      0x20\n        /* \"#utility.yul\":9439:9445   */\n      dup3\n        /* \"#utility.yul\":9436:9450   */\n      lt\n        /* \"#utility.yul\":9416:9434   */\n      dup2\n        /* \"#utility.yul\":9413:9451   */\n      eq\n        /* \"#utility.yul\":9410:9494   */\n      iszero\n      tag_270\n      jumpi\n        /* \"#utility.yul\":9466:9484   */\n      tag_271\n      tag_162\n      jump\t// in\n    tag_271:\n        /* \"#utility.yul\":9410:9494   */\n    tag_270:\n        /* \"#utility.yul\":9231:9500   */\n      pop\n        /* \"#utility.yul\":9180:9500   */\n      swap2\n      swap1\n      pop\n      jump\t// out\n        /* \"#utility.yul\":9506:9686   */\n    tag_163:\n        /* \"#utility.yul\":9554:9631   */\n      0x4e487b7100000000000000000000000000000000000000000000000000000000\n        /* \"#utility.yul\":9551:9552   */\n      0x00\n        /* \"#utility.yul\":9544:9632   */\n      mstore\n        /* \"#utility.yul\":9651:9655   */\n      0x12\n        /* \"#utility.yul\":9648:9649   */\n      0x04\n        /* \"#utility.yul\":9641:9656   */\n      mstore\n        /* \"#utility.yul\":9675:9679   */\n      0x24\n        /* \"#utility.yul\":9672:9673   */\n      0x00\n        /* \"#utility.yul\":9665:9680   */\n      revert\n        /* \"#utility.yul\":9692:9872   */\n    tag_164:\n        /* \"#utility.yul\":9740:9817   */\n      0x4e487b7100000000000000000000000000000000000000000000000000000000\n        /* \"#utility.yul\":9737:9738   */\n      0x00\n        /* \"#utility.yul\":9730:9818   */\n      mstore\n        /* \"#utility.yul\":9837:9841   */\n      0x11\n        /* \"#utility.yul\":9834:9835   */\n      0x04\n        /* \"#utility.yul\":9827:9842   */\n      mstore\n        /* \"#utility.yul\":9861:9865   */\n      0x24\n        /* \"#utility.yul\":9858:9859   */\n      0x00\n        /* \"#utility.yul\":9851:9866   */\n      revert\n        /* \"#utility.yul\":9878:10063   */\n    tag_89:\n        /* \"#utility.yul\":9918:9919   */\n      0x00\n        /* \"#utility.yul\":9935:9955   */\n      tag_275\n        /* \"#utility.yul\":9953:9954   */\n      dup3\n        /* \"#utility.yul\":9935:9955   */\n      tag_139\n      jump\t// in\n    tag_275:\n        /* \"#utility.yul\":9930:9955   */\n      swap2\n      pop\n        /* \"#utility.yul\":9969:9989   */\n      tag_276\n        /* \"#utility.yul\":9987:9988   */\n      dup4\n        /* \"#utility.yul\":9969:9989   */\n      tag_139\n      jump\t// in\n    tag_276:\n        /* \"#utility.yul\":9964:9989   */\n      swap3\n      pop\n        /* \"#utility.yul\":10008:10009   */\n      dup3\n        /* \"#utility.yul\":9998:10033   */\n      tag_277\n      jumpi\n        /* \"#utility.yul\":10013:10031   */\n      tag_278\n      tag_163\n      jump\t// in\n    tag_278:\n        /* \"#utility.yul\":9998:10033   */\n    tag_277:\n        /* \"#utility.yul\":10055:10056   */\n      dup3\n        /* \"#utility.yul\":10052:10053   */\n      dup3\n        /* \"#utility.yul\":10048:10057   */\n      div\n        /* \"#utility.yul\":10043:10057   */\n      swap1\n      pop\n        /* \"#utility.yul\":9878:10063   */\n      swap3\n      swap2\n      pop\n      pop\n      jump\t// out\n        /* \"#utility.yul\":10069:10302   */\n    tag_109:\n        /* \"#utility.yul\":10108:10111   */\n      0x00\n        /* \"#utility.yul\":10131:10155   */\n      tag_280\n        /* \"#utility.yul\":10149:10154   */\n      dup3\n        /* \"#utility.yul\":10131:10155   */\n      tag_139\n      jump\t// in\n    tag_280:\n        /* \"#utility.yul\":10122:10155   */\n      swap2\n      pop\n        /* \"#utility.yul\":10177:10243   */\n      0xffffffffffffffffffffffffffffffffffffffffffffffffffffffffffffffff\n        /* \"#utility.yul\":10170:10175   */\n      dup3\n        /* \"#utility.yul\":10167:10244   */\n      eq\n        /* \"#utility.yul\":10164:10267   */\n      iszero\n      tag_281\n      jumpi\n        /* \"#utility.yul\":10247:10265   */\n      tag_282\n      tag_164\n      jump\t// in\n    tag_282:\n        /* \"#utility.yul\":10164:10267   */\n    tag_281:\n        /* \"#utility.yul\":10294:10295   */\n      0x01\n        /* \"#utility.yul\":10287:10292   */\n      dup3\n        /* \"#utility.yul\":10283:10296   */\n      add\n        /* \"#utility.yul\":10276:10296   */\n      swap1\n      pop\n        /* \"#utility.yul\":10069:10302   */\n      swap2\n      swap1\n      pop\n      jump\t// out\n        /* \"#utility.yul\":10308:10613   */\n    tag_121:\n        /* \"#utility.yul\":10348:10351   */\n      0x00\n        /* \"#utility.yul\":10367:10387   */\n      tag_284\n        /* \"#utility.yul\":10385:10386   */\n      dup3\n        /* \"#utility.yul\":10367:10387   */\n      tag_139\n      jump\t// in\n    tag_284:\n        /* \"#utility.yul\":10362:10387   */\n      swap2\n      pop\n        /* \"#utility.yul\":10401:10421   */\n      tag_285\n        /* \"#utility.yul\":10419:10420   */\n      dup4\n        /* \"#utility.yul\":10401:10421   */\n      tag_139\n      jump\t// in\n    tag_285:\n        /* \"#utility.yul\":10396:10421   */\n      swap3\n      pop\n        /* \"#utility.yul\":10555:10556   */\n      dup3\n        /* \"#utility.yul\":10487:10553   */\n      0xffffffffffffffffffffffffffffffffffffffffffffffffffffffffffffffff\n        /* \"#utility.yul\":10483:10557   */\n      sub\n        /* \"#utility.yul\":10480:10481   */\n      dup3\n        /* \"#utility.yul\":10477:10558   */\n      gt\n        /* \"#utility.yul\":10474:10581   */\n      iszero\n      tag_286\n      jumpi\n        /* \"#utility.yul\":10561:10579   */\n      tag_287\n      tag_164\n      jump\t// in\n    tag_287:\n        /* \"#utility.yul\":10474:10581   */\n    tag_286:\n        /* \"#utility.yul\":10605:10606   */\n      dup3\n        /* \"#utility.yul\":10602:10603   */\n      dup3\n        /* \"#utility.yul\":10598:10607   */\n      add\n        /* \"#utility.yul\":10591:10607   */\n      swap1\n      pop\n        /* \"#utility.yul\":10308:10613   */\n      swap3\n      swap2\n      pop\n      pop\n      jump\t// out\n\n    auxdata: 0xa2646970667358221220310f26e6589ed1c4cdc4694e89083aad3080b2f76533e431545b61ef848e6a6764736f6c634300080a0033\n}\n","bytecode":{"linkReferences":{},"object":"60806040523480156200001157600080fd5b50604051620015a3380380620015a383398181016040528101906200003791906200038d565b806000806101000a81548173ffffffffffffffffffffffffffffffffffffffff021916908373ffffffffffffffffffffffffffffffffffffffff16021790555082600190805190602001906200008f929190620000a0565b50816002819055505050506200046d565b828054620000ae9062000437565b90600052602060002090601f016020900481019282620000d257600085556200011e565b82601f10620000ed57805160ff19168380011785556200011e565b828001600101855582156200011e579182015b828111156200011d57825182559160200191906001019062000100565b5b5090506200012d919062000131565b5090565b5b808211156200014c57600081600090555060010162000132565b5090565b6000604051905090565b600080fd5b600080fd5b600080fd5b600080fd5b6000601f19601f8301169050919050565b7f4e487b7100000000000000000000000000000000000000000000000000000000600052604160045260246000fd5b620001b9826200016e565b810181811067ffffffffffffffff82111715620001db57620001da6200017f565b5b80604052505050565b6000620001f062000150565b9050620001fe8282620001ae565b919050565b600067ffffffffffffffff8211156200022157620002206200017f565b5b6200022c826200016e565b9050602081019050919050565b60005b83811015620002595780820151818401526020810190506200023c565b8381111562000269576000848401525b50505050565b600062000286620002808462000203565b620001e4565b905082815260208101848484011115620002a557620002a462000169565b5b620002b284828562000239565b509392505050565b600082601f830112620002d257620002d162000164565b5b8151620002e48482602086016200026f565b91505092915050565b6000819050919050565b6200030281620002ed565b81146200030e57600080fd5b50565b6000815190506200032281620002f7565b92915050565b600073ffffffffffffffffffffffffffffffffffffffff82169050919050565b6000620003558262000328565b9050919050565b620003678162000348565b81146200037357600080fd5b50565b60008151905062000387816200035c565b92915050565b600080600060608486031215620003a957620003a86200015a565b5b600084015167ffffffffffffffff811115620003ca57620003c96200015f565b5b620003d886828701620002ba565b9350506020620003eb8682870162000311565b9250506040620003fe8682870162000376565b9150509250925092565b7f4e487b7100000000000000000000000000000000000000000000000000000000600052602260045260246000fd5b600060028204905060018216806200045057607f821691505b6020821081141562000467576200046662000408565b5b50919050565b611126806200047d6000396000f3fe6080604052600436106100c25760003560e01c80636c60a9421161007f5780639fb42b1f116100595780639fb42b1f14610273578063b39e12cf1461029e578063cf97e294146102c9578063d7bb99ba14610306576100c2565b80636c60a942146101de578063700127ef1461021f578063937e09b114610248576100c2565b8063031b3677146100c75780630724fda91461010457806313a2e1171461012f578063305595911461015a5780633410452a146101835780634051ddac146101ae575b600080fd5b3480156100d357600080fd5b506100ee60048036038101906100e99190610b20565b610310565b6040516100fb9190610b66565b60405180910390f35b34801561011057600080fd5b50610119610328565b6040516101269190610c1a565b60405180910390f35b34801561013b57600080fd5b506101446103b6565b6040516101519190610b66565b60405180910390f35b34801561016657600080fd5b50610181600480360381019061017c9190610c68565b6103bc565b005b34801561018f57600080fd5b506101986104f5565b6040516101a59190610b66565b60405180910390f35b3480156101ba57600080fd5b506101c36104ff565b6040516101d596959493929190610ca4565b60405180910390f35b3480156101ea57600080fd5b5061020560048036038101906102009190610c68565b6105d6565b604051610216959493929190610d48565b60405180910390f35b34801561022b57600080fd5b5061024660048036038101906102419190610c68565b6106c1565b005b34801561025457600080fd5b5061025d6107f5565b60405161026a9190610b66565b60405180910390f35b34801561027f57600080fd5b506102886107fb565b6040516102959190610b66565b60405180910390f35b3480156102aa57600080fd5b506102b3610801565b6040516102c09190610da2565b60405180910390f35b3480156102d557600080fd5b506102f060048036038101906102eb9190610ef2565b610825565b6040516102fd9190610b66565b60405180910390f35b61030e610944565b005b60036020528060005260406000206000915090505481565b6001805461033590610f90565b80601f016020809104026020016040519081016040528092919081815260200182805461036190610f90565b80156103ae5780601f10610383576101008083540402835291602001916103ae565b820191906000526020600020905b81548152906001019060200180831161039157829003601f168201915b505050505081565b60045481565b60008054906101000a900473ffffffffffffffffffffffffffffffffffffffff1673ffffffffffffffffffffffffffffffffffffffff163373ffffffffffffffffffffffffffffffffffffffff161461041457600080fd5b60006006600083815260200190815260200160002090508060020160149054906101000a900460ff161561044757600080fd5b60026004546104569190611020565b81600301541161046557600080fd5b8060020160009054906101000a900473ffffffffffffffffffffffffffffffffffffffff1673ffffffffffffffffffffffffffffffffffffffff166108fc82600101549081150290604051600060405180830381858888f193505050501580156104d3573d6000803e3d6000fd5b5060018160020160146101000a81548160ff0219169083151502179055505050565b6000600554905090565b600080600080600060606002544760055460045460008054906101000a900473ffffffffffffffffffffffffffffffffffffffff16600180805461054290610f90565b80601f016020809104026020016040519081016040528092919081815260200182805461056e90610f90565b80156105bb5780601f10610590576101008083540402835291602001916105bb565b820191906000526020600020905b81548152906001019060200180831161059e57829003601f168201915b50505050509050955095509550955095509550909192939495565b60066020528060005260406000206000915090508060000180546105f990610f90565b80601f016020809104026020016040519081016040528092919081815260200182805461062590610f90565b80156106725780601f1061064757610100808354040283529160200191610672565b820191906000526020600020905b81548152906001019060200180831161065557829003601f168201915b5050505050908060010154908060020160009054906101000a900473ffffffffffffffffffffffffffffffffffffffff16908060020160149054906101000a900460ff16908060030154905085565b6000600360003373ffffffffffffffffffffffffffffffffffffffff1673ffffffffffffffffffffffffffffffffffffffff168152602001908152602001600020541161070d57600080fd5b60006006600083815260200190815260200160002090508060040160003373ffffffffffffffffffffffffffffffffffffffff1673ffffffffffffffffffffffffffffffffffffffff16815260200190815260200160002060009054906101000a900460ff161561077d57600080fd5b60018160040160003373ffffffffffffffffffffffffffffffffffffffff1673ffffffffffffffffffffffffffffffffffffffff16815260200190815260200160002060006101000a81548160ff0219169083151502179055508060030160008154809291906107ec90611051565b91905055505050565b60025481565b60055481565b60008054906101000a900473ffffffffffffffffffffffffffffffffffffffff1681565b60008060009054906101000a900473ffffffffffffffffffffffffffffffffffffffff1673ffffffffffffffffffffffffffffffffffffffff163373ffffffffffffffffffffffffffffffffffffffff161461088057600080fd5b6005600081548092919061089390611051565b9190505590506000600660008381526020019081526020016000209050828160020160006101000a81548173ffffffffffffffffffffffffffffffffffffffff021916908373ffffffffffffffffffffffffffffffffffffffff16021790555083816001018190555084816000019080519060200190610914929190610a0b565b506000816003018190555060008160020160146101000a81548160ff021916908315150217905550509392505050565b600254341161095257600080fd5b6000600360003373ffffffffffffffffffffffffffffffffffffffff1673ffffffffffffffffffffffffffffffffffffffff1681526020019081526020016000205414156109b357600460008154809291906109ad90611051565b91905055505b34600360003373ffffffffffffffffffffffffffffffffffffffff1673ffffffffffffffffffffffffffffffffffffffff1681526020019081526020016000206000828254610a02919061109a565b92505081905550565b828054610a1790610f90565b90600052602060002090601f016020900481019282610a395760008555610a80565b82601f10610a5257805160ff1916838001178555610a80565b82800160010185558215610a80579182015b82811115610a7f578251825591602001919060010190610a64565b5b509050610a8d9190610a91565b5090565b5b80821115610aaa576000816000905550600101610a92565b5090565b6000604051905090565b600080fd5b600080fd5b600073ffffffffffffffffffffffffffffffffffffffff82169050919050565b6000610aed82610ac2565b9050919050565b610afd81610ae2565b8114610b0857600080fd5b50565b600081359050610b1a81610af4565b92915050565b600060208284031215610b3657610b35610ab8565b5b6000610b4484828501610b0b565b91505092915050565b6000819050919050565b610b6081610b4d565b82525050565b6000602082019050610b7b6000830184610b57565b92915050565b600081519050919050565b600082825260208201905092915050565b60005b83811015610bbb578082015181840152602081019050610ba0565b83811115610bca576000848401525b50505050565b6000601f19601f8301169050919050565b6000610bec82610b81565b610bf68185610b8c565b9350610c06818560208601610b9d565b610c0f81610bd0565b840191505092915050565b60006020820190508181036000830152610c348184610be1565b905092915050565b610c4581610b4d565b8114610c5057600080fd5b50565b600081359050610c6281610c3c565b92915050565b600060208284031215610c7e57610c7d610ab8565b5b6000610c8c84828501610c53565b91505092915050565b610c9e81610ae2565b82525050565b600060c082019050610cb96000830189610b57565b610cc66020830188610b57565b610cd36040830187610b57565b610ce06060830186610b57565b610ced6080830185610c95565b81810360a0830152610cff8184610be1565b9050979650505050505050565b6000610d1782610ac2565b9050919050565b610d2781610d0c565b82525050565b60008115159050919050565b610d4281610d2d565b82525050565b600060a0820190508181036000830152610d628188610be1565b9050610d716020830187610b57565b610d7e6040830186610d1e565b610d8b6060830185610d39565b610d986080830184610b57565b9695505050505050565b6000602082019050610db76000830184610c95565b92915050565b600080fd5b600080fd5b7f4e487b7100000000000000000000000000000000000000000000000000000000600052604160045260246000fd5b610dff82610bd0565b810181811067ffffffffffffffff82111715610e1e57610e1d610dc7565b5b80604052505050565b6000610e31610aae565b9050610e3d8282610df6565b919050565b600067ffffffffffffffff821115610e5d57610e5c610dc7565b5b610e6682610bd0565b9050602081019050919050565b82818337600083830152505050565b6000610e95610e9084610e42565b610e27565b905082815260208101848484011115610eb157610eb0610dc2565b5b610ebc848285610e73565b509392505050565b600082601f830112610ed957610ed8610dbd565b5b8135610ee9848260208601610e82565b91505092915050565b600080600060608486031215610f0b57610f0a610ab8565b5b600084013567ffffffffffffffff811115610f2957610f28610abd565b5b610f3586828701610ec4565b9350506020610f4686828701610c53565b9250506040610f5786828701610b0b565b9150509250925092565b7f4e487b7100000000000000000000000000000000000000000000000000000000600052602260045260246000fd5b60006002820490506001821680610fa857607f821691505b60208210811415610fbc57610fbb610f61565b5b50919050565b7f4e487b7100000000000000000000000000000000000000000000000000000000600052601260045260246000fd5b7f4e487b7100000000000000000000000000000000000000000000000000000000600052601160045260246000fd5b600061102b82610b4d565b915061103683610b4d565b92508261104657611045610fc2565b5b828204905092915050565b600061105c82610b4d565b91507fffffffffffffffffffffffffffffffffffffffffffffffffffffffffffffffff82141561108f5761108e610ff1565b5b600182019050919050565b60006110a582610b4d565b91506110b083610b4d565b9250827fffffffffffffffffffffffffffffffffffffffffffffffffffffffffffffffff038211156110e5576110e4610ff1565b5b82820190509291505056fea2646970667358221220310f26e6589ed1c4cdc4694e89083aad3080b2f76533e431545b61ef848e6a6764736f6c634300080a0033","opcodes":"PUSH1 0x80 PUSH1 0x40 MSTORE CALLVALUE DUP1 ISZERO PUSH3 0x11 JUMPI PUSH1 0x0 DUP1 REVERT JUMPDEST POP PUSH1 0x40 MLOAD PUSH3 0x15A3 CODESIZE SUB DUP1 PUSH3 0x15A3 DUP4 CODECOPY DUP2 DUP2 ADD PUSH1 0x40 MSTORE DUP2 ADD SWAP1 PUSH3 0x37 SWAP2 SWAP1 PUSH3 0x38D JUMP JUMPDEST DUP1 PUSH1 0x0 DUP1 PUSH2 0x100 EXP DUP2 SLOAD DUP2 PUSH20 0xFFFFFFFFFFFFFFFFFFFFFFFFFFFFFFFFFFFFFFFF MUL NOT AND SWAP1 DUP4 PUSH20 0xFFFFFFFFFFFFFFFFFFFFFFFFFFFFFFFFFFFFFFFF AND MUL OR SWAP1 SSTORE POP DUP3 PUSH1 0x1 SWAP1 DUP1 MLOAD SWAP1 PUSH1 0x20 ADD SWAP1 PUSH3 0x8F SWAP3 SWAP2 SWAP1 PUSH3 0xA0 JUMP JUMPDEST POP DUP2 PUSH1 0x2 DUP2 SWAP1 SSTORE POP POP POP POP PUSH3 0x46D JUMP JUMPDEST DUP3 DUP1 SLOAD PUSH3 0xAE SWAP1 PUSH3 0x437 JUMP JUMPDEST SWAP1 PUSH1 0x0 MSTORE PUSH1 0x20 PUSH1 0x0 KECCAK256 SWAP1 PUSH1 0x1F ADD PUSH1 0x20 SWAP1 DIV DUP2 ADD SWAP3 DUP3 PUSH3 0xD2 JUMPI PUSH1 0x0 DUP6 SSTORE PUSH3 0x11E JUMP JUMPDEST DUP3 PUSH1 0x1F LT PUSH3 0xED JUMPI DUP1 MLOAD PUSH1 0xFF NOT AND DUP4 DUP1 ADD OR DUP6 SSTORE PUSH3 0x11E JUMP JUMPDEST DUP3 DUP1 ADD PUSH1 0x1 ADD DUP6 SSTORE DUP3 ISZERO PUSH3 0x11E JUMPI SWAP2 DUP3 ADD JUMPDEST DUP3 DUP2 GT ISZERO PUSH3 0x11D JUMPI DUP3 MLOAD DUP3 SSTORE SWAP2 PUSH1 0x20 ADD SWAP2 SWAP1 PUSH1 0x1 ADD SWAP1 PUSH3 0x100 JUMP JUMPDEST JUMPDEST POP SWAP1 POP PUSH3 0x12D SWAP2 SWAP1 PUSH3 0x131 JUMP JUMPDEST POP SWAP1 JUMP JUMPDEST JUMPDEST DUP1 DUP3 GT ISZERO PUSH3 0x14C JUMPI PUSH1 0x0 DUP2 PUSH1 0x0 SWAP1 SSTORE POP PUSH1 0x1 ADD PUSH3 0x132 JUMP JUMPDEST POP SWAP1 JUMP JUMPDEST PUSH1 0x0 PUSH1 0x40 MLOAD SWAP1 POP SWAP1 JUMP JUMPDEST PUSH1 0x0 DUP1 REVERT JUMPDEST PUSH1 0x0 DUP1 REVERT JUMPDEST PUSH1 0x0 DUP1 REVERT JUMPDEST PUSH1 0x0 DUP1 REVERT JUMPDEST PUSH1 0x0 PUSH1 0x1F NOT PUSH1 0x1F DUP4 ADD AND SWAP1 POP SWAP2 SWAP1 POP JUMP JUMPDEST PUSH32 0x4E487B7100000000000000000000000000000000000000000000000000000000 PUSH1 0x0 MSTORE PUSH1 0x41 PUSH1 0x4 MSTORE PUSH1 0x24 PUSH1 0x0 REVERT JUMPDEST PUSH3 0x1B9 DUP3 PUSH3 0x16E JUMP JUMPDEST DUP2 ADD DUP2 DUP2 LT PUSH8 0xFFFFFFFFFFFFFFFF DUP3 GT OR ISZERO PUSH3 0x1DB JUMPI PUSH3 0x1DA PUSH3 0x17F JUMP JUMPDEST JUMPDEST DUP1 PUSH1 0x40 MSTORE POP POP POP JUMP JUMPDEST PUSH1 0x0 PUSH3 0x1F0 PUSH3 0x150 JUMP JUMPDEST SWAP1 POP PUSH3 0x1FE DUP3 DUP3 PUSH3 0x1AE JUMP JUMPDEST SWAP2 SWAP1 POP JUMP JUMPDEST PUSH1 0x0 PUSH8 0xFFFFFFFFFFFFFFFF DUP3 GT ISZERO PUSH3 0x221 JUMPI PUSH3 0x220 PUSH3 0x17F JUMP JUMPDEST JUMPDEST PUSH3 0x22C DUP3 PUSH3 0x16E JUMP JUMPDEST SWAP1 POP PUSH1 0x20 DUP2 ADD SWAP1 POP SWAP2 SWAP1 POP JUMP JUMPDEST PUSH1 0x0 JUMPDEST DUP4 DUP2 LT ISZERO PUSH3 0x259 JUMPI DUP1 DUP3 ADD MLOAD DUP2 DUP5 ADD MSTORE PUSH1 0x20 DUP2 ADD SWAP1 POP PUSH3 0x23C JUMP JUMPDEST DUP4 DUP2 GT ISZERO PUSH3 0x269 JUMPI PUSH1 0x0 DUP5 DUP5 ADD MSTORE JUMPDEST POP POP POP POP JUMP JUMPDEST PUSH1 0x0 PUSH3 0x286 PUSH3 0x280 DUP5 PUSH3 0x203 JUMP JUMPDEST PUSH3 0x1E4 JUMP JUMPDEST SWAP1 POP DUP3 DUP2 MSTORE PUSH1 0x20 DUP2 ADD DUP5 DUP5 DUP5 ADD GT ISZERO PUSH3 0x2A5 JUMPI PUSH3 0x2A4 PUSH3 0x169 JUMP JUMPDEST JUMPDEST PUSH3 0x2B2 DUP5 DUP3 DUP6 PUSH3 0x239 JUMP JUMPDEST POP SWAP4 SWAP3 POP POP POP JUMP JUMPDEST PUSH1 0x0 DUP3 PUSH1 0x1F DUP4 ADD SLT PUSH3 0x2D2 JUMPI PUSH3 0x2D1 PUSH3 0x164 JUMP JUMPDEST JUMPDEST DUP2 MLOAD PUSH3 0x2E4 DUP5 DUP3 PUSH1 0x20 DUP7 ADD PUSH3 0x26F JUMP JUMPDEST SWAP2 POP POP SWAP3 SWAP2 POP POP JUMP JUMPDEST PUSH1 0x0 DUP2 SWAP1 POP SWAP2 SWAP1 POP JUMP JUMPDEST PUSH3 0x302 DUP2 PUSH3 0x2ED JUMP JUMPDEST DUP2 EQ PUSH3 0x30E JUMPI PUSH1 0x0 DUP1 REVERT JUMPDEST POP JUMP JUMPDEST PUSH1 0x0 DUP2 MLOAD SWAP1 POP PUSH3 0x322 DUP2 PUSH3 0x2F7 JUMP JUMPDEST SWAP3 SWAP2 POP POP JUMP JUMPDEST PUSH1 0x0 PUSH20 0xFFFFFFFFFFFFFFFFFFFFFFFFFFFFFFFFFFFFFFFF DUP3 AND SWAP1 POP SWAP2 SWAP1 POP JUMP JUMPDEST PUSH1 0x0 PUSH3 0x355 DUP3 PUSH3 0x328 JUMP JUMPDEST SWAP1 POP SWAP2 SWAP1 POP JUMP JUMPDEST PUSH3 0x367 DUP2 PUSH3 0x348 JUMP JUMPDEST DUP2 EQ PUSH3 0x373 JUMPI PUSH1 0x0 DUP1 REVERT JUMPDEST POP JUMP JUMPDEST PUSH1 0x0 DUP2 MLOAD SWAP1 POP PUSH3 0x387 DUP2 PUSH3 0x35C JUMP JUMPDEST SWAP3 SWAP2 POP POP JUMP JUMPDEST PUSH1 0x0 DUP1 PUSH1 0x0 PUSH1 0x60 DUP5 DUP7 SUB SLT ISZERO PUSH3 0x3A9 JUMPI PUSH3 0x3A8 PUSH3 0x15A JUMP JUMPDEST JUMPDEST PUSH1 0x0 DUP5 ADD MLOAD PUSH8 0xFFFFFFFFFFFFFFFF DUP2 GT ISZERO PUSH3 0x3CA JUMPI PUSH3 0x3C9 PUSH3 0x15F JUMP JUMPDEST JUMPDEST PUSH3 0x3D8 DUP7 DUP3 DUP8 ADD PUSH3 0x2BA JUMP JUMPDEST SWAP4 POP POP PUSH1 0x20 PUSH3 0x3EB DUP7 DUP3 DUP8 ADD PUSH3 0x311 JUMP JUMPDEST SWAP3 POP POP PUSH1 0x40 PUSH3 0x3FE DUP7 DUP3 DUP8 ADD PUSH3 0x376 JUMP JUMPDEST SWAP2 POP POP SWAP3 POP SWAP3 POP SWAP3 JUMP JUMPDEST PUSH32 0x4E487B7100000000000000000000000000000000000000000000000000000000 PUSH1 0x0 MSTORE PUSH1 0x22 PUSH1 0x4 MSTORE PUSH1 0x24 PUSH1 0x0 REVERT JUMPDEST PUSH1 0x0 PUSH1 0x2 DUP3 DIV SWAP1 POP PUSH1 0x1 DUP3 AND DUP1 PUSH3 0x450 JUMPI PUSH1 0x7F DUP3 AND SWAP2 POP JUMPDEST PUSH1 0x20 DUP3 LT DUP2 EQ ISZERO PUSH3 0x467 JUMPI PUSH3 0x466 PUSH3 0x408 JUMP JUMPDEST JUMPDEST POP SWAP2 SWAP1 POP JUMP JUMPDEST PUSH2 0x1126 DUP1 PUSH3 0x47D PUSH1 0x0 CODECOPY PUSH1 0x0 RETURN INVALID PUSH1 0x80 PUSH1 0x40 MSTORE PUSH1 0x4 CALLDATASIZE LT PUSH2 0xC2 JUMPI PUSH1 0x0 CALLDATALOAD PUSH1 0xE0 SHR DUP1 PUSH4 0x6C60A942 GT PUSH2 0x7F JUMPI DUP1 PUSH4 0x9FB42B1F GT PUSH2 0x59 JUMPI DUP1 PUSH4 0x9FB42B1F EQ PUSH2 0x273 JUMPI DUP1 PUSH4 0xB39E12CF EQ PUSH2 0x29E JUMPI DUP1 PUSH4 0xCF97E294 EQ PUSH2 0x2C9 JUMPI DUP1 PUSH4 0xD7BB99BA EQ PUSH2 0x306 JUMPI PUSH2 0xC2 JUMP JUMPDEST DUP1 PUSH4 0x6C60A942 EQ PUSH2 0x1DE JUMPI DUP1 PUSH4 0x700127EF EQ PUSH2 0x21F JUMPI DUP1 PUSH4 0x937E09B1 EQ PUSH2 0x248 JUMPI PUSH2 0xC2 JUMP JUMPDEST DUP1 PUSH4 0x31B3677 EQ PUSH2 0xC7 JUMPI DUP1 PUSH4 0x724FDA9 EQ PUSH2 0x104 JUMPI DUP1 PUSH4 0x13A2E117 EQ PUSH2 0x12F JUMPI DUP1 PUSH4 0x30559591 EQ PUSH2 0x15A JUMPI DUP1 PUSH4 0x3410452A EQ PUSH2 0x183 JUMPI DUP1 PUSH4 0x4051DDAC EQ PUSH2 0x1AE JUMPI JUMPDEST PUSH1 0x0 DUP1 REVERT JUMPDEST CALLVALUE DUP1 ISZERO PUSH2 0xD3 JUMPI PUSH1 0x0 DUP1 REVERT JUMPDEST POP PUSH2 0xEE PUSH1 0x4 DUP1 CALLDATASIZE SUB DUP2 ADD SWAP1 PUSH2 0xE9 SWAP2 SWAP1 PUSH2 0xB20 JUMP JUMPDEST PUSH2 0x310 JUMP JUMPDEST PUSH1 0x40 MLOAD PUSH2 0xFB SWAP2 SWAP1 PUSH2 0xB66 JUMP JUMPDEST PUSH1 0x40 MLOAD DUP1 SWAP2 SUB SWAP1 RETURN JUMPDEST CALLVALUE DUP1 ISZERO PUSH2 0x110 JUMPI PUSH1 0x0 DUP1 REVERT JUMPDEST POP PUSH2 0x119 PUSH2 0x328 JUMP JUMPDEST PUSH1 0x40 MLOAD PUSH2 0x126 SWAP2 SWAP1 PUSH2 0xC1A JUMP JUMPDEST PUSH1 0x40 MLOAD DUP1 SWAP2 SUB SWAP1 RETURN JUMPDEST CALLVALUE DUP1 ISZERO PUSH2 0x13B JUMPI PUSH1 0x0 DUP1 REVERT JUMPDEST POP PUSH2 0x144 PUSH2 0x3B6 JUMP JUMPDEST PUSH1 0x40 MLOAD PUSH2 0x151 SWAP2 SWAP1 PUSH2 0xB66 JUMP JUMPDEST PUSH1 0x40 MLOAD DUP1 SWAP2 SUB SWAP1 RETURN JUMPDEST CALLVALUE DUP1 ISZERO PUSH2 0x166 JUMPI PUSH1 0x0 DUP1 REVERT JUMPDEST POP PUSH2 0x181 PUSH1 0x4 DUP1 CALLDATASIZE SUB DUP2 ADD SWAP1 PUSH2 0x17C SWAP2 SWAP1 PUSH2 0xC68 JUMP JUMPDEST PUSH2 0x3BC JUMP JUMPDEST STOP JUMPDEST CALLVALUE DUP1 ISZERO PUSH2 0x18F JUMPI PUSH1 0x0 DUP1 REVERT JUMPDEST POP PUSH2 0x198 PUSH2 0x4F5 JUMP JUMPDEST PUSH1 0x40 MLOAD PUSH2 0x1A5 SWAP2 SWAP1 PUSH2 0xB66 JUMP JUMPDEST PUSH1 0x40 MLOAD DUP1 SWAP2 SUB SWAP1 RETURN JUMPDEST CALLVALUE DUP1 ISZERO PUSH2 0x1BA JUMPI PUSH1 0x0 DUP1 REVERT JUMPDEST POP PUSH2 0x1C3 PUSH2 0x4FF JUMP JUMPDEST PUSH1 0x40 MLOAD PUSH2 0x1D5 SWAP7 SWAP6 SWAP5 SWAP4 SWAP3 SWAP2 SWAP1 PUSH2 0xCA4 JUMP JUMPDEST PUSH1 0x40 MLOAD DUP1 SWAP2 SUB SWAP1 RETURN JUMPDEST CALLVALUE DUP1 ISZERO PUSH2 0x1EA JUMPI PUSH1 0x0 DUP1 REVERT JUMPDEST POP PUSH2 0x205 PUSH1 0x4 DUP1 CALLDATASIZE SUB DUP2 ADD SWAP1 PUSH2 0x200 SWAP2 SWAP1 PUSH2 0xC68 JUMP JUMPDEST PUSH2 0x5D6 JUMP JUMPDEST PUSH1 0x40 MLOAD PUSH2 0x216 SWAP6 SWAP5 SWAP4 SWAP3 SWAP2 SWAP1 PUSH2 0xD48 JUMP JUMPDEST PUSH1 0x40 MLOAD DUP1 SWAP2 SUB SWAP1 RETURN JUMPDEST CALLVALUE DUP1 ISZERO PUSH2 0x22B JUMPI PUSH1 0x0 DUP1 REVERT JUMPDEST POP PUSH2 0x246 PUSH1 0x4 DUP1 CALLDATASIZE SUB DUP2 ADD SWAP1 PUSH2 0x241 SWAP2 SWAP1 PUSH2 0xC68 JUMP JUMPDEST PUSH2 0x6C1 JUMP JUMPDEST STOP JUMPDEST CALLVALUE DUP1 ISZERO PUSH2 0x254 JUMPI PUSH1 0x0 DUP1 REVERT JUMPDEST POP PUSH2 0x25D PUSH2 0x7F5 JUMP JUMPDEST PUSH1 0x40 MLOAD PUSH2 0x26A SWAP2 SWAP1 PUSH2 0xB66 JUMP JUMPDEST PUSH1 0x40 MLOAD DUP1 SWAP2 SUB SWAP1 RETURN JUMPDEST CALLVALUE DUP1 ISZERO PUSH2 0x27F JUMPI PUSH1 0x0 DUP1 REVERT JUMPDEST POP PUSH2 0x288 PUSH2 0x7FB JUMP JUMPDEST PUSH1 0x40 MLOAD PUSH2 0x295 SWAP2 SWAP1 PUSH2 0xB66 JUMP JUMPDEST PUSH1 0x40 MLOAD DUP1 SWAP2 SUB SWAP1 RETURN JUMPDEST CALLVALUE DUP1 ISZERO PUSH2 0x2AA JUMPI PUSH1 0x0 DUP1 REVERT JUMPDEST POP PUSH2 0x2B3 PUSH2 0x801 JUMP JUMPDEST PUSH1 0x40 MLOAD PUSH2 0x2C0 SWAP2 SWAP1 PUSH2 0xDA2 JUMP JUMPDEST PUSH1 0x40 MLOAD DUP1 SWAP2 SUB SWAP1 RETURN JUMPDEST CALLVALUE DUP1 ISZERO PUSH2 0x2D5 JUMPI PUSH1 0x0 DUP1 REVERT JUMPDEST POP PUSH2 0x2F0 PUSH1 0x4 DUP1 CALLDATASIZE SUB DUP2 ADD SWAP1 PUSH2 0x2EB SWAP2 SWAP1 PUSH2 0xEF2 JUMP JUMPDEST PUSH2 0x825 JUMP JUMPDEST PUSH1 0x40 MLOAD PUSH2 0x2FD SWAP2 SWAP1 PUSH2 0xB66 JUMP JUMPDEST PUSH1 0x40 MLOAD DUP1 SWAP2 SUB SWAP1 RETURN JUMPDEST PUSH2 0x30E PUSH2 0x944 JUMP JUMPDEST STOP JUMPDEST PUSH1 0x3 PUSH1 0x20 MSTORE DUP1 PUSH1 0x0 MSTORE PUSH1 0x40 PUSH1 0x0 KECCAK256 PUSH1 0x0 SWAP2 POP SWAP1 POP SLOAD DUP2 JUMP JUMPDEST PUSH1 0x1 DUP1 SLOAD PUSH2 0x335 SWAP1 PUSH2 0xF90 JUMP JUMPDEST DUP1 PUSH1 0x1F ADD PUSH1 0x20 DUP1 SWAP2 DIV MUL PUSH1 0x20 ADD PUSH1 0x40 MLOAD SWAP1 DUP2 ADD PUSH1 0x40 MSTORE DUP1 SWAP3 SWAP2 SWAP1 DUP2 DUP2 MSTORE PUSH1 0x20 ADD DUP3 DUP1 SLOAD PUSH2 0x361 SWAP1 PUSH2 0xF90 JUMP JUMPDEST DUP1 ISZERO PUSH2 0x3AE JUMPI DUP1 PUSH1 0x1F LT PUSH2 0x383 JUMPI PUSH2 0x100 DUP1 DUP4 SLOAD DIV MUL DUP4 MSTORE SWAP2 PUSH1 0x20 ADD SWAP2 PUSH2 0x3AE JUMP JUMPDEST DUP3 ADD SWAP2 SWAP1 PUSH1 0x0 MSTORE PUSH1 0x20 PUSH1 0x0 KECCAK256 SWAP1 JUMPDEST DUP2 SLOAD DUP2 MSTORE SWAP1 PUSH1 0x1 ADD SWAP1 PUSH1 0x20 ADD DUP1 DUP4 GT PUSH2 0x391 JUMPI DUP3 SWAP1 SUB PUSH1 0x1F AND DUP3 ADD SWAP2 JUMPDEST POP POP POP POP POP DUP2 JUMP JUMPDEST PUSH1 0x4 SLOAD DUP2 JUMP JUMPDEST PUSH1 0x0 DUP1 SLOAD SWAP1 PUSH2 0x100 EXP SWAP1 DIV PUSH20 0xFFFFFFFFFFFFFFFFFFFFFFFFFFFFFFFFFFFFFFFF AND PUSH20 0xFFFFFFFFFFFFFFFFFFFFFFFFFFFFFFFFFFFFFFFF AND CALLER PUSH20 0xFFFFFFFFFFFFFFFFFFFFFFFFFFFFFFFFFFFFFFFF AND EQ PUSH2 0x414 JUMPI PUSH1 0x0 DUP1 REVERT JUMPDEST PUSH1 0x0 PUSH1 0x6 PUSH1 0x0 DUP4 DUP2 MSTORE PUSH1 0x20 ADD SWAP1 DUP2 MSTORE PUSH1 0x20 ADD PUSH1 0x0 KECCAK256 SWAP1 POP DUP1 PUSH1 0x2 ADD PUSH1 0x14 SWAP1 SLOAD SWAP1 PUSH2 0x100 EXP SWAP1 DIV PUSH1 0xFF AND ISZERO PUSH2 0x447 JUMPI PUSH1 0x0 DUP1 REVERT JUMPDEST PUSH1 0x2 PUSH1 0x4 SLOAD PUSH2 0x456 SWAP2 SWAP1 PUSH2 0x1020 JUMP JUMPDEST DUP2 PUSH1 0x3 ADD SLOAD GT PUSH2 0x465 JUMPI PUSH1 0x0 DUP1 REVERT JUMPDEST DUP1 PUSH1 0x2 ADD PUSH1 0x0 SWAP1 SLOAD SWAP1 PUSH2 0x100 EXP SWAP1 DIV PUSH20 0xFFFFFFFFFFFFFFFFFFFFFFFFFFFFFFFFFFFFFFFF AND PUSH20 0xFFFFFFFFFFFFFFFFFFFFFFFFFFFFFFFFFFFFFFFF AND PUSH2 0x8FC DUP3 PUSH1 0x1 ADD SLOAD SWAP1 DUP2 ISZERO MUL SWAP1 PUSH1 0x40 MLOAD PUSH1 0x0 PUSH1 0x40 MLOAD DUP1 DUP4 SUB DUP2 DUP6 DUP9 DUP9 CALL SWAP4 POP POP POP POP ISZERO DUP1 ISZERO PUSH2 0x4D3 JUMPI RETURNDATASIZE PUSH1 0x0 DUP1 RETURNDATACOPY RETURNDATASIZE PUSH1 0x0 REVERT JUMPDEST POP PUSH1 0x1 DUP2 PUSH1 0x2 ADD PUSH1 0x14 PUSH2 0x100 EXP DUP2 SLOAD DUP2 PUSH1 0xFF MUL NOT AND SWAP1 DUP4 ISZERO ISZERO MUL OR SWAP1 SSTORE POP POP POP JUMP JUMPDEST PUSH1 0x0 PUSH1 0x5 SLOAD SWAP1 POP SWAP1 JUMP JUMPDEST PUSH1 0x0 DUP1 PUSH1 0x0 DUP1 PUSH1 0x0 PUSH1 0x60 PUSH1 0x2 SLOAD SELFBALANCE PUSH1 0x5 SLOAD PUSH1 0x4 SLOAD PUSH1 0x0 DUP1 SLOAD SWAP1 PUSH2 0x100 EXP SWAP1 DIV PUSH20 0xFFFFFFFFFFFFFFFFFFFFFFFFFFFFFFFFFFFFFFFF AND PUSH1 0x1 DUP1 DUP1 SLOAD PUSH2 0x542 SWAP1 PUSH2 0xF90 JUMP JUMPDEST DUP1 PUSH1 0x1F ADD PUSH1 0x20 DUP1 SWAP2 DIV MUL PUSH1 0x20 ADD PUSH1 0x40 MLOAD SWAP1 DUP2 ADD PUSH1 0x40 MSTORE DUP1 SWAP3 SWAP2 SWAP1 DUP2 DUP2 MSTORE PUSH1 0x20 ADD DUP3 DUP1 SLOAD PUSH2 0x56E SWAP1 PUSH2 0xF90 JUMP JUMPDEST DUP1 ISZERO PUSH2 0x5BB JUMPI DUP1 PUSH1 0x1F LT PUSH2 0x590 JUMPI PUSH2 0x100 DUP1 DUP4 SLOAD DIV MUL DUP4 MSTORE SWAP2 PUSH1 0x20 ADD SWAP2 PUSH2 0x5BB JUMP JUMPDEST DUP3 ADD SWAP2 SWAP1 PUSH1 0x0 MSTORE PUSH1 0x20 PUSH1 0x0 KECCAK256 SWAP1 JUMPDEST DUP2 SLOAD DUP2 MSTORE SWAP1 PUSH1 0x1 ADD SWAP1 PUSH1 0x20 ADD DUP1 DUP4 GT PUSH2 0x59E JUMPI DUP3 SWAP1 SUB PUSH1 0x1F AND DUP3 ADD SWAP2 JUMPDEST POP POP POP POP POP SWAP1 POP SWAP6 POP SWAP6 POP SWAP6 POP SWAP6 POP SWAP6 POP SWAP6 POP SWAP1 SWAP2 SWAP3 SWAP4 SWAP5 SWAP6 JUMP JUMPDEST PUSH1 0x6 PUSH1 0x20 MSTORE DUP1 PUSH1 0x0 MSTORE PUSH1 0x40 PUSH1 0x0 KECCAK256 PUSH1 0x0 SWAP2 POP SWAP1 POP DUP1 PUSH1 0x0 ADD DUP1 SLOAD PUSH2 0x5F9 SWAP1 PUSH2 0xF90 JUMP JUMPDEST DUP1 PUSH1 0x1F ADD PUSH1 0x20 DUP1 SWAP2 DIV MUL PUSH1 0x20 ADD PUSH1 0x40 MLOAD SWAP1 DUP2 ADD PUSH1 0x40 MSTORE DUP1 SWAP3 SWAP2 SWAP1 DUP2 DUP2 MSTORE PUSH1 0x20 ADD DUP3 DUP1 SLOAD PUSH2 0x625 SWAP1 PUSH2 0xF90 JUMP JUMPDEST DUP1 ISZERO PUSH2 0x672 JUMPI DUP1 PUSH1 0x1F LT PUSH2 0x647 JUMPI PUSH2 0x100 DUP1 DUP4 SLOAD DIV MUL DUP4 MSTORE SWAP2 PUSH1 0x20 ADD SWAP2 PUSH2 0x672 JUMP JUMPDEST DUP3 ADD SWAP2 SWAP1 PUSH1 0x0 MSTORE PUSH1 0x20 PUSH1 0x0 KECCAK256 SWAP1 JUMPDEST DUP2 SLOAD DUP2 MSTORE SWAP1 PUSH1 0x1 ADD SWAP1 PUSH1 0x20 ADD DUP1 DUP4 GT PUSH2 0x655 JUMPI DUP3 SWAP1 SUB PUSH1 0x1F AND DUP3 ADD SWAP2 JUMPDEST POP POP POP POP POP SWAP1 DUP1 PUSH1 0x1 ADD SLOAD SWAP1 DUP1 PUSH1 0x2 ADD PUSH1 0x0 SWAP1 SLOAD SWAP1 PUSH2 0x100 EXP SWAP1 DIV PUSH20 0xFFFFFFFFFFFFFFFFFFFFFFFFFFFFFFFFFFFFFFFF AND SWAP1 DUP1 PUSH1 0x2 ADD PUSH1 0x14 SWAP1 SLOAD SWAP1 PUSH2 0x100 EXP SWAP1 DIV PUSH1 0xFF AND SWAP1 DUP1 PUSH1 0x3 ADD SLOAD SWAP1 POP DUP6 JUMP JUMPDEST PUSH1 0x0 PUSH1 0x3 PUSH1 0x0 CALLER PUSH20 0xFFFFFFFFFFFFFFFFFFFFFFFFFFFFFFFFFFFFFFFF AND PUSH20 0xFFFFFFFFFFFFFFFFFFFFFFFFFFFFFFFFFFFFFFFF AND DUP2 MSTORE PUSH1 0x20 ADD SWAP1 DUP2 MSTORE PUSH1 0x20 ADD PUSH1 0x0 KECCAK256 SLOAD GT PUSH2 0x70D JUMPI PUSH1 0x0 DUP1 REVERT JUMPDEST PUSH1 0x0 PUSH1 0x6 PUSH1 0x0 DUP4 DUP2 MSTORE PUSH1 0x20 ADD SWAP1 DUP2 MSTORE PUSH1 0x20 ADD PUSH1 0x0 KECCAK256 SWAP1 POP DUP1 PUSH1 0x4 ADD PUSH1 0x0 CALLER PUSH20 0xFFFFFFFFFFFFFFFFFFFFFFFFFFFFFFFFFFFFFFFF AND PUSH20 0xFFFFFFFFFFFFFFFFFFFFFFFFFFFFFFFFFFFFFFFF AND DUP2 MSTORE PUSH1 0x20 ADD SWAP1 DUP2 MSTORE PUSH1 0x20 ADD PUSH1 0x0 KECCAK256 PUSH1 0x0 SWAP1 SLOAD SWAP1 PUSH2 0x100 EXP SWAP1 DIV PUSH1 0xFF AND ISZERO PUSH2 0x77D JUMPI PUSH1 0x0 DUP1 REVERT JUMPDEST PUSH1 0x1 DUP2 PUSH1 0x4 ADD PUSH1 0x0 CALLER PUSH20 0xFFFFFFFFFFFFFFFFFFFFFFFFFFFFFFFFFFFFFFFF AND PUSH20 0xFFFFFFFFFFFFFFFFFFFFFFFFFFFFFFFFFFFFFFFF AND DUP2 MSTORE PUSH1 0x20 ADD SWAP1 DUP2 MSTORE PUSH1 0x20 ADD PUSH1 0x0 KECCAK256 PUSH1 0x0 PUSH2 0x100 EXP DUP2 SLOAD DUP2 PUSH1 0xFF MUL NOT AND SWAP1 DUP4 ISZERO ISZERO MUL OR SWAP1 SSTORE POP DUP1 PUSH1 0x3 ADD PUSH1 0x0 DUP2 SLOAD DUP1 SWAP3 SWAP2 SWAP1 PUSH2 0x7EC SWAP1 PUSH2 0x1051 JUMP JUMPDEST SWAP2 SWAP1 POP SSTORE POP POP POP JUMP JUMPDEST PUSH1 0x2 SLOAD DUP2 JUMP JUMPDEST PUSH1 0x5 SLOAD DUP2 JUMP JUMPDEST PUSH1 0x0 DUP1 SLOAD SWAP1 PUSH2 0x100 EXP SWAP1 DIV PUSH20 0xFFFFFFFFFFFFFFFFFFFFFFFFFFFFFFFFFFFFFFFF AND DUP2 JUMP JUMPDEST PUSH1 0x0 DUP1 PUSH1 0x0 SWAP1 SLOAD SWAP1 PUSH2 0x100 EXP SWAP1 DIV PUSH20 0xFFFFFFFFFFFFFFFFFFFFFFFFFFFFFFFFFFFFFFFF AND PUSH20 0xFFFFFFFFFFFFFFFFFFFFFFFFFFFFFFFFFFFFFFFF AND CALLER PUSH20 0xFFFFFFFFFFFFFFFFFFFFFFFFFFFFFFFFFFFFFFFF AND EQ PUSH2 0x880 JUMPI PUSH1 0x0 DUP1 REVERT JUMPDEST PUSH1 0x5 PUSH1 0x0 DUP2 SLOAD DUP1 SWAP3 SWAP2 SWAP1 PUSH2 0x893 SWAP1 PUSH2 0x1051 JUMP JUMPDEST SWAP2 SWAP1 POP SSTORE SWAP1 POP PUSH1 0x0 PUSH1 0x6 PUSH1 0x0 DUP4 DUP2 MSTORE PUSH1 0x20 ADD SWAP1 DUP2 MSTORE PUSH1 0x20 ADD PUSH1 0x0 KECCAK256 SWAP1 POP DUP3 DUP2 PUSH1 0x2 ADD PUSH1 0x0 PUSH2 0x100 EXP DUP2 SLOAD DUP2 PUSH20 0xFFFFFFFFFFFFFFFFFFFFFFFFFFFFFFFFFFFFFFFF MUL NOT AND SWAP1 DUP4 PUSH20 0xFFFFFFFFFFFFFFFFFFFFFFFFFFFFFFFFFFFFFFFF AND MUL OR SWAP1 SSTORE POP DUP4 DUP2 PUSH1 0x1 ADD DUP2 SWAP1 SSTORE POP DUP5 DUP2 PUSH1 0x0 ADD SWAP1 DUP1 MLOAD SWAP1 PUSH1 0x20 ADD SWAP1 PUSH2 0x914 SWAP3 SWAP2 SWAP1 PUSH2 0xA0B JUMP JUMPDEST POP PUSH1 0x0 DUP2 PUSH1 0x3 ADD DUP2 SWAP1 SSTORE POP PUSH1 0x0 DUP2 PUSH1 0x2 ADD PUSH1 0x14 PUSH2 0x100 EXP DUP2 SLOAD DUP2 PUSH1 0xFF MUL NOT AND SWAP1 DUP4 ISZERO ISZERO MUL OR SWAP1 SSTORE POP POP SWAP4 SWAP3 POP POP POP JUMP JUMPDEST PUSH1 0x2 SLOAD CALLVALUE GT PUSH2 0x952 JUMPI PUSH1 0x0 DUP1 REVERT JUMPDEST PUSH1 0x0 PUSH1 0x3 PUSH1 0x0 CALLER PUSH20 0xFFFFFFFFFFFFFFFFFFFFFFFFFFFFFFFFFFFFFFFF AND PUSH20 0xFFFFFFFFFFFFFFFFFFFFFFFFFFFFFFFFFFFFFFFF AND DUP2 MSTORE PUSH1 0x20 ADD SWAP1 DUP2 MSTORE PUSH1 0x20 ADD PUSH1 0x0 KECCAK256 SLOAD EQ ISZERO PUSH2 0x9B3 JUMPI PUSH1 0x4 PUSH1 0x0 DUP2 SLOAD DUP1 SWAP3 SWAP2 SWAP1 PUSH2 0x9AD SWAP1 PUSH2 0x1051 JUMP JUMPDEST SWAP2 SWAP1 POP SSTORE POP JUMPDEST CALLVALUE PUSH1 0x3 PUSH1 0x0 CALLER PUSH20 0xFFFFFFFFFFFFFFFFFFFFFFFFFFFFFFFFFFFFFFFF AND PUSH20 0xFFFFFFFFFFFFFFFFFFFFFFFFFFFFFFFFFFFFFFFF AND DUP2 MSTORE PUSH1 0x20 ADD SWAP1 DUP2 MSTORE PUSH1 0x20 ADD PUSH1 0x0 KECCAK256 PUSH1 0x0 DUP3 DUP3 SLOAD PUSH2 0xA02 SWAP2 SWAP1 PUSH2 0x109A JUMP JUMPDEST SWAP3 POP POP DUP2 SWAP1 SSTORE POP JUMP JUMPDEST DUP3 DUP1 SLOAD PUSH2 0xA17 SWAP1 PUSH2 0xF90 JUMP JUMPDEST SWAP1 PUSH1 0x0 MSTORE PUSH1 0x20 PUSH1 0x0 KECCAK256 SWAP1 PUSH1 0x1F ADD PUSH1 0x20 SWAP1 DIV DUP2 ADD SWAP3 DUP3 PUSH2 0xA39 JUMPI PUSH1 0x0 DUP6 SSTORE PUSH2 0xA80 JUMP JUMPDEST DUP3 PUSH1 0x1F LT PUSH2 0xA52 JUMPI DUP1 MLOAD PUSH1 0xFF NOT AND DUP4 DUP1 ADD OR DUP6 SSTORE PUSH2 0xA80 JUMP JUMPDEST DUP3 DUP1 ADD PUSH1 0x1 ADD DUP6 SSTORE DUP3 ISZERO PUSH2 0xA80 JUMPI SWAP2 DUP3 ADD JUMPDEST DUP3 DUP2 GT ISZERO PUSH2 0xA7F JUMPI DUP3 MLOAD DUP3 SSTORE SWAP2 PUSH1 0x20 ADD SWAP2 SWAP1 PUSH1 0x1 ADD SWAP1 PUSH2 0xA64 JUMP JUMPDEST JUMPDEST POP SWAP1 POP PUSH2 0xA8D SWAP2 SWAP1 PUSH2 0xA91 JUMP JUMPDEST POP SWAP1 JUMP JUMPDEST JUMPDEST DUP1 DUP3 GT ISZERO PUSH2 0xAAA JUMPI PUSH1 0x0 DUP2 PUSH1 0x0 SWAP1 SSTORE POP PUSH1 0x1 ADD PUSH2 0xA92 JUMP JUMPDEST POP SWAP1 JUMP JUMPDEST PUSH1 0x0 PUSH1 0x40 MLOAD SWAP1 POP SWAP1 JUMP JUMPDEST PUSH1 0x0 DUP1 REVERT JUMPDEST PUSH1 0x0 DUP1 REVERT JUMPDEST PUSH1 0x0 PUSH20 0xFFFFFFFFFFFFFFFFFFFFFFFFFFFFFFFFFFFFFFFF DUP3 AND SWAP1 POP SWAP2 SWAP1 POP JUMP JUMPDEST PUSH1 0x0 PUSH2 0xAED DUP3 PUSH2 0xAC2 JUMP JUMPDEST SWAP1 POP SWAP2 SWAP1 POP JUMP JUMPDEST PUSH2 0xAFD DUP2 PUSH2 0xAE2 JUMP JUMPDEST DUP2 EQ PUSH2 0xB08 JUMPI PUSH1 0x0 DUP1 REVERT JUMPDEST POP JUMP JUMPDEST PUSH1 0x0 DUP2 CALLDATALOAD SWAP1 POP PUSH2 0xB1A DUP2 PUSH2 0xAF4 JUMP JUMPDEST SWAP3 SWAP2 POP POP JUMP JUMPDEST PUSH1 0x0 PUSH1 0x20 DUP3 DUP5 SUB SLT ISZERO PUSH2 0xB36 JUMPI PUSH2 0xB35 PUSH2 0xAB8 JUMP JUMPDEST JUMPDEST PUSH1 0x0 PUSH2 0xB44 DUP5 DUP3 DUP6 ADD PUSH2 0xB0B JUMP JUMPDEST SWAP2 POP POP SWAP3 SWAP2 POP POP JUMP JUMPDEST PUSH1 0x0 DUP2 SWAP1 POP SWAP2 SWAP1 POP JUMP JUMPDEST PUSH2 0xB60 DUP2 PUSH2 0xB4D JUMP JUMPDEST DUP3 MSTORE POP POP JUMP JUMPDEST PUSH1 0x0 PUSH1 0x20 DUP3 ADD SWAP1 POP PUSH2 0xB7B PUSH1 0x0 DUP4 ADD DUP5 PUSH2 0xB57 JUMP JUMPDEST SWAP3 SWAP2 POP POP JUMP JUMPDEST PUSH1 0x0 DUP2 MLOAD SWAP1 POP SWAP2 SWAP1 POP JUMP JUMPDEST PUSH1 0x0 DUP3 DUP3 MSTORE PUSH1 0x20 DUP3 ADD SWAP1 POP SWAP3 SWAP2 POP POP JUMP JUMPDEST PUSH1 0x0 JUMPDEST DUP4 DUP2 LT ISZERO PUSH2 0xBBB JUMPI DUP1 DUP3 ADD MLOAD DUP2 DUP5 ADD MSTORE PUSH1 0x20 DUP2 ADD SWAP1 POP PUSH2 0xBA0 JUMP JUMPDEST DUP4 DUP2 GT ISZERO PUSH2 0xBCA JUMPI PUSH1 0x0 DUP5 DUP5 ADD MSTORE JUMPDEST POP POP POP POP JUMP JUMPDEST PUSH1 0x0 PUSH1 0x1F NOT PUSH1 0x1F DUP4 ADD AND SWAP1 POP SWAP2 SWAP1 POP JUMP JUMPDEST PUSH1 0x0 PUSH2 0xBEC DUP3 PUSH2 0xB81 JUMP JUMPDEST PUSH2 0xBF6 DUP2 DUP6 PUSH2 0xB8C JUMP JUMPDEST SWAP4 POP PUSH2 0xC06 DUP2 DUP6 PUSH1 0x20 DUP7 ADD PUSH2 0xB9D JUMP JUMPDEST PUSH2 0xC0F DUP2 PUSH2 0xBD0 JUMP JUMPDEST DUP5 ADD SWAP2 POP POP SWAP3 SWAP2 POP POP JUMP JUMPDEST PUSH1 0x0 PUSH1 0x20 DUP3 ADD SWAP1 POP DUP2 DUP2 SUB PUSH1 0x0 DUP4 ADD MSTORE PUSH2 0xC34 DUP2 DUP5 PUSH2 0xBE1 JUMP JUMPDEST SWAP1 POP SWAP3 SWAP2 POP POP JUMP JUMPDEST PUSH2 0xC45 DUP2 PUSH2 0xB4D JUMP JUMPDEST DUP2 EQ PUSH2 0xC50 JUMPI PUSH1 0x0 DUP1 REVERT JUMPDEST POP JUMP JUMPDEST PUSH1 0x0 DUP2 CALLDATALOAD SWAP1 POP PUSH2 0xC62 DUP2 PUSH2 0xC3C JUMP JUMPDEST SWAP3 SWAP2 POP POP JUMP JUMPDEST PUSH1 0x0 PUSH1 0x20 DUP3 DUP5 SUB SLT ISZERO PUSH2 0xC7E JUMPI PUSH2 0xC7D PUSH2 0xAB8 JUMP JUMPDEST JUMPDEST PUSH1 0x0 PUSH2 0xC8C DUP5 DUP3 DUP6 ADD PUSH2 0xC53 JUMP JUMPDEST SWAP2 POP POP SWAP3 SWAP2 POP POP JUMP JUMPDEST PUSH2 0xC9E DUP2 PUSH2 0xAE2 JUMP JUMPDEST DUP3 MSTORE POP POP JUMP JUMPDEST PUSH1 0x0 PUSH1 0xC0 DUP3 ADD SWAP1 POP PUSH2 0xCB9 PUSH1 0x0 DUP4 ADD DUP10 PUSH2 0xB57 JUMP JUMPDEST PUSH2 0xCC6 PUSH1 0x20 DUP4 ADD DUP9 PUSH2 0xB57 JUMP JUMPDEST PUSH2 0xCD3 PUSH1 0x40 DUP4 ADD DUP8 PUSH2 0xB57 JUMP JUMPDEST PUSH2 0xCE0 PUSH1 0x60 DUP4 ADD DUP7 PUSH2 0xB57 JUMP JUMPDEST PUSH2 0xCED PUSH1 0x80 DUP4 ADD DUP6 PUSH2 0xC95 JUMP JUMPDEST DUP2 DUP2 SUB PUSH1 0xA0 DUP4 ADD MSTORE PUSH2 0xCFF DUP2 DUP5 PUSH2 0xBE1 JUMP JUMPDEST SWAP1 POP SWAP8 SWAP7 POP POP POP POP POP POP POP JUMP JUMPDEST PUSH1 0x0 PUSH2 0xD17 DUP3 PUSH2 0xAC2 JUMP JUMPDEST SWAP1 POP SWAP2 SWAP1 POP JUMP JUMPDEST PUSH2 0xD27 DUP2 PUSH2 0xD0C JUMP JUMPDEST DUP3 MSTORE POP POP JUMP JUMPDEST PUSH1 0x0 DUP2 ISZERO ISZERO SWAP1 POP SWAP2 SWAP1 POP JUMP JUMPDEST PUSH2 0xD42 DUP2 PUSH2 0xD2D JUMP JUMPDEST DUP3 MSTORE POP POP JUMP JUMPDEST PUSH1 0x0 PUSH1 0xA0 DUP3 ADD SWAP1 POP DUP2 DUP2 SUB PUSH1 0x0 DUP4 ADD MSTORE PUSH2 0xD62 DUP2 DUP9 PUSH2 0xBE1 JUMP JUMPDEST SWAP1 POP PUSH2 0xD71 PUSH1 0x20 DUP4 ADD DUP8 PUSH2 0xB57 JUMP JUMPDEST PUSH2 0xD7E PUSH1 0x40 DUP4 ADD DUP7 PUSH2 0xD1E JUMP JUMPDEST PUSH2 0xD8B PUSH1 0x60 DUP4 ADD DUP6 PUSH2 0xD39 JUMP JUMPDEST PUSH2 0xD98 PUSH1 0x80 DUP4 ADD DUP5 PUSH2 0xB57 JUMP JUMPDEST SWAP7 SWAP6 POP POP POP POP POP POP JUMP JUMPDEST PUSH1 0x0 PUSH1 0x20 DUP3 ADD SWAP1 POP PUSH2 0xDB7 PUSH1 0x0 DUP4 ADD DUP5 PUSH2 0xC95 JUMP JUMPDEST SWAP3 SWAP2 POP POP JUMP JUMPDEST PUSH1 0x0 DUP1 REVERT JUMPDEST PUSH1 0x0 DUP1 REVERT JUMPDEST PUSH32 0x4E487B7100000000000000000000000000000000000000000000000000000000 PUSH1 0x0 MSTORE PUSH1 0x41 PUSH1 0x4 MSTORE PUSH1 0x24 PUSH1 0x0 REVERT JUMPDEST PUSH2 0xDFF DUP3 PUSH2 0xBD0 JUMP JUMPDEST DUP2 ADD DUP2 DUP2 LT PUSH8 0xFFFFFFFFFFFFFFFF DUP3 GT OR ISZERO PUSH2 0xE1E JUMPI PUSH2 0xE1D PUSH2 0xDC7 JUMP JUMPDEST JUMPDEST DUP1 PUSH1 0x40 MSTORE POP POP POP JUMP JUMPDEST PUSH1 0x0 PUSH2 0xE31 PUSH2 0xAAE JUMP JUMPDEST SWAP1 POP PUSH2 0xE3D DUP3 DUP3 PUSH2 0xDF6 JUMP JUMPDEST SWAP2 SWAP1 POP JUMP JUMPDEST PUSH1 0x0 PUSH8 0xFFFFFFFFFFFFFFFF DUP3 GT ISZERO PUSH2 0xE5D JUMPI PUSH2 0xE5C PUSH2 0xDC7 JUMP JUMPDEST JUMPDEST PUSH2 0xE66 DUP3 PUSH2 0xBD0 JUMP JUMPDEST SWAP1 POP PUSH1 0x20 DUP2 ADD SWAP1 POP SWAP2 SWAP1 POP JUMP JUMPDEST DUP3 DUP2 DUP4 CALLDATACOPY PUSH1 0x0 DUP4 DUP4 ADD MSTORE POP POP POP JUMP JUMPDEST PUSH1 0x0 PUSH2 0xE95 PUSH2 0xE90 DUP5 PUSH2 0xE42 JUMP JUMPDEST PUSH2 0xE27 JUMP JUMPDEST SWAP1 POP DUP3 DUP2 MSTORE PUSH1 0x20 DUP2 ADD DUP5 DUP5 DUP5 ADD GT ISZERO PUSH2 0xEB1 JUMPI PUSH2 0xEB0 PUSH2 0xDC2 JUMP JUMPDEST JUMPDEST PUSH2 0xEBC DUP5 DUP3 DUP6 PUSH2 0xE73 JUMP JUMPDEST POP SWAP4 SWAP3 POP POP POP JUMP JUMPDEST PUSH1 0x0 DUP3 PUSH1 0x1F DUP4 ADD SLT PUSH2 0xED9 JUMPI PUSH2 0xED8 PUSH2 0xDBD JUMP JUMPDEST JUMPDEST DUP2 CALLDATALOAD PUSH2 0xEE9 DUP5 DUP3 PUSH1 0x20 DUP7 ADD PUSH2 0xE82 JUMP JUMPDEST SWAP2 POP POP SWAP3 SWAP2 POP POP JUMP JUMPDEST PUSH1 0x0 DUP1 PUSH1 0x0 PUSH1 0x60 DUP5 DUP7 SUB SLT ISZERO PUSH2 0xF0B JUMPI PUSH2 0xF0A PUSH2 0xAB8 JUMP JUMPDEST JUMPDEST PUSH1 0x0 DUP5 ADD CALLDATALOAD PUSH8 0xFFFFFFFFFFFFFFFF DUP2 GT ISZERO PUSH2 0xF29 JUMPI PUSH2 0xF28 PUSH2 0xABD JUMP JUMPDEST JUMPDEST PUSH2 0xF35 DUP7 DUP3 DUP8 ADD PUSH2 0xEC4 JUMP JUMPDEST SWAP4 POP POP PUSH1 0x20 PUSH2 0xF46 DUP7 DUP3 DUP8 ADD PUSH2 0xC53 JUMP JUMPDEST SWAP3 POP POP PUSH1 0x40 PUSH2 0xF57 DUP7 DUP3 DUP8 ADD PUSH2 0xB0B JUMP JUMPDEST SWAP2 POP POP SWAP3 POP SWAP3 POP SWAP3 JUMP JUMPDEST PUSH32 0x4E487B7100000000000000000000000000000000000000000000000000000000 PUSH1 0x0 MSTORE PUSH1 0x22 PUSH1 0x4 MSTORE PUSH1 0x24 PUSH1 0x0 REVERT JUMPDEST PUSH1 0x0 PUSH1 0x2 DUP3 DIV SWAP1 POP PUSH1 0x1 DUP3 AND DUP1 PUSH2 0xFA8 JUMPI PUSH1 0x7F DUP3 AND SWAP2 POP JUMPDEST PUSH1 0x20 DUP3 LT DUP2 EQ ISZERO PUSH2 0xFBC JUMPI PUSH2 0xFBB PUSH2 0xF61 JUMP JUMPDEST JUMPDEST POP SWAP2 SWAP1 POP JUMP JUMPDEST PUSH32 0x4E487B7100000000000000000000000000000000000000000000000000000000 PUSH1 0x0 MSTORE PUSH1 0x12 PUSH1 0x4 MSTORE PUSH1 0x24 PUSH1 0x0 REVERT JUMPDEST PUSH32 0x4E487B7100000000000000000000000000000000000000000000000000000000 PUSH1 0x0 MSTORE PUSH1 0x11 PUSH1 0x4 MSTORE PUSH1 0x24 PUSH1 0x0 REVERT JUMPDEST PUSH1 0x0 PUSH2 0x102B DUP3 PUSH2 0xB4D JUMP JUMPDEST SWAP2 POP PUSH2 0x1036 DUP4 PUSH2 0xB4D JUMP JUMPDEST SWAP3 POP DUP3 PUSH2 0x1046 JUMPI PUSH2 0x1045 PUSH2 0xFC2 JUMP JUMPDEST JUMPDEST DUP3 DUP3 DIV SWAP1 POP SWAP3 SWAP2 POP POP JUMP JUMPDEST PUSH1 0x0 PUSH2 0x105C DUP3 PUSH2 0xB4D JUMP JUMPDEST SWAP2 POP PUSH32 0xFFFFFFFFFFFFFFFFFFFFFFFFFFFFFFFFFFFFFFFFFFFFFFFFFFFFFFFFFFFFFFFF DUP3 EQ ISZERO PUSH2 0x108F JUMPI PUSH2 0x108E PUSH2 0xFF1 JUMP JUMPDEST JUMPDEST PUSH1 0x1 DUP3 ADD SWAP1 POP SWAP2 SWAP1 POP JUMP JUMPDEST PUSH1 0x0 PUSH2 0x10A5 DUP3 PUSH2 0xB4D JUMP JUMPDEST SWAP2 POP PUSH2 0x10B0 DUP4 PUSH2 0xB4D JUMP JUMPDEST SWAP3 POP DUP3 PUSH32 0xFFFFFFFFFFFFFFFFFFFFFFFFFFFFFFFFFFFFFFFFFFFFFFFFFFFFFFFFFFFFFFFF SUB DUP3 GT ISZERO PUSH2 0x10E5 JUMPI PUSH2 0x10E4 PUSH2 0xFF1 JUMP JUMPDEST JUMPDEST DUP3 DUP3 ADD SWAP1 POP SWAP3 SWAP2 POP POP JUMP INVALID LOG2 PUSH5 0x6970667358 0x22 SLT KECCAK256 BALANCE 0xF 0x26 0xE6 PC SWAP15 0xD1 0xC4 0xCD 0xC4 PUSH10 0x4E89083AAD3080B2F765 CALLER 0xE4 BALANCE SLOAD JUMPDEST PUSH2 0xEF84 DUP15 PUSH11 0x6764736F6C634300080A00 CALLER "},"gasEstimates":{"creation":{"codeDepositCost":"878000","executionCost":"infinite","totalCost":"infinite"},"external":{"campaignName()":"infinite","campaignRequests(uint256)":"infinite","contractManager()":"2555","contribute()":"infinite","createManagerRequest(string,uint256,address)":"infinite","finalizeManagerRequest(uint256)":"infinite","funders(address)":"2815","fundersCount()":"2474","getRequestsCount()":"2526","getSummary()":"infinite","minimumContribution()":"2496","numRequests()":"2451","voteForRequest(uint256)":"infinite"}},"methodIdentifiers":{"campaignName()":"0724fda9","campaignRequests(uint256)":"6c60a942","contractManager()":"b39e12cf","contribute()":"d7bb99ba","createManagerRequest(string,uint256,address)":"cf97e294","finalizeManagerRequest(uint256)":"30559591","funders(address)":"031b3677","fundersCount()":"13a2e117","getRequestsCount()":"3410452a","getSummary()":"4051ddac","minimumContribution()":"937e09b1","numRequests()":"9fb42b1f","voteForRequest(uint256)":"700127ef"}},"storageLayout":{"storage":[{"astId":51,"contract":"KickstarterCampaign.sol:KickstarterCampaign","label":"contractManager","offset":0,"slot":"0","type":"t_address"},{"astId":53,"contract":"KickstarterCampaign.sol:KickstarterCampaign","label":"campaignName","offset":0,"slot":"1","type":"t_string_storage"},{"astId":55,"contract":"KickstarterCampaign.sol:KickstarterCampaign","label":"minimumContribution","offset":0,"slot":"2","type":"t_uint256"},{"astId":59,"contract":"KickstarterCampaign.sol:KickstarterCampaign","label":"funders","offset":0,"slot":"3","type":"t_mapping(t_address,t_uint256)"},{"astId":61,"contract":"KickstarterCampaign.sol:KickstarterCampaign","label":"fundersCount","offset":0,"slot":"4","type":"t_uint256"},{"astId":63,"contract":"KickstarterCampaign.sol:KickstarterCampaign","label":"numRequests","offset":0,"slot":"5","type":"t_uint256"},{"astId":68,"contract":"KickstarterCampaign.sol:KickstarterCampaign","label":"campaignRequests","offset":0,"slot":"6","type":"t_mapping(t_uint256,t_struct(CampaignRequest)333_storage)"}],"types":{"t_address":{"encoding":"inplace","label":"address","numberOfBytes":"20"},"t_address_payable":{"encoding":"inplace","label":"address payable","numberOfBytes":"20"},"t_bool":{"encoding":"inplace","label":"bool","numberOfBytes":"1"},"t_mapping(t_address,t_bool)":{"encoding":"mapping","key":"t_address","label":"mapping(address => bool)","numberOfBytes":"32","value":"t_bool"},"t_mapping(t_address,t_uint256)":{"encoding":"mapping","key":"t_address","label":"mapping(address => uint256)","numberOfBytes":"32","value":"t_uint256"},"t_mapping(t_uint256,t_struct(CampaignRequest)333_storage)":{"encoding":"mapping","key":"t_uint256","label":"mapping(uint256 => struct KickstarterCampaign.CampaignRequest)","numberOfBytes":"32","value":"t_struct(CampaignRequest)333_storage"},"t_string_storage":{"encoding":"bytes","label":"string","numberOfBytes":"32"},"t_struct(CampaignRequest)333_storage":{"encoding":"inplace","label":"struct KickstarterCampaign.CampaignRequest","members":[{"astId":320,"contract":"KickstarterCampaign.sol:KickstarterCampaign","label":"description","offset":0,"slot":"0","type":"t_string_storage"},{"astId":322,"contract":"KickstarterCampaign.sol:KickstarterCampaign","label":"payoutValue","offset":0,"slot":"1","type":"t_uint256"},{"astId":324,"contract":"KickstarterCampaign.sol:KickstarterCampaign","label":"recipient","offset":0,"slot":"2","type":"t_address_payable"},{"astId":326,"contract":"KickstarterCampaign.sol:KickstarterCampaign","label":"complete","offset":20,"slot":"2","type":"t_bool"},{"astId":328,"contract":"KickstarterCampaign.sol:KickstarterCampaign","label":"approvalCount","offset":0,"slot":"3","type":"t_uint256"},{"astId":332,"contract":"KickstarterCampaign.sol:KickstarterCampaign","label":"approvalsMapping","offset":0,"slot":"4","type":"t_mapping(t_address,t_bool)"}],"numberOfBytes":"160"},"t_uint256":{"encoding":"inplace","label":"uint256","numberOfBytes":"32"}}},"userdoc":{"kind":"user","methods":{},"version":1}}