{"abi":[{"inputs":[{"internalType":"string","name":"name","type":"string"},{"internalType":"uint256","name":"minContribution","type":"uint256"},{"internalType":"uint256","name":"fgGoal","type":"uint256"},{"internalType":"address","name":"creator","type":"address"}],"stateMutability":"nonpayable","type":"constructor"},{"inputs":[],"name":"campaignName","outputs":[{"internalType":"string","name":"","type":"string"}],"stateMutability":"view","type":"function"},{"inputs":[{"internalType":"uint256","name":"","type":"uint256"}],"name":"campaignRequests","outputs":[{"internalType":"string","name":"description","type":"string"},{"internalType":"uint256","name":"payoutValue","type":"uint256"},{"internalType":"address payable","name":"recipient","type":"address"},{"internalType":"bool","name":"complete","type":"bool"},{"internalType":"uint256","name":"approvalCount","type":"uint256"}],"stateMutability":"view","type":"function"},{"inputs":[],"name":"contractManager","outputs":[{"internalType":"address","name":"","type":"address"}],"stateMutability":"view","type":"function"},{"inputs":[],"name":"contribute","outputs":[],"stateMutability":"payable","type":"function"},{"inputs":[{"internalType":"string","name":"description","type":"string"},{"internalType":"uint256","name":"payoutValue","type":"uint256"},{"internalType":"address","name":"recipient","type":"address"}],"name":"createManagerRequest","outputs":[{"internalType":"uint256","name":"requestID","type":"uint256"}],"stateMutability":"nonpayable","type":"function"},{"inputs":[{"internalType":"uint256","name":"requestID","type":"uint256"}],"name":"finalizeManagerRequest","outputs":[],"stateMutability":"nonpayable","type":"function"},{"inputs":[{"internalType":"address","name":"","type":"address"}],"name":"funders","outputs":[{"internalType":"uint256","name":"","type":"uint256"}],"stateMutability":"view","type":"function"},{"inputs":[],"name":"fundersCount","outputs":[{"internalType":"uint256","name":"","type":"uint256"}],"stateMutability":"view","type":"function"},{"inputs":[],"name":"fundingGoal","outputs":[{"internalType":"uint256","name":"","type":"uint256"}],"stateMutability":"view","type":"function"},{"inputs":[],"name":"getRequestsCount","outputs":[{"internalType":"uint256","name":"","type":"uint256"}],"stateMutability":"view","type":"function"},{"inputs":[],"name":"getSummary","outputs":[{"internalType":"uint256","name":"","type":"uint256"},{"internalType":"uint256","name":"","type":"uint256"},{"internalType":"uint256","name":"","type":"uint256"},{"internalType":"uint256","name":"","type":"uint256"},{"internalType":"address","name":"","type":"address"},{"internalType":"string","name":"","type":"string"},{"internalType":"uint256","name":"","type":"uint256"}],"stateMutability":"view","type":"function"},{"inputs":[],"name":"minimumContribution","outputs":[{"internalType":"uint256","name":"","type":"uint256"}],"stateMutability":"view","type":"function"},{"inputs":[],"name":"numRequests","outputs":[{"internalType":"uint256","name":"","type":"uint256"}],"stateMutability":"view","type":"function"},{"inputs":[{"internalType":"uint256","name":"requestID","type":"uint256"}],"name":"voteForRequest","outputs":[],"stateMutability":"nonpayable","type":"function"}],"devdoc":{"kind":"dev","methods":{},"version":1},"evm":{"assembly":"    /* \"KickstarterCampaign.sol\":74:3075   */\n  mstore(0x40, 0x80)\n    /* \"KickstarterCampaign.sol\":476:712   */\n  callvalue\n  dup1\n  iszero\n  tag_1\n  jumpi\n  0x00\n  dup1\n  revert\ntag_1:\n  pop\n  mload(0x40)\n  sub(codesize, bytecodeSize)\n  dup1\n  bytecodeSize\n  dup4\n  codecopy\n  dup2\n  dup2\n  add\n  0x40\n  mstore\n  dup2\n  add\n  swap1\n  tag_2\n  swap2\n  swap1\n  tag_3\n  jump\t// in\ntag_2:\n    /* \"KickstarterCampaign.sol\":588:595   */\n  dup1\n    /* \"KickstarterCampaign.sol\":570:585   */\n  0x00\n  dup1\n    /* \"KickstarterCampaign.sol\":570:595   */\n  0x0100\n  exp\n  dup2\n  sload\n  dup2\n  0xffffffffffffffffffffffffffffffffffffffff\n  mul\n  not\n  and\n  swap1\n  dup4\n  0xffffffffffffffffffffffffffffffffffffffff\n  and\n  mul\n  or\n  swap1\n  sstore\n  pop\n    /* \"KickstarterCampaign.sol\":621:625   */\n  dup4\n    /* \"KickstarterCampaign.sol\":606:618   */\n  0x01\n    /* \"KickstarterCampaign.sol\":606:625   */\n  swap1\n  dup1\n  mload\n  swap1\n  0x20\n  add\n  swap1\n  tag_6\n  swap3\n  swap2\n  swap1\n  tag_7\n  jump\t// in\ntag_6:\n  pop\n    /* \"KickstarterCampaign.sol\":658:673   */\n  dup3\n    /* \"KickstarterCampaign.sol\":636:655   */\n  0x02\n    /* \"KickstarterCampaign.sol\":636:673   */\n  dup2\n  swap1\n  sstore\n  pop\n    /* \"KickstarterCampaign.sol\":698:704   */\n  dup2\n    /* \"KickstarterCampaign.sol\":684:695   */\n  0x03\n    /* \"KickstarterCampaign.sol\":684:704   */\n  dup2\n  swap1\n  sstore\n  pop\n    /* \"KickstarterCampaign.sol\":476:712   */\n  pop\n  pop\n  pop\n  pop\n    /* \"KickstarterCampaign.sol\":74:3075   */\n  jump(tag_8)\ntag_7:\n  dup3\n  dup1\n  sload\n  tag_9\n  swap1\n  tag_10\n  jump\t// in\ntag_9:\n  swap1\n  0x00\n  mstore\n  keccak256(0x00, 0x20)\n  swap1\n  0x1f\n  add\n  0x20\n  swap1\n  div\n  dup2\n  add\n  swap3\n  dup3\n  tag_12\n  jumpi\n  0x00\n  dup6\n  sstore\n  jump(tag_11)\ntag_12:\n  dup3\n  0x1f\n  lt\n  tag_13\n  jumpi\n  dup1\n  mload\n  not(0xff)\n  and\n  dup4\n  dup1\n  add\n  or\n  dup6\n  sstore\n  jump(tag_11)\ntag_13:\n  dup3\n  dup1\n  add\n  0x01\n  add\n  dup6\n  sstore\n  dup3\n  iszero\n  tag_11\n  jumpi\n  swap2\n  dup3\n  add\ntag_14:\n  dup3\n  dup2\n  gt\n  iszero\n  tag_15\n  jumpi\n  dup3\n  mload\n  dup3\n  sstore\n  swap2\n  0x20\n  add\n  swap2\n  swap1\n  0x01\n  add\n  swap1\n  jump(tag_14)\ntag_15:\ntag_11:\n  pop\n  swap1\n  pop\n  tag_16\n  swap2\n  swap1\n  tag_17\n  jump\t// in\ntag_16:\n  pop\n  swap1\n  jump\t// out\ntag_17:\ntag_18:\n  dup1\n  dup3\n  gt\n  iszero\n  tag_19\n  jumpi\n  0x00\n  dup2\n  0x00\n  swap1\n  sstore\n  pop\n  0x01\n  add\n  jump(tag_18)\ntag_19:\n  pop\n  swap1\n  jump\t// out\n    /* \"#utility.yul\":7:82   */\ntag_20:\n    /* \"#utility.yul\":40:46   */\n  0x00\n    /* \"#utility.yul\":73:75   */\n  0x40\n    /* \"#utility.yul\":67:76   */\n  mload\n    /* \"#utility.yul\":57:76   */\n  swap1\n  pop\n    /* \"#utility.yul\":7:82   */\n  swap1\n  jump\t// out\n    /* \"#utility.yul\":88:205   */\ntag_21:\n    /* \"#utility.yul\":197:198   */\n  0x00\n    /* \"#utility.yul\":194:195   */\n  dup1\n    /* \"#utility.yul\":187:199   */\n  revert\n    /* \"#utility.yul\":211:328   */\ntag_22:\n    /* \"#utility.yul\":320:321   */\n  0x00\n    /* \"#utility.yul\":317:318   */\n  dup1\n    /* \"#utility.yul\":310:322   */\n  revert\n    /* \"#utility.yul\":334:451   */\ntag_23:\n    /* \"#utility.yul\":443:444   */\n  0x00\n    /* \"#utility.yul\":440:441   */\n  dup1\n    /* \"#utility.yul\":433:445   */\n  revert\n    /* \"#utility.yul\":457:574   */\ntag_24:\n    /* \"#utility.yul\":566:567   */\n  0x00\n    /* \"#utility.yul\":563:564   */\n  dup1\n    /* \"#utility.yul\":556:568   */\n  revert\n    /* \"#utility.yul\":580:682   */\ntag_25:\n    /* \"#utility.yul\":621:627   */\n  0x00\n    /* \"#utility.yul\":672:674   */\n  0x1f\n    /* \"#utility.yul\":668:675   */\n  not\n    /* \"#utility.yul\":663:665   */\n  0x1f\n    /* \"#utility.yul\":656:661   */\n  dup4\n    /* \"#utility.yul\":652:666   */\n  add\n    /* \"#utility.yul\":648:676   */\n  and\n    /* \"#utility.yul\":638:676   */\n  swap1\n  pop\n    /* \"#utility.yul\":580:682   */\n  swap2\n  swap1\n  pop\n  jump\t// out\n    /* \"#utility.yul\":688:868   */\ntag_26:\n    /* \"#utility.yul\":736:813   */\n  0x4e487b7100000000000000000000000000000000000000000000000000000000\n    /* \"#utility.yul\":733:734   */\n  0x00\n    /* \"#utility.yul\":726:814   */\n  mstore\n    /* \"#utility.yul\":833:837   */\n  0x41\n    /* \"#utility.yul\":830:831   */\n  0x04\n    /* \"#utility.yul\":823:838   */\n  mstore\n    /* \"#utility.yul\":857:861   */\n  0x24\n    /* \"#utility.yul\":854:855   */\n  0x00\n    /* \"#utility.yul\":847:862   */\n  revert\n    /* \"#utility.yul\":874:1155   */\ntag_27:\n    /* \"#utility.yul\":957:984   */\n  tag_50\n    /* \"#utility.yul\":979:983   */\n  dup3\n    /* \"#utility.yul\":957:984   */\n  tag_25\n  jump\t// in\ntag_50:\n    /* \"#utility.yul\":949:955   */\n  dup2\n    /* \"#utility.yul\":945:985   */\n  add\n    /* \"#utility.yul\":1087:1093   */\n  dup2\n    /* \"#utility.yul\":1075:1085   */\n  dup2\n    /* \"#utility.yul\":1072:1094   */\n  lt\n    /* \"#utility.yul\":1051:1069   */\n  0xffffffffffffffff\n    /* \"#utility.yul\":1039:1049   */\n  dup3\n    /* \"#utility.yul\":1036:1070   */\n  gt\n    /* \"#utility.yul\":1033:1095   */\n  or\n    /* \"#utility.yul\":1030:1118   */\n  iszero\n  tag_51\n  jumpi\n    /* \"#utility.yul\":1098:1116   */\n  tag_52\n  tag_26\n  jump\t// in\ntag_52:\n    /* \"#utility.yul\":1030:1118   */\ntag_51:\n    /* \"#utility.yul\":1138:1148   */\n  dup1\n    /* \"#utility.yul\":1134:1136   */\n  0x40\n    /* \"#utility.yul\":1127:1149   */\n  mstore\n    /* \"#utility.yul\":917:1155   */\n  pop\n    /* \"#utility.yul\":874:1155   */\n  pop\n  pop\n  jump\t// out\n    /* \"#utility.yul\":1161:1290   */\ntag_28:\n    /* \"#utility.yul\":1195:1201   */\n  0x00\n    /* \"#utility.yul\":1222:1242   */\n  tag_54\n  tag_20\n  jump\t// in\ntag_54:\n    /* \"#utility.yul\":1212:1242   */\n  swap1\n  pop\n    /* \"#utility.yul\":1251:1284   */\n  tag_55\n    /* \"#utility.yul\":1279:1283   */\n  dup3\n    /* \"#utility.yul\":1271:1277   */\n  dup3\n    /* \"#utility.yul\":1251:1284   */\n  tag_27\n  jump\t// in\ntag_55:\n    /* \"#utility.yul\":1161:1290   */\n  swap2\n  swap1\n  pop\n  jump\t// out\n    /* \"#utility.yul\":1296:1604   */\ntag_29:\n    /* \"#utility.yul\":1358:1362   */\n  0x00\n    /* \"#utility.yul\":1448:1466   */\n  0xffffffffffffffff\n    /* \"#utility.yul\":1440:1446   */\n  dup3\n    /* \"#utility.yul\":1437:1467   */\n  gt\n    /* \"#utility.yul\":1434:1490   */\n  iszero\n  tag_57\n  jumpi\n    /* \"#utility.yul\":1470:1488   */\n  tag_58\n  tag_26\n  jump\t// in\ntag_58:\n    /* \"#utility.yul\":1434:1490   */\ntag_57:\n    /* \"#utility.yul\":1508:1537   */\n  tag_59\n    /* \"#utility.yul\":1530:1536   */\n  dup3\n    /* \"#utility.yul\":1508:1537   */\n  tag_25\n  jump\t// in\ntag_59:\n    /* \"#utility.yul\":1500:1537   */\n  swap1\n  pop\n    /* \"#utility.yul\":1592:1596   */\n  0x20\n    /* \"#utility.yul\":1586:1590   */\n  dup2\n    /* \"#utility.yul\":1582:1597   */\n  add\n    /* \"#utility.yul\":1574:1597   */\n  swap1\n  pop\n    /* \"#utility.yul\":1296:1604   */\n  swap2\n  swap1\n  pop\n  jump\t// out\n    /* \"#utility.yul\":1610:1917   */\ntag_30:\n    /* \"#utility.yul\":1678:1679   */\n  0x00\n    /* \"#utility.yul\":1688:1801   */\ntag_61:\n    /* \"#utility.yul\":1702:1708   */\n  dup4\n    /* \"#utility.yul\":1699:1700   */\n  dup2\n    /* \"#utility.yul\":1696:1709   */\n  lt\n    /* \"#utility.yul\":1688:1801   */\n  iszero\n  tag_63\n  jumpi\n    /* \"#utility.yul\":1787:1788   */\n  dup1\n    /* \"#utility.yul\":1782:1785   */\n  dup3\n    /* \"#utility.yul\":1778:1789   */\n  add\n    /* \"#utility.yul\":1772:1790   */\n  mload\n    /* \"#utility.yul\":1768:1769   */\n  dup2\n    /* \"#utility.yul\":1763:1766   */\n  dup5\n    /* \"#utility.yul\":1759:1770   */\n  add\n    /* \"#utility.yul\":1752:1791   */\n  mstore\n    /* \"#utility.yul\":1724:1726   */\n  0x20\n    /* \"#utility.yul\":1721:1722   */\n  dup2\n    /* \"#utility.yul\":1717:1727   */\n  add\n    /* \"#utility.yul\":1712:1727   */\n  swap1\n  pop\n    /* \"#utility.yul\":1688:1801   */\n  jump(tag_61)\ntag_63:\n    /* \"#utility.yul\":1819:1825   */\n  dup4\n    /* \"#utility.yul\":1816:1817   */\n  dup2\n    /* \"#utility.yul\":1813:1826   */\n  gt\n    /* \"#utility.yul\":1810:1911   */\n  iszero\n  tag_64\n  jumpi\n    /* \"#utility.yul\":1899:1900   */\n  0x00\n    /* \"#utility.yul\":1890:1896   */\n  dup5\n    /* \"#utility.yul\":1885:1888   */\n  dup5\n    /* \"#utility.yul\":1881:1897   */\n  add\n    /* \"#utility.yul\":1874:1901   */\n  mstore\n    /* \"#utility.yul\":1810:1911   */\ntag_64:\n    /* \"#utility.yul\":1659:1917   */\n  pop\n    /* \"#utility.yul\":1610:1917   */\n  pop\n  pop\n  pop\n  jump\t// out\n    /* \"#utility.yul\":1923:2344   */\ntag_31:\n    /* \"#utility.yul\":2012:2017   */\n  0x00\n    /* \"#utility.yul\":2037:2103   */\n  tag_66\n    /* \"#utility.yul\":2053:2102   */\n  tag_67\n    /* \"#utility.yul\":2095:2101   */\n  dup5\n    /* \"#utility.yul\":2053:2102   */\n  tag_29\n  jump\t// in\ntag_67:\n    /* \"#utility.yul\":2037:2103   */\n  tag_28\n  jump\t// in\ntag_66:\n    /* \"#utility.yul\":2028:2103   */\n  swap1\n  pop\n    /* \"#utility.yul\":2126:2132   */\n  dup3\n    /* \"#utility.yul\":2119:2124   */\n  dup2\n    /* \"#utility.yul\":2112:2133   */\n  mstore\n    /* \"#utility.yul\":2164:2168   */\n  0x20\n    /* \"#utility.yul\":2157:2162   */\n  dup2\n    /* \"#utility.yul\":2153:2169   */\n  add\n    /* \"#utility.yul\":2202:2205   */\n  dup5\n    /* \"#utility.yul\":2193:2199   */\n  dup5\n    /* \"#utility.yul\":2188:2191   */\n  dup5\n    /* \"#utility.yul\":2184:2200   */\n  add\n    /* \"#utility.yul\":2181:2206   */\n  gt\n    /* \"#utility.yul\":2178:2290   */\n  iszero\n  tag_68\n  jumpi\n    /* \"#utility.yul\":2209:2288   */\n  tag_69\n  tag_24\n  jump\t// in\ntag_69:\n    /* \"#utility.yul\":2178:2290   */\ntag_68:\n    /* \"#utility.yul\":2299:2338   */\n  tag_70\n    /* \"#utility.yul\":2331:2337   */\n  dup5\n    /* \"#utility.yul\":2326:2329   */\n  dup3\n    /* \"#utility.yul\":2321:2324   */\n  dup6\n    /* \"#utility.yul\":2299:2338   */\n  tag_30\n  jump\t// in\ntag_70:\n    /* \"#utility.yul\":2018:2344   */\n  pop\n    /* \"#utility.yul\":1923:2344   */\n  swap4\n  swap3\n  pop\n  pop\n  pop\n  jump\t// out\n    /* \"#utility.yul\":2364:2719   */\ntag_32:\n    /* \"#utility.yul\":2431:2436   */\n  0x00\n    /* \"#utility.yul\":2480:2483   */\n  dup3\n    /* \"#utility.yul\":2473:2477   */\n  0x1f\n    /* \"#utility.yul\":2465:2471   */\n  dup4\n    /* \"#utility.yul\":2461:2478   */\n  add\n    /* \"#utility.yul\":2457:2484   */\n  slt\n    /* \"#utility.yul\":2447:2569   */\n  tag_72\n  jumpi\n    /* \"#utility.yul\":2488:2567   */\n  tag_73\n  tag_23\n  jump\t// in\ntag_73:\n    /* \"#utility.yul\":2447:2569   */\ntag_72:\n    /* \"#utility.yul\":2598:2604   */\n  dup2\n    /* \"#utility.yul\":2592:2605   */\n  mload\n    /* \"#utility.yul\":2623:2713   */\n  tag_74\n    /* \"#utility.yul\":2709:2712   */\n  dup5\n    /* \"#utility.yul\":2701:2707   */\n  dup3\n    /* \"#utility.yul\":2694:2698   */\n  0x20\n    /* \"#utility.yul\":2686:2692   */\n  dup7\n    /* \"#utility.yul\":2682:2699   */\n  add\n    /* \"#utility.yul\":2623:2713   */\n  tag_31\n  jump\t// in\ntag_74:\n    /* \"#utility.yul\":2614:2713   */\n  swap2\n  pop\n    /* \"#utility.yul\":2437:2719   */\n  pop\n    /* \"#utility.yul\":2364:2719   */\n  swap3\n  swap2\n  pop\n  pop\n  jump\t// out\n    /* \"#utility.yul\":2725:2802   */\ntag_33:\n    /* \"#utility.yul\":2762:2769   */\n  0x00\n    /* \"#utility.yul\":2791:2796   */\n  dup2\n    /* \"#utility.yul\":2780:2796   */\n  swap1\n  pop\n    /* \"#utility.yul\":2725:2802   */\n  swap2\n  swap1\n  pop\n  jump\t// out\n    /* \"#utility.yul\":2808:2930   */\ntag_34:\n    /* \"#utility.yul\":2881:2905   */\n  tag_77\n    /* \"#utility.yul\":2899:2904   */\n  dup2\n    /* \"#utility.yul\":2881:2905   */\n  tag_33\n  jump\t// in\ntag_77:\n    /* \"#utility.yul\":2874:2879   */\n  dup2\n    /* \"#utility.yul\":2871:2906   */\n  eq\n    /* \"#utility.yul\":2861:2924   */\n  tag_78\n  jumpi\n    /* \"#utility.yul\":2920:2921   */\n  0x00\n    /* \"#utility.yul\":2917:2918   */\n  dup1\n    /* \"#utility.yul\":2910:2922   */\n  revert\n    /* \"#utility.yul\":2861:2924   */\ntag_78:\n    /* \"#utility.yul\":2808:2930   */\n  pop\n  jump\t// out\n    /* \"#utility.yul\":2936:3079   */\ntag_35:\n    /* \"#utility.yul\":2993:2998   */\n  0x00\n    /* \"#utility.yul\":3024:3030   */\n  dup2\n    /* \"#utility.yul\":3018:3031   */\n  mload\n    /* \"#utility.yul\":3009:3031   */\n  swap1\n  pop\n    /* \"#utility.yul\":3040:3073   */\n  tag_80\n    /* \"#utility.yul\":3067:3072   */\n  dup2\n    /* \"#utility.yul\":3040:3073   */\n  tag_34\n  jump\t// in\ntag_80:\n    /* \"#utility.yul\":2936:3079   */\n  swap3\n  swap2\n  pop\n  pop\n  jump\t// out\n    /* \"#utility.yul\":3085:3211   */\ntag_36:\n    /* \"#utility.yul\":3122:3129   */\n  0x00\n    /* \"#utility.yul\":3162:3204   */\n  0xffffffffffffffffffffffffffffffffffffffff\n    /* \"#utility.yul\":3155:3160   */\n  dup3\n    /* \"#utility.yul\":3151:3205   */\n  and\n    /* \"#utility.yul\":3140:3205   */\n  swap1\n  pop\n    /* \"#utility.yul\":3085:3211   */\n  swap2\n  swap1\n  pop\n  jump\t// out\n    /* \"#utility.yul\":3217:3313   */\ntag_37:\n    /* \"#utility.yul\":3254:3261   */\n  0x00\n    /* \"#utility.yul\":3283:3307   */\n  tag_83\n    /* \"#utility.yul\":3301:3306   */\n  dup3\n    /* \"#utility.yul\":3283:3307   */\n  tag_36\n  jump\t// in\ntag_83:\n    /* \"#utility.yul\":3272:3307   */\n  swap1\n  pop\n    /* \"#utility.yul\":3217:3313   */\n  swap2\n  swap1\n  pop\n  jump\t// out\n    /* \"#utility.yul\":3319:3441   */\ntag_38:\n    /* \"#utility.yul\":3392:3416   */\n  tag_85\n    /* \"#utility.yul\":3410:3415   */\n  dup2\n    /* \"#utility.yul\":3392:3416   */\n  tag_37\n  jump\t// in\ntag_85:\n    /* \"#utility.yul\":3385:3390   */\n  dup2\n    /* \"#utility.yul\":3382:3417   */\n  eq\n    /* \"#utility.yul\":3372:3435   */\n  tag_86\n  jumpi\n    /* \"#utility.yul\":3431:3432   */\n  0x00\n    /* \"#utility.yul\":3428:3429   */\n  dup1\n    /* \"#utility.yul\":3421:3433   */\n  revert\n    /* \"#utility.yul\":3372:3435   */\ntag_86:\n    /* \"#utility.yul\":3319:3441   */\n  pop\n  jump\t// out\n    /* \"#utility.yul\":3447:3590   */\ntag_39:\n    /* \"#utility.yul\":3504:3509   */\n  0x00\n    /* \"#utility.yul\":3535:3541   */\n  dup2\n    /* \"#utility.yul\":3529:3542   */\n  mload\n    /* \"#utility.yul\":3520:3542   */\n  swap1\n  pop\n    /* \"#utility.yul\":3551:3584   */\n  tag_88\n    /* \"#utility.yul\":3578:3583   */\n  dup2\n    /* \"#utility.yul\":3551:3584   */\n  tag_38\n  jump\t// in\ntag_88:\n    /* \"#utility.yul\":3447:3590   */\n  swap3\n  swap2\n  pop\n  pop\n  jump\t// out\n    /* \"#utility.yul\":3596:4589   */\ntag_3:\n    /* \"#utility.yul\":3703:3709   */\n  0x00\n    /* \"#utility.yul\":3711:3717   */\n  dup1\n    /* \"#utility.yul\":3719:3725   */\n  0x00\n    /* \"#utility.yul\":3727:3733   */\n  dup1\n    /* \"#utility.yul\":3776:3779   */\n  0x80\n    /* \"#utility.yul\":3764:3773   */\n  dup6\n    /* \"#utility.yul\":3755:3762   */\n  dup8\n    /* \"#utility.yul\":3751:3774   */\n  sub\n    /* \"#utility.yul\":3747:3780   */\n  slt\n    /* \"#utility.yul\":3744:3864   */\n  iszero\n  tag_90\n  jumpi\n    /* \"#utility.yul\":3783:3862   */\n  tag_91\n  tag_21\n  jump\t// in\ntag_91:\n    /* \"#utility.yul\":3744:3864   */\ntag_90:\n    /* \"#utility.yul\":3924:3925   */\n  0x00\n    /* \"#utility.yul\":3913:3922   */\n  dup6\n    /* \"#utility.yul\":3909:3926   */\n  add\n    /* \"#utility.yul\":3903:3927   */\n  mload\n    /* \"#utility.yul\":3954:3972   */\n  0xffffffffffffffff\n    /* \"#utility.yul\":3946:3952   */\n  dup2\n    /* \"#utility.yul\":3943:3973   */\n  gt\n    /* \"#utility.yul\":3940:4057   */\n  iszero\n  tag_92\n  jumpi\n    /* \"#utility.yul\":3976:4055   */\n  tag_93\n  tag_22\n  jump\t// in\ntag_93:\n    /* \"#utility.yul\":3940:4057   */\ntag_92:\n    /* \"#utility.yul\":4081:4155   */\n  tag_94\n    /* \"#utility.yul\":4147:4154   */\n  dup8\n    /* \"#utility.yul\":4138:4144   */\n  dup3\n    /* \"#utility.yul\":4127:4136   */\n  dup9\n    /* \"#utility.yul\":4123:4145   */\n  add\n    /* \"#utility.yul\":4081:4155   */\n  tag_32\n  jump\t// in\ntag_94:\n    /* \"#utility.yul\":4071:4155   */\n  swap5\n  pop\n    /* \"#utility.yul\":3874:4165   */\n  pop\n    /* \"#utility.yul\":4204:4206   */\n  0x20\n    /* \"#utility.yul\":4230:4294   */\n  tag_95\n    /* \"#utility.yul\":4286:4293   */\n  dup8\n    /* \"#utility.yul\":4277:4283   */\n  dup3\n    /* \"#utility.yul\":4266:4275   */\n  dup9\n    /* \"#utility.yul\":4262:4284   */\n  add\n    /* \"#utility.yul\":4230:4294   */\n  tag_35\n  jump\t// in\ntag_95:\n    /* \"#utility.yul\":4220:4294   */\n  swap4\n  pop\n    /* \"#utility.yul\":4175:4304   */\n  pop\n    /* \"#utility.yul\":4343:4345   */\n  0x40\n    /* \"#utility.yul\":4369:4433   */\n  tag_96\n    /* \"#utility.yul\":4425:4432   */\n  dup8\n    /* \"#utility.yul\":4416:4422   */\n  dup3\n    /* \"#utility.yul\":4405:4414   */\n  dup9\n    /* \"#utility.yul\":4401:4423   */\n  add\n    /* \"#utility.yul\":4369:4433   */\n  tag_35\n  jump\t// in\ntag_96:\n    /* \"#utility.yul\":4359:4433   */\n  swap3\n  pop\n    /* \"#utility.yul\":4314:4443   */\n  pop\n    /* \"#utility.yul\":4482:4484   */\n  0x60\n    /* \"#utility.yul\":4508:4572   */\n  tag_97\n    /* \"#utility.yul\":4564:4571   */\n  dup8\n    /* \"#utility.yul\":4555:4561   */\n  dup3\n    /* \"#utility.yul\":4544:4553   */\n  dup9\n    /* \"#utility.yul\":4540:4562   */\n  add\n    /* \"#utility.yul\":4508:4572   */\n  tag_39\n  jump\t// in\ntag_97:\n    /* \"#utility.yul\":4498:4572   */\n  swap2\n  pop\n    /* \"#utility.yul\":4453:4582   */\n  pop\n    /* \"#utility.yul\":3596:4589   */\n  swap3\n  swap6\n  swap2\n  swap5\n  pop\n  swap3\n  pop\n  jump\t// out\n    /* \"#utility.yul\":4595:4775   */\ntag_40:\n    /* \"#utility.yul\":4643:4720   */\n  0x4e487b7100000000000000000000000000000000000000000000000000000000\n    /* \"#utility.yul\":4640:4641   */\n  0x00\n    /* \"#utility.yul\":4633:4721   */\n  mstore\n    /* \"#utility.yul\":4740:4744   */\n  0x22\n    /* \"#utility.yul\":4737:4738   */\n  0x04\n    /* \"#utility.yul\":4730:4745   */\n  mstore\n    /* \"#utility.yul\":4764:4768   */\n  0x24\n    /* \"#utility.yul\":4761:4762   */\n  0x00\n    /* \"#utility.yul\":4754:4769   */\n  revert\n    /* \"#utility.yul\":4781:5101   */\ntag_10:\n    /* \"#utility.yul\":4825:4831   */\n  0x00\n    /* \"#utility.yul\":4862:4863   */\n  0x02\n    /* \"#utility.yul\":4856:4860   */\n  dup3\n    /* \"#utility.yul\":4852:4864   */\n  div\n    /* \"#utility.yul\":4842:4864   */\n  swap1\n  pop\n    /* \"#utility.yul\":4909:4910   */\n  0x01\n    /* \"#utility.yul\":4903:4907   */\n  dup3\n    /* \"#utility.yul\":4899:4911   */\n  and\n    /* \"#utility.yul\":4930:4948   */\n  dup1\n    /* \"#utility.yul\":4920:5001   */\n  tag_100\n  jumpi\n    /* \"#utility.yul\":4986:4990   */\n  0x7f\n    /* \"#utility.yul\":4978:4984   */\n  dup3\n    /* \"#utility.yul\":4974:4991   */\n  and\n    /* \"#utility.yul\":4964:4991   */\n  swap2\n  pop\n    /* \"#utility.yul\":4920:5001   */\ntag_100:\n    /* \"#utility.yul\":5048:5050   */\n  0x20\n    /* \"#utility.yul\":5040:5046   */\n  dup3\n    /* \"#utility.yul\":5037:5051   */\n  lt\n    /* \"#utility.yul\":5017:5035   */\n  dup2\n    /* \"#utility.yul\":5014:5052   */\n  eq\n    /* \"#utility.yul\":5011:5095   */\n  iszero\n  tag_101\n  jumpi\n    /* \"#utility.yul\":5067:5085   */\n  tag_102\n  tag_40\n  jump\t// in\ntag_102:\n    /* \"#utility.yul\":5011:5095   */\ntag_101:\n    /* \"#utility.yul\":4832:5101   */\n  pop\n    /* \"#utility.yul\":4781:5101   */\n  swap2\n  swap1\n  pop\n  jump\t// out\n    /* \"KickstarterCampaign.sol\":74:3075   */\ntag_8:\n  dataSize(sub_0)\n  dup1\n  dataOffset(sub_0)\n  0x00\n  codecopy\n  0x00\n  return\nstop\n\nsub_0: assembly {\n        /* \"KickstarterCampaign.sol\":74:3075   */\n      mstore(0x40, 0x80)\n      jumpi(tag_1, lt(calldatasize, 0x04))\n      shr(0xe0, calldataload(0x00))\n      dup1\n      0x700127ef\n      gt\n      tag_16\n      jumpi\n      dup1\n      0x9fb42b1f\n      gt\n      tag_17\n      jumpi\n      dup1\n      0x9fb42b1f\n      eq\n      tag_12\n      jumpi\n      dup1\n      0xb39e12cf\n      eq\n      tag_13\n      jumpi\n      dup1\n      0xcf97e294\n      eq\n      tag_14\n      jumpi\n      dup1\n      0xd7bb99ba\n      eq\n      tag_15\n      jumpi\n      jump(tag_1)\n    tag_17:\n      dup1\n      0x700127ef\n      eq\n      tag_9\n      jumpi\n      dup1\n      0x7a3a0e84\n      eq\n      tag_10\n      jumpi\n      dup1\n      0x937e09b1\n      eq\n      tag_11\n      jumpi\n      jump(tag_1)\n    tag_16:\n      dup1\n      0x30559591\n      gt\n      tag_18\n      jumpi\n      dup1\n      0x30559591\n      eq\n      tag_5\n      jumpi\n      dup1\n      0x3410452a\n      eq\n      tag_6\n      jumpi\n      dup1\n      0x4051ddac\n      eq\n      tag_7\n      jumpi\n      dup1\n      0x6c60a942\n      eq\n      tag_8\n      jumpi\n      jump(tag_1)\n    tag_18:\n      dup1\n      0x031b3677\n      eq\n      tag_2\n      jumpi\n      dup1\n      0x0724fda9\n      eq\n      tag_3\n      jumpi\n      dup1\n      0x13a2e117\n      eq\n      tag_4\n      jumpi\n    tag_1:\n      0x00\n      dup1\n      revert\n        /* \"KickstarterCampaign.sol\":248:287   */\n    tag_2:\n      callvalue\n      dup1\n      iszero\n      tag_19\n      jumpi\n      0x00\n      dup1\n      revert\n    tag_19:\n      pop\n      tag_20\n      0x04\n      dup1\n      calldatasize\n      sub\n      dup2\n      add\n      swap1\n      tag_21\n      swap2\n      swap1\n      tag_22\n      jump\t// in\n    tag_21:\n      tag_23\n      jump\t// in\n    tag_20:\n      mload(0x40)\n      tag_24\n      swap2\n      swap1\n      tag_25\n      jump\t// in\n    tag_24:\n      mload(0x40)\n      dup1\n      swap2\n      sub\n      swap1\n      return\n        /* \"KickstarterCampaign.sol\":147:173   */\n    tag_3:\n      callvalue\n      dup1\n      iszero\n      tag_26\n      jumpi\n      0x00\n      dup1\n      revert\n    tag_26:\n      pop\n      tag_27\n      tag_28\n      jump\t// in\n    tag_27:\n      mload(0x40)\n      tag_29\n      swap2\n      swap1\n      tag_30\n      jump\t// in\n    tag_29:\n      mload(0x40)\n      dup1\n      swap2\n      sub\n      swap1\n      return\n        /* \"KickstarterCampaign.sol\":294:318   */\n    tag_4:\n      callvalue\n      dup1\n      iszero\n      tag_31\n      jumpi\n      0x00\n      dup1\n      revert\n    tag_31:\n      pop\n      tag_32\n      tag_33\n      jump\t// in\n    tag_32:\n      mload(0x40)\n      tag_34\n      swap2\n      swap1\n      tag_25\n      jump\t// in\n    tag_34:\n      mload(0x40)\n      dup1\n      swap2\n      sub\n      swap1\n      return\n        /* \"KickstarterCampaign.sol\":1469:1852   */\n    tag_5:\n      callvalue\n      dup1\n      iszero\n      tag_35\n      jumpi\n      0x00\n      dup1\n      revert\n    tag_35:\n      pop\n      tag_36\n      0x04\n      dup1\n      calldatasize\n      sub\n      dup2\n      add\n      swap1\n      tag_37\n      swap2\n      swap1\n      tag_38\n      jump\t// in\n    tag_37:\n      tag_39\n      jump\t// in\n    tag_36:\n      stop\n        /* \"KickstarterCampaign.sol\":2645:2737   */\n    tag_6:\n      callvalue\n      dup1\n      iszero\n      tag_40\n      jumpi\n      0x00\n      dup1\n      revert\n    tag_40:\n      pop\n      tag_41\n      tag_42\n      jump\t// in\n    tag_41:\n      mload(0x40)\n      tag_43\n      swap2\n      swap1\n      tag_25\n      jump\t// in\n    tag_43:\n      mload(0x40)\n      dup1\n      swap2\n      sub\n      swap1\n      return\n        /* \"KickstarterCampaign.sol\":2325:2637   */\n    tag_7:\n      callvalue\n      dup1\n      iszero\n      tag_44\n      jumpi\n      0x00\n      dup1\n      revert\n    tag_44:\n      pop\n      tag_45\n      tag_46\n      jump\t// in\n    tag_45:\n      mload(0x40)\n      tag_47\n      swap8\n      swap7\n      swap6\n      swap5\n      swap4\n      swap3\n      swap2\n      swap1\n      tag_48\n      jump\t// in\n    tag_47:\n      mload(0x40)\n      dup1\n      swap2\n      sub\n      swap1\n      return\n        /* \"KickstarterCampaign.sol\":409:465   */\n    tag_8:\n      callvalue\n      dup1\n      iszero\n      tag_49\n      jumpi\n      0x00\n      dup1\n      revert\n    tag_49:\n      pop\n      tag_50\n      0x04\n      dup1\n      calldatasize\n      sub\n      dup2\n      add\n      swap1\n      tag_51\n      swap2\n      swap1\n      tag_38\n      jump\t// in\n    tag_51:\n      tag_52\n      jump\t// in\n    tag_50:\n      mload(0x40)\n      tag_53\n      swap6\n      swap5\n      swap4\n      swap3\n      swap2\n      swap1\n      tag_54\n      jump\t// in\n    tag_53:\n      mload(0x40)\n      dup1\n      swap2\n      sub\n      swap1\n      return\n        /* \"KickstarterCampaign.sol\":1860:2317   */\n    tag_9:\n      callvalue\n      dup1\n      iszero\n      tag_55\n      jumpi\n      0x00\n      dup1\n      revert\n    tag_55:\n      pop\n      tag_56\n      0x04\n      dup1\n      calldatasize\n      sub\n      dup2\n      add\n      swap1\n      tag_57\n      swap2\n      swap1\n      tag_38\n      jump\t// in\n    tag_57:\n      tag_58\n      jump\t// in\n    tag_56:\n      stop\n        /* \"KickstarterCampaign.sol\":218:241   */\n    tag_10:\n      callvalue\n      dup1\n      iszero\n      tag_59\n      jumpi\n      0x00\n      dup1\n      revert\n    tag_59:\n      pop\n      tag_60\n      tag_61\n      jump\t// in\n    tag_60:\n      mload(0x40)\n      tag_62\n      swap2\n      swap1\n      tag_25\n      jump\t// in\n    tag_62:\n      mload(0x40)\n      dup1\n      swap2\n      sub\n      swap1\n      return\n        /* \"KickstarterCampaign.sol\":180:211   */\n    tag_11:\n      callvalue\n      dup1\n      iszero\n      tag_63\n      jumpi\n      0x00\n      dup1\n      revert\n    tag_63:\n      pop\n      tag_64\n      tag_65\n      jump\t// in\n    tag_64:\n      mload(0x40)\n      tag_66\n      swap2\n      swap1\n      tag_25\n      jump\t// in\n    tag_66:\n      mload(0x40)\n      dup1\n      swap2\n      sub\n      swap1\n      return\n        /* \"KickstarterCampaign.sol\":379:402   */\n    tag_12:\n      callvalue\n      dup1\n      iszero\n      tag_67\n      jumpi\n      0x00\n      dup1\n      revert\n    tag_67:\n      pop\n      tag_68\n      tag_69\n      jump\t// in\n    tag_68:\n      mload(0x40)\n      tag_70\n      swap2\n      swap1\n      tag_25\n      jump\t// in\n    tag_70:\n      mload(0x40)\n      dup1\n      swap2\n      sub\n      swap1\n      return\n        /* \"KickstarterCampaign.sol\":110:140   */\n    tag_13:\n      callvalue\n      dup1\n      iszero\n      tag_71\n      jumpi\n      0x00\n      dup1\n      revert\n    tag_71:\n      pop\n      tag_72\n      tag_73\n      jump\t// in\n    tag_72:\n      mload(0x40)\n      tag_74\n      swap2\n      swap1\n      tag_75\n      jump\t// in\n    tag_74:\n      mload(0x40)\n      dup1\n      swap2\n      sub\n      swap1\n      return\n        /* \"KickstarterCampaign.sol\":953:1461   */\n    tag_14:\n      callvalue\n      dup1\n      iszero\n      tag_76\n      jumpi\n      0x00\n      dup1\n      revert\n    tag_76:\n      pop\n      tag_77\n      0x04\n      dup1\n      calldatasize\n      sub\n      dup2\n      add\n      swap1\n      tag_78\n      swap2\n      swap1\n      tag_79\n      jump\t// in\n    tag_78:\n      tag_80\n      jump\t// in\n    tag_77:\n      mload(0x40)\n      tag_81\n      swap2\n      swap1\n      tag_25\n      jump\t// in\n    tag_81:\n      mload(0x40)\n      dup1\n      swap2\n      sub\n      swap1\n      return\n        /* \"KickstarterCampaign.sol\":720:945   */\n    tag_15:\n      tag_82\n      tag_83\n      jump\t// in\n    tag_82:\n      stop\n        /* \"KickstarterCampaign.sol\":248:287   */\n    tag_23:\n      mstore(0x20, 0x04)\n      dup1\n      0x00\n      mstore\n      keccak256(0x00, 0x40)\n      0x00\n      swap2\n      pop\n      swap1\n      pop\n      sload\n      dup2\n      jump\t// out\n        /* \"KickstarterCampaign.sol\":147:173   */\n    tag_28:\n      0x01\n      dup1\n      sload\n      tag_84\n      swap1\n      tag_85\n      jump\t// in\n    tag_84:\n      dup1\n      0x1f\n      add\n      0x20\n      dup1\n      swap2\n      div\n      mul\n      0x20\n      add\n      mload(0x40)\n      swap1\n      dup2\n      add\n      0x40\n      mstore\n      dup1\n      swap3\n      swap2\n      swap1\n      dup2\n      dup2\n      mstore\n      0x20\n      add\n      dup3\n      dup1\n      sload\n      tag_86\n      swap1\n      tag_85\n      jump\t// in\n    tag_86:\n      dup1\n      iszero\n      tag_87\n      jumpi\n      dup1\n      0x1f\n      lt\n      tag_88\n      jumpi\n      0x0100\n      dup1\n      dup4\n      sload\n      div\n      mul\n      dup4\n      mstore\n      swap2\n      0x20\n      add\n      swap2\n      jump(tag_87)\n    tag_88:\n      dup3\n      add\n      swap2\n      swap1\n      0x00\n      mstore\n      keccak256(0x00, 0x20)\n      swap1\n    tag_89:\n      dup2\n      sload\n      dup2\n      mstore\n      swap1\n      0x01\n      add\n      swap1\n      0x20\n      add\n      dup1\n      dup4\n      gt\n      tag_89\n      jumpi\n      dup3\n      swap1\n      sub\n      0x1f\n      and\n      dup3\n      add\n      swap2\n    tag_87:\n      pop\n      pop\n      pop\n      pop\n      pop\n      dup2\n      jump\t// out\n        /* \"KickstarterCampaign.sol\":294:318   */\n    tag_33:\n      sload(0x05)\n      dup2\n      jump\t// out\n        /* \"KickstarterCampaign.sol\":1469:1852   */\n    tag_39:\n        /* \"KickstarterCampaign.sol\":2800:2815   */\n      0x00\n      dup1\n      sload\n      swap1\n      0x0100\n      exp\n      swap1\n      div\n      0xffffffffffffffffffffffffffffffffffffffff\n      and\n        /* \"KickstarterCampaign.sol\":2786:2815   */\n      0xffffffffffffffffffffffffffffffffffffffff\n      and\n        /* \"KickstarterCampaign.sol\":2786:2796   */\n      caller\n        /* \"KickstarterCampaign.sol\":2786:2815   */\n      0xffffffffffffffffffffffffffffffffffffffff\n      and\n      eq\n        /* \"KickstarterCampaign.sol\":2778:2816   */\n      tag_91\n      jumpi\n      0x00\n      dup1\n      revert\n    tag_91:\n        /* \"KickstarterCampaign.sol\":1546:1584   */\n      0x00\n        /* \"KickstarterCampaign.sol\":1587:1603   */\n      0x07\n        /* \"KickstarterCampaign.sol\":1587:1614   */\n      0x00\n        /* \"KickstarterCampaign.sol\":1604:1613   */\n      dup4\n        /* \"KickstarterCampaign.sol\":1587:1614   */\n      dup2\n      mstore\n      0x20\n      add\n      swap1\n      dup2\n      mstore\n      0x20\n      add\n      0x00\n      keccak256\n        /* \"KickstarterCampaign.sol\":1546:1614   */\n      swap1\n      pop\n        /* \"KickstarterCampaign.sol\":1636:1650   */\n      dup1\n        /* \"KickstarterCampaign.sol\":1636:1659   */\n      0x02\n      add\n      0x14\n      swap1\n      sload\n      swap1\n      0x0100\n      exp\n      swap1\n      div\n      0xff\n      and\n        /* \"KickstarterCampaign.sol\":1635:1659   */\n      iszero\n        /* \"KickstarterCampaign.sol\":1627:1660   */\n      tag_93\n      jumpi\n      0x00\n      dup1\n      revert\n    tag_93:\n        /* \"KickstarterCampaign.sol\":1726:1727   */\n      0x02\n        /* \"KickstarterCampaign.sol\":1711:1723   */\n      sload(0x05)\n        /* \"KickstarterCampaign.sol\":1711:1727   */\n      tag_94\n      swap2\n      swap1\n      tag_95\n      jump\t// in\n    tag_94:\n        /* \"KickstarterCampaign.sol\":1679:1693   */\n      dup2\n        /* \"KickstarterCampaign.sol\":1679:1707   */\n      0x03\n      add\n      sload\n        /* \"KickstarterCampaign.sol\":1679:1728   */\n      gt\n        /* \"KickstarterCampaign.sol\":1671:1729   */\n      tag_96\n      jumpi\n      0x00\n      dup1\n      revert\n    tag_96:\n        /* \"KickstarterCampaign.sol\":1742:1756   */\n      dup1\n        /* \"KickstarterCampaign.sol\":1742:1766   */\n      0x02\n      add\n      0x00\n      swap1\n      sload\n      swap1\n      0x0100\n      exp\n      swap1\n      div\n      0xffffffffffffffffffffffffffffffffffffffff\n      and\n        /* \"KickstarterCampaign.sol\":1742:1775   */\n      0xffffffffffffffffffffffffffffffffffffffff\n      and\n        /* \"KickstarterCampaign.sol\":1742:1803   */\n      0x08fc\n        /* \"KickstarterCampaign.sol\":1776:1790   */\n      dup3\n        /* \"KickstarterCampaign.sol\":1776:1802   */\n      0x01\n      add\n      sload\n        /* \"KickstarterCampaign.sol\":1742:1803   */\n      swap1\n      dup2\n      iszero\n      mul\n      swap1\n      mload(0x40)\n      0x00\n      mload(0x40)\n      dup1\n      dup4\n      sub\n      dup2\n      dup6\n      dup9\n      dup9\n      call\n      swap4\n      pop\n      pop\n      pop\n      pop\n      iszero\n      dup1\n      iszero\n      tag_98\n      jumpi\n      returndatasize\n      0x00\n      dup1\n      returndatacopy\n      revert(0x00, returndatasize)\n    tag_98:\n      pop\n        /* \"KickstarterCampaign.sol\":1840:1844   */\n      0x01\n        /* \"KickstarterCampaign.sol\":1814:1828   */\n      dup2\n        /* \"KickstarterCampaign.sol\":1814:1837   */\n      0x02\n      add\n      0x14\n        /* \"KickstarterCampaign.sol\":1814:1844   */\n      0x0100\n      exp\n      dup2\n      sload\n      dup2\n      0xff\n      mul\n      not\n      and\n      swap1\n      dup4\n      iszero\n      iszero\n      mul\n      or\n      swap1\n      sstore\n      pop\n        /* \"KickstarterCampaign.sol\":1535:1852   */\n      pop\n        /* \"KickstarterCampaign.sol\":1469:1852   */\n      pop\n      jump\t// out\n        /* \"KickstarterCampaign.sol\":2645:2737   */\n    tag_42:\n        /* \"KickstarterCampaign.sol\":2694:2698   */\n      0x00\n        /* \"KickstarterCampaign.sol\":2718:2729   */\n      sload(0x06)\n        /* \"KickstarterCampaign.sol\":2711:2729   */\n      swap1\n      pop\n        /* \"KickstarterCampaign.sol\":2645:2737   */\n      swap1\n      jump\t// out\n        /* \"KickstarterCampaign.sol\":2325:2637   */\n    tag_46:\n        /* \"KickstarterCampaign.sol\":2368:2372   */\n      0x00\n        /* \"KickstarterCampaign.sol\":2374:2378   */\n      dup1\n        /* \"KickstarterCampaign.sol\":2380:2384   */\n      0x00\n        /* \"KickstarterCampaign.sol\":2386:2390   */\n      dup1\n        /* \"KickstarterCampaign.sol\":2392:2399   */\n      0x00\n        /* \"KickstarterCampaign.sol\":2401:2414   */\n      0x60\n        /* \"KickstarterCampaign.sol\":2416:2420   */\n      0x00\n        /* \"KickstarterCampaign.sol\":2451:2470   */\n      sload(0x02)\n        /* \"KickstarterCampaign.sol\":2481:2502   */\n      selfbalance\n        /* \"KickstarterCampaign.sol\":2513:2524   */\n      sload(0x06)\n        /* \"KickstarterCampaign.sol\":2535:2547   */\n      sload(0x05)\n        /* \"KickstarterCampaign.sol\":2558:2573   */\n      0x00\n      dup1\n      sload\n      swap1\n      0x0100\n      exp\n      swap1\n      div\n      0xffffffffffffffffffffffffffffffffffffffff\n      and\n        /* \"KickstarterCampaign.sol\":2584:2596   */\n      0x01\n        /* \"KickstarterCampaign.sol\":2607:2618   */\n      sload(0x03)\n        /* \"KickstarterCampaign.sol\":2433:2629   */\n      dup2\n      dup1\n      sload\n      tag_101\n      swap1\n      tag_85\n      jump\t// in\n    tag_101:\n      dup1\n      0x1f\n      add\n      0x20\n      dup1\n      swap2\n      div\n      mul\n      0x20\n      add\n      mload(0x40)\n      swap1\n      dup2\n      add\n      0x40\n      mstore\n      dup1\n      swap3\n      swap2\n      swap1\n      dup2\n      dup2\n      mstore\n      0x20\n      add\n      dup3\n      dup1\n      sload\n      tag_102\n      swap1\n      tag_85\n      jump\t// in\n    tag_102:\n      dup1\n      iszero\n      tag_103\n      jumpi\n      dup1\n      0x1f\n      lt\n      tag_104\n      jumpi\n      0x0100\n      dup1\n      dup4\n      sload\n      div\n      mul\n      dup4\n      mstore\n      swap2\n      0x20\n      add\n      swap2\n      jump(tag_103)\n    tag_104:\n      dup3\n      add\n      swap2\n      swap1\n      0x00\n      mstore\n      keccak256(0x00, 0x20)\n      swap1\n    tag_105:\n      dup2\n      sload\n      dup2\n      mstore\n      swap1\n      0x01\n      add\n      swap1\n      0x20\n      add\n      dup1\n      dup4\n      gt\n      tag_105\n      jumpi\n      dup3\n      swap1\n      sub\n      0x1f\n      and\n      dup3\n      add\n      swap2\n    tag_103:\n      pop\n      pop\n      pop\n      pop\n      pop\n      swap2\n      pop\n      swap7\n      pop\n      swap7\n      pop\n      swap7\n      pop\n      swap7\n      pop\n      swap7\n      pop\n      swap7\n      pop\n      swap7\n      pop\n        /* \"KickstarterCampaign.sol\":2325:2637   */\n      swap1\n      swap2\n      swap3\n      swap4\n      swap5\n      swap6\n      swap7\n      jump\t// out\n        /* \"KickstarterCampaign.sol\":409:465   */\n    tag_52:\n      mstore(0x20, 0x07)\n      dup1\n      0x00\n      mstore\n      keccak256(0x00, 0x40)\n      0x00\n      swap2\n      pop\n      swap1\n      pop\n      dup1\n      0x00\n      add\n      dup1\n      sload\n      tag_106\n      swap1\n      tag_85\n      jump\t// in\n    tag_106:\n      dup1\n      0x1f\n      add\n      0x20\n      dup1\n      swap2\n      div\n      mul\n      0x20\n      add\n      mload(0x40)\n      swap1\n      dup2\n      add\n      0x40\n      mstore\n      dup1\n      swap3\n      swap2\n      swap1\n      dup2\n      dup2\n      mstore\n      0x20\n      add\n      dup3\n      dup1\n      sload\n      tag_107\n      swap1\n      tag_85\n      jump\t// in\n    tag_107:\n      dup1\n      iszero\n      tag_108\n      jumpi\n      dup1\n      0x1f\n      lt\n      tag_109\n      jumpi\n      0x0100\n      dup1\n      dup4\n      sload\n      div\n      mul\n      dup4\n      mstore\n      swap2\n      0x20\n      add\n      swap2\n      jump(tag_108)\n    tag_109:\n      dup3\n      add\n      swap2\n      swap1\n      0x00\n      mstore\n      keccak256(0x00, 0x20)\n      swap1\n    tag_110:\n      dup2\n      sload\n      dup2\n      mstore\n      swap1\n      0x01\n      add\n      swap1\n      0x20\n      add\n      dup1\n      dup4\n      gt\n      tag_110\n      jumpi\n      dup3\n      swap1\n      sub\n      0x1f\n      and\n      dup3\n      add\n      swap2\n    tag_108:\n      pop\n      pop\n      pop\n      pop\n      pop\n      swap1\n      dup1\n      0x01\n      add\n      sload\n      swap1\n      dup1\n      0x02\n      add\n      0x00\n      swap1\n      sload\n      swap1\n      0x0100\n      exp\n      swap1\n      div\n      0xffffffffffffffffffffffffffffffffffffffff\n      and\n      swap1\n      dup1\n      0x02\n      add\n      0x14\n      swap1\n      sload\n      swap1\n      0x0100\n      exp\n      swap1\n      div\n      0xff\n      and\n      swap1\n      dup1\n      0x03\n      add\n      sload\n      swap1\n      pop\n      dup6\n      jump\t// out\n        /* \"KickstarterCampaign.sol\":1860:2317   */\n    tag_58:\n        /* \"KickstarterCampaign.sol\":1987:1988   */\n      0x00\n        /* \"KickstarterCampaign.sol\":1965:1972   */\n      0x04\n        /* \"KickstarterCampaign.sol\":1965:1984   */\n      0x00\n        /* \"KickstarterCampaign.sol\":1973:1983   */\n      caller\n        /* \"KickstarterCampaign.sol\":1965:1984   */\n      0xffffffffffffffffffffffffffffffffffffffff\n      and\n      0xffffffffffffffffffffffffffffffffffffffff\n      and\n      dup2\n      mstore\n      0x20\n      add\n      swap1\n      dup2\n      mstore\n      0x20\n      add\n      0x00\n      keccak256\n      sload\n        /* \"KickstarterCampaign.sol\":1965:1988   */\n      gt\n        /* \"KickstarterCampaign.sol\":1957:1989   */\n      tag_112\n      jumpi\n      0x00\n      dup1\n      revert\n    tag_112:\n        /* \"KickstarterCampaign.sol\":2002:2040   */\n      0x00\n        /* \"KickstarterCampaign.sol\":2043:2059   */\n      0x07\n        /* \"KickstarterCampaign.sol\":2043:2070   */\n      0x00\n        /* \"KickstarterCampaign.sol\":2060:2069   */\n      dup4\n        /* \"KickstarterCampaign.sol\":2043:2070   */\n      dup2\n      mstore\n      0x20\n      add\n      swap1\n      dup2\n      mstore\n      0x20\n      add\n      0x00\n      keccak256\n        /* \"KickstarterCampaign.sol\":2002:2070   */\n      swap1\n      pop\n        /* \"KickstarterCampaign.sol\":2160:2174   */\n      dup1\n        /* \"KickstarterCampaign.sol\":2160:2191   */\n      0x04\n      add\n        /* \"KickstarterCampaign.sol\":2160:2203   */\n      0x00\n        /* \"KickstarterCampaign.sol\":2192:2202   */\n      caller\n        /* \"KickstarterCampaign.sol\":2160:2203   */\n      0xffffffffffffffffffffffffffffffffffffffff\n      and\n      0xffffffffffffffffffffffffffffffffffffffff\n      and\n      dup2\n      mstore\n      0x20\n      add\n      swap1\n      dup2\n      mstore\n      0x20\n      add\n      0x00\n      keccak256\n      0x00\n      swap1\n      sload\n      swap1\n      0x0100\n      exp\n      swap1\n      div\n      0xff\n      and\n        /* \"KickstarterCampaign.sol\":2158:2204   */\n      iszero\n        /* \"KickstarterCampaign.sol\":2150:2205   */\n      tag_113\n      jumpi\n      0x00\n      dup1\n      revert\n    tag_113:\n        /* \"KickstarterCampaign.sol\":2264:2268   */\n      0x01\n        /* \"KickstarterCampaign.sol\":2218:2232   */\n      dup2\n        /* \"KickstarterCampaign.sol\":2218:2249   */\n      0x04\n      add\n        /* \"KickstarterCampaign.sol\":2218:2261   */\n      0x00\n        /* \"KickstarterCampaign.sol\":2250:2260   */\n      caller\n        /* \"KickstarterCampaign.sol\":2218:2261   */\n      0xffffffffffffffffffffffffffffffffffffffff\n      and\n      0xffffffffffffffffffffffffffffffffffffffff\n      and\n      dup2\n      mstore\n      0x20\n      add\n      swap1\n      dup2\n      mstore\n      0x20\n      add\n      0x00\n      keccak256\n      0x00\n        /* \"KickstarterCampaign.sol\":2218:2268   */\n      0x0100\n      exp\n      dup2\n      sload\n      dup2\n      0xff\n      mul\n      not\n      and\n      swap1\n      dup4\n      iszero\n      iszero\n      mul\n      or\n      swap1\n      sstore\n      pop\n        /* \"KickstarterCampaign.sol\":2279:2293   */\n      dup1\n        /* \"KickstarterCampaign.sol\":2279:2307   */\n      0x03\n      add\n      0x00\n        /* \"KickstarterCampaign.sol\":2279:2309   */\n      dup2\n      sload\n      dup1\n      swap3\n      swap2\n      swap1\n      tag_114\n      swap1\n      tag_115\n      jump\t// in\n    tag_114:\n      swap2\n      swap1\n      pop\n      sstore\n      pop\n        /* \"KickstarterCampaign.sol\":1907:2317   */\n      pop\n        /* \"KickstarterCampaign.sol\":1860:2317   */\n      pop\n      jump\t// out\n        /* \"KickstarterCampaign.sol\":218:241   */\n    tag_61:\n      sload(0x03)\n      dup2\n      jump\t// out\n        /* \"KickstarterCampaign.sol\":180:211   */\n    tag_65:\n      sload(0x02)\n      dup2\n      jump\t// out\n        /* \"KickstarterCampaign.sol\":379:402   */\n    tag_69:\n      sload(0x06)\n      dup2\n      jump\t// out\n        /* \"KickstarterCampaign.sol\":110:140   */\n    tag_73:\n      0x00\n      dup1\n      sload\n      swap1\n      0x0100\n      exp\n      swap1\n      div\n      0xffffffffffffffffffffffffffffffffffffffff\n      and\n      dup2\n      jump\t// out\n        /* \"KickstarterCampaign.sol\":953:1461   */\n    tag_80:\n        /* \"KickstarterCampaign.sol\":1074:1088   */\n      0x00\n        /* \"KickstarterCampaign.sol\":2800:2815   */\n      dup1\n      0x00\n      swap1\n      sload\n      swap1\n      0x0100\n      exp\n      swap1\n      div\n      0xffffffffffffffffffffffffffffffffffffffff\n      and\n        /* \"KickstarterCampaign.sol\":2786:2815   */\n      0xffffffffffffffffffffffffffffffffffffffff\n      and\n        /* \"KickstarterCampaign.sol\":2786:2796   */\n      caller\n        /* \"KickstarterCampaign.sol\":2786:2815   */\n      0xffffffffffffffffffffffffffffffffffffffff\n      and\n      eq\n        /* \"KickstarterCampaign.sol\":2778:2816   */\n      tag_117\n      jumpi\n      0x00\n      dup1\n      revert\n    tag_117:\n        /* \"KickstarterCampaign.sol\":1112:1123   */\n      0x06\n      0x00\n        /* \"KickstarterCampaign.sol\":1112:1125   */\n      dup2\n      sload\n      dup1\n      swap3\n      swap2\n      swap1\n      tag_119\n      swap1\n      tag_115\n      jump\t// in\n    tag_119:\n      swap2\n      swap1\n      pop\n      sstore\n        /* \"KickstarterCampaign.sol\":1100:1125   */\n      swap1\n      pop\n        /* \"KickstarterCampaign.sol\":1136:1175   */\n      0x00\n        /* \"KickstarterCampaign.sol\":1178:1194   */\n      0x07\n        /* \"KickstarterCampaign.sol\":1178:1205   */\n      0x00\n        /* \"KickstarterCampaign.sol\":1195:1204   */\n      dup4\n        /* \"KickstarterCampaign.sol\":1178:1205   */\n      dup2\n      mstore\n      0x20\n      add\n      swap1\n      dup2\n      mstore\n      0x20\n      add\n      0x00\n      keccak256\n        /* \"KickstarterCampaign.sol\":1136:1205   */\n      swap1\n      pop\n        /* \"KickstarterCampaign.sol\":1252:1261   */\n      dup3\n        /* \"KickstarterCampaign.sol\":1216:1231   */\n      dup2\n        /* \"KickstarterCampaign.sol\":1216:1241   */\n      0x02\n      add\n      0x00\n        /* \"KickstarterCampaign.sol\":1216:1262   */\n      0x0100\n      exp\n      dup2\n      sload\n      dup2\n      0xffffffffffffffffffffffffffffffffffffffff\n      mul\n      not\n      and\n      swap1\n      dup4\n      0xffffffffffffffffffffffffffffffffffffffff\n      and\n      mul\n      or\n      swap1\n      sstore\n      pop\n        /* \"KickstarterCampaign.sol\":1303:1314   */\n      dup4\n        /* \"KickstarterCampaign.sol\":1273:1288   */\n      dup2\n        /* \"KickstarterCampaign.sol\":1273:1300   */\n      0x01\n      add\n        /* \"KickstarterCampaign.sol\":1273:1314   */\n      dup2\n      swap1\n      sstore\n      pop\n        /* \"KickstarterCampaign.sol\":1355:1366   */\n      dup5\n        /* \"KickstarterCampaign.sol\":1325:1340   */\n      dup2\n        /* \"KickstarterCampaign.sol\":1325:1352   */\n      0x00\n      add\n        /* \"KickstarterCampaign.sol\":1325:1366   */\n      swap1\n      dup1\n      mload\n      swap1\n      0x20\n      add\n      swap1\n      tag_120\n      swap3\n      swap2\n      swap1\n      tag_121\n      jump\t// in\n    tag_120:\n      pop\n        /* \"KickstarterCampaign.sol\":1409:1410   */\n      0x00\n        /* \"KickstarterCampaign.sol\":1377:1392   */\n      dup2\n        /* \"KickstarterCampaign.sol\":1377:1406   */\n      0x03\n      add\n        /* \"KickstarterCampaign.sol\":1377:1410   */\n      dup2\n      swap1\n      sstore\n      pop\n        /* \"KickstarterCampaign.sol\":1448:1453   */\n      0x00\n        /* \"KickstarterCampaign.sol\":1421:1436   */\n      dup2\n        /* \"KickstarterCampaign.sol\":1421:1445   */\n      0x02\n      add\n      0x14\n        /* \"KickstarterCampaign.sol\":1421:1453   */\n      0x0100\n      exp\n      dup2\n      sload\n      dup2\n      0xff\n      mul\n      not\n      and\n      swap1\n      dup4\n      iszero\n      iszero\n      mul\n      or\n      swap1\n      sstore\n      pop\n        /* \"KickstarterCampaign.sol\":1089:1461   */\n      pop\n        /* \"KickstarterCampaign.sol\":953:1461   */\n      swap4\n      swap3\n      pop\n      pop\n      pop\n      jump\t// out\n        /* \"KickstarterCampaign.sol\":720:945   */\n    tag_83:\n        /* \"KickstarterCampaign.sol\":789:808   */\n      sload(0x02)\n        /* \"KickstarterCampaign.sol\":776:785   */\n      callvalue\n        /* \"KickstarterCampaign.sol\":776:808   */\n      lt\n      iszero\n        /* \"KickstarterCampaign.sol\":768:809   */\n      tag_123\n      jumpi\n      0x00\n      dup1\n      revert\n    tag_123:\n        /* \"KickstarterCampaign.sol\":849:850   */\n      0x00\n        /* \"KickstarterCampaign.sol\":826:833   */\n      0x04\n        /* \"KickstarterCampaign.sol\":826:845   */\n      0x00\n        /* \"KickstarterCampaign.sol\":834:844   */\n      caller\n        /* \"KickstarterCampaign.sol\":826:845   */\n      0xffffffffffffffffffffffffffffffffffffffff\n      and\n      0xffffffffffffffffffffffffffffffffffffffff\n      and\n      dup2\n      mstore\n      0x20\n      add\n      swap1\n      dup2\n      mstore\n      0x20\n      add\n      0x00\n      keccak256\n      sload\n        /* \"KickstarterCampaign.sol\":826:850   */\n      eq\n        /* \"KickstarterCampaign.sol\":822:893   */\n      iszero\n      tag_124\n      jumpi\n        /* \"KickstarterCampaign.sol\":867:879   */\n      0x05\n      0x00\n        /* \"KickstarterCampaign.sol\":867:881   */\n      dup2\n      sload\n      dup1\n      swap3\n      swap2\n      swap1\n      tag_125\n      swap1\n      tag_115\n      jump\t// in\n    tag_125:\n      swap2\n      swap1\n      pop\n      sstore\n      pop\n        /* \"KickstarterCampaign.sol\":822:893   */\n    tag_124:\n        /* \"KickstarterCampaign.sol\":928:937   */\n      callvalue\n        /* \"KickstarterCampaign.sol\":905:912   */\n      0x04\n        /* \"KickstarterCampaign.sol\":905:924   */\n      0x00\n        /* \"KickstarterCampaign.sol\":913:923   */\n      caller\n        /* \"KickstarterCampaign.sol\":905:924   */\n      0xffffffffffffffffffffffffffffffffffffffff\n      and\n      0xffffffffffffffffffffffffffffffffffffffff\n      and\n      dup2\n      mstore\n      0x20\n      add\n      swap1\n      dup2\n      mstore\n      0x20\n      add\n      0x00\n      keccak256\n      0x00\n        /* \"KickstarterCampaign.sol\":905:937   */\n      dup3\n      dup3\n      sload\n      tag_126\n      swap2\n      swap1\n      tag_127\n      jump\t// in\n    tag_126:\n      swap3\n      pop\n      pop\n      dup2\n      swap1\n      sstore\n      pop\n        /* \"KickstarterCampaign.sol\":720:945   */\n      jump\t// out\n    tag_121:\n      dup3\n      dup1\n      sload\n      tag_128\n      swap1\n      tag_85\n      jump\t// in\n    tag_128:\n      swap1\n      0x00\n      mstore\n      keccak256(0x00, 0x20)\n      swap1\n      0x1f\n      add\n      0x20\n      swap1\n      div\n      dup2\n      add\n      swap3\n      dup3\n      tag_130\n      jumpi\n      0x00\n      dup6\n      sstore\n      jump(tag_129)\n    tag_130:\n      dup3\n      0x1f\n      lt\n      tag_131\n      jumpi\n      dup1\n      mload\n      not(0xff)\n      and\n      dup4\n      dup1\n      add\n      or\n      dup6\n      sstore\n      jump(tag_129)\n    tag_131:\n      dup3\n      dup1\n      add\n      0x01\n      add\n      dup6\n      sstore\n      dup3\n      iszero\n      tag_129\n      jumpi\n      swap2\n      dup3\n      add\n    tag_132:\n      dup3\n      dup2\n      gt\n      iszero\n      tag_133\n      jumpi\n      dup3\n      mload\n      dup3\n      sstore\n      swap2\n      0x20\n      add\n      swap2\n      swap1\n      0x01\n      add\n      swap1\n      jump(tag_132)\n    tag_133:\n    tag_129:\n      pop\n      swap1\n      pop\n      tag_134\n      swap2\n      swap1\n      tag_135\n      jump\t// in\n    tag_134:\n      pop\n      swap1\n      jump\t// out\n    tag_135:\n    tag_136:\n      dup1\n      dup3\n      gt\n      iszero\n      tag_137\n      jumpi\n      0x00\n      dup2\n      0x00\n      swap1\n      sstore\n      pop\n      0x01\n      add\n      jump(tag_136)\n    tag_137:\n      pop\n      swap1\n      jump\t// out\n        /* \"#utility.yul\":7:82   */\n    tag_138:\n        /* \"#utility.yul\":40:46   */\n      0x00\n        /* \"#utility.yul\":73:75   */\n      0x40\n        /* \"#utility.yul\":67:76   */\n      mload\n        /* \"#utility.yul\":57:76   */\n      swap1\n      pop\n        /* \"#utility.yul\":7:82   */\n      swap1\n      jump\t// out\n        /* \"#utility.yul\":88:205   */\n    tag_139:\n        /* \"#utility.yul\":197:198   */\n      0x00\n        /* \"#utility.yul\":194:195   */\n      dup1\n        /* \"#utility.yul\":187:199   */\n      revert\n        /* \"#utility.yul\":211:328   */\n    tag_140:\n        /* \"#utility.yul\":320:321   */\n      0x00\n        /* \"#utility.yul\":317:318   */\n      dup1\n        /* \"#utility.yul\":310:322   */\n      revert\n        /* \"#utility.yul\":334:460   */\n    tag_141:\n        /* \"#utility.yul\":371:378   */\n      0x00\n        /* \"#utility.yul\":411:453   */\n      0xffffffffffffffffffffffffffffffffffffffff\n        /* \"#utility.yul\":404:409   */\n      dup3\n        /* \"#utility.yul\":400:454   */\n      and\n        /* \"#utility.yul\":389:454   */\n      swap1\n      pop\n        /* \"#utility.yul\":334:460   */\n      swap2\n      swap1\n      pop\n      jump\t// out\n        /* \"#utility.yul\":466:562   */\n    tag_142:\n        /* \"#utility.yul\":503:510   */\n      0x00\n        /* \"#utility.yul\":532:556   */\n      tag_177\n        /* \"#utility.yul\":550:555   */\n      dup3\n        /* \"#utility.yul\":532:556   */\n      tag_141\n      jump\t// in\n    tag_177:\n        /* \"#utility.yul\":521:556   */\n      swap1\n      pop\n        /* \"#utility.yul\":466:562   */\n      swap2\n      swap1\n      pop\n      jump\t// out\n        /* \"#utility.yul\":568:690   */\n    tag_143:\n        /* \"#utility.yul\":641:665   */\n      tag_179\n        /* \"#utility.yul\":659:664   */\n      dup2\n        /* \"#utility.yul\":641:665   */\n      tag_142\n      jump\t// in\n    tag_179:\n        /* \"#utility.yul\":634:639   */\n      dup2\n        /* \"#utility.yul\":631:666   */\n      eq\n        /* \"#utility.yul\":621:684   */\n      tag_180\n      jumpi\n        /* \"#utility.yul\":680:681   */\n      0x00\n        /* \"#utility.yul\":677:678   */\n      dup1\n        /* \"#utility.yul\":670:682   */\n      revert\n        /* \"#utility.yul\":621:684   */\n    tag_180:\n        /* \"#utility.yul\":568:690   */\n      pop\n      jump\t// out\n        /* \"#utility.yul\":696:835   */\n    tag_144:\n        /* \"#utility.yul\":742:747   */\n      0x00\n        /* \"#utility.yul\":780:786   */\n      dup2\n        /* \"#utility.yul\":767:787   */\n      calldataload\n        /* \"#utility.yul\":758:787   */\n      swap1\n      pop\n        /* \"#utility.yul\":796:829   */\n      tag_182\n        /* \"#utility.yul\":823:828   */\n      dup2\n        /* \"#utility.yul\":796:829   */\n      tag_143\n      jump\t// in\n    tag_182:\n        /* \"#utility.yul\":696:835   */\n      swap3\n      swap2\n      pop\n      pop\n      jump\t// out\n        /* \"#utility.yul\":841:1170   */\n    tag_22:\n        /* \"#utility.yul\":900:906   */\n      0x00\n        /* \"#utility.yul\":949:951   */\n      0x20\n        /* \"#utility.yul\":937:946   */\n      dup3\n        /* \"#utility.yul\":928:935   */\n      dup5\n        /* \"#utility.yul\":924:947   */\n      sub\n        /* \"#utility.yul\":920:952   */\n      slt\n        /* \"#utility.yul\":917:1036   */\n      iszero\n      tag_184\n      jumpi\n        /* \"#utility.yul\":955:1034   */\n      tag_185\n      tag_139\n      jump\t// in\n    tag_185:\n        /* \"#utility.yul\":917:1036   */\n    tag_184:\n        /* \"#utility.yul\":1075:1076   */\n      0x00\n        /* \"#utility.yul\":1100:1153   */\n      tag_186\n        /* \"#utility.yul\":1145:1152   */\n      dup5\n        /* \"#utility.yul\":1136:1142   */\n      dup3\n        /* \"#utility.yul\":1125:1134   */\n      dup6\n        /* \"#utility.yul\":1121:1143   */\n      add\n        /* \"#utility.yul\":1100:1153   */\n      tag_144\n      jump\t// in\n    tag_186:\n        /* \"#utility.yul\":1090:1153   */\n      swap2\n      pop\n        /* \"#utility.yul\":1046:1163   */\n      pop\n        /* \"#utility.yul\":841:1170   */\n      swap3\n      swap2\n      pop\n      pop\n      jump\t// out\n        /* \"#utility.yul\":1176:1253   */\n    tag_145:\n        /* \"#utility.yul\":1213:1220   */\n      0x00\n        /* \"#utility.yul\":1242:1247   */\n      dup2\n        /* \"#utility.yul\":1231:1247   */\n      swap1\n      pop\n        /* \"#utility.yul\":1176:1253   */\n      swap2\n      swap1\n      pop\n      jump\t// out\n        /* \"#utility.yul\":1259:1377   */\n    tag_146:\n        /* \"#utility.yul\":1346:1370   */\n      tag_189\n        /* \"#utility.yul\":1364:1369   */\n      dup2\n        /* \"#utility.yul\":1346:1370   */\n      tag_145\n      jump\t// in\n    tag_189:\n        /* \"#utility.yul\":1341:1344   */\n      dup3\n        /* \"#utility.yul\":1334:1371   */\n      mstore\n        /* \"#utility.yul\":1259:1377   */\n      pop\n      pop\n      jump\t// out\n        /* \"#utility.yul\":1383:1605   */\n    tag_25:\n        /* \"#utility.yul\":1476:1480   */\n      0x00\n        /* \"#utility.yul\":1514:1516   */\n      0x20\n        /* \"#utility.yul\":1503:1512   */\n      dup3\n        /* \"#utility.yul\":1499:1517   */\n      add\n        /* \"#utility.yul\":1491:1517   */\n      swap1\n      pop\n        /* \"#utility.yul\":1527:1598   */\n      tag_191\n        /* \"#utility.yul\":1595:1596   */\n      0x00\n        /* \"#utility.yul\":1584:1593   */\n      dup4\n        /* \"#utility.yul\":1580:1597   */\n      add\n        /* \"#utility.yul\":1571:1577   */\n      dup5\n        /* \"#utility.yul\":1527:1598   */\n      tag_146\n      jump\t// in\n    tag_191:\n        /* \"#utility.yul\":1383:1605   */\n      swap3\n      swap2\n      pop\n      pop\n      jump\t// out\n        /* \"#utility.yul\":1611:1710   */\n    tag_147:\n        /* \"#utility.yul\":1663:1669   */\n      0x00\n        /* \"#utility.yul\":1697:1702   */\n      dup2\n        /* \"#utility.yul\":1691:1703   */\n      mload\n        /* \"#utility.yul\":1681:1703   */\n      swap1\n      pop\n        /* \"#utility.yul\":1611:1710   */\n      swap2\n      swap1\n      pop\n      jump\t// out\n        /* \"#utility.yul\":1716:1885   */\n    tag_148:\n        /* \"#utility.yul\":1800:1811   */\n      0x00\n        /* \"#utility.yul\":1834:1840   */\n      dup3\n        /* \"#utility.yul\":1829:1832   */\n      dup3\n        /* \"#utility.yul\":1822:1841   */\n      mstore\n        /* \"#utility.yul\":1874:1878   */\n      0x20\n        /* \"#utility.yul\":1869:1872   */\n      dup3\n        /* \"#utility.yul\":1865:1879   */\n      add\n        /* \"#utility.yul\":1850:1879   */\n      swap1\n      pop\n        /* \"#utility.yul\":1716:1885   */\n      swap3\n      swap2\n      pop\n      pop\n      jump\t// out\n        /* \"#utility.yul\":1891:2198   */\n    tag_149:\n        /* \"#utility.yul\":1959:1960   */\n      0x00\n        /* \"#utility.yul\":1969:2082   */\n    tag_195:\n        /* \"#utility.yul\":1983:1989   */\n      dup4\n        /* \"#utility.yul\":1980:1981   */\n      dup2\n        /* \"#utility.yul\":1977:1990   */\n      lt\n        /* \"#utility.yul\":1969:2082   */\n      iszero\n      tag_197\n      jumpi\n        /* \"#utility.yul\":2068:2069   */\n      dup1\n        /* \"#utility.yul\":2063:2066   */\n      dup3\n        /* \"#utility.yul\":2059:2070   */\n      add\n        /* \"#utility.yul\":2053:2071   */\n      mload\n        /* \"#utility.yul\":2049:2050   */\n      dup2\n        /* \"#utility.yul\":2044:2047   */\n      dup5\n        /* \"#utility.yul\":2040:2051   */\n      add\n        /* \"#utility.yul\":2033:2072   */\n      mstore\n        /* \"#utility.yul\":2005:2007   */\n      0x20\n        /* \"#utility.yul\":2002:2003   */\n      dup2\n        /* \"#utility.yul\":1998:2008   */\n      add\n        /* \"#utility.yul\":1993:2008   */\n      swap1\n      pop\n        /* \"#utility.yul\":1969:2082   */\n      jump(tag_195)\n    tag_197:\n        /* \"#utility.yul\":2100:2106   */\n      dup4\n        /* \"#utility.yul\":2097:2098   */\n      dup2\n        /* \"#utility.yul\":2094:2107   */\n      gt\n        /* \"#utility.yul\":2091:2192   */\n      iszero\n      tag_198\n      jumpi\n        /* \"#utility.yul\":2180:2181   */\n      0x00\n        /* \"#utility.yul\":2171:2177   */\n      dup5\n        /* \"#utility.yul\":2166:2169   */\n      dup5\n        /* \"#utility.yul\":2162:2178   */\n      add\n        /* \"#utility.yul\":2155:2182   */\n      mstore\n        /* \"#utility.yul\":2091:2192   */\n    tag_198:\n        /* \"#utility.yul\":1940:2198   */\n      pop\n        /* \"#utility.yul\":1891:2198   */\n      pop\n      pop\n      pop\n      jump\t// out\n        /* \"#utility.yul\":2204:2306   */\n    tag_150:\n        /* \"#utility.yul\":2245:2251   */\n      0x00\n        /* \"#utility.yul\":2296:2298   */\n      0x1f\n        /* \"#utility.yul\":2292:2299   */\n      not\n        /* \"#utility.yul\":2287:2289   */\n      0x1f\n        /* \"#utility.yul\":2280:2285   */\n      dup4\n        /* \"#utility.yul\":2276:2290   */\n      add\n        /* \"#utility.yul\":2272:2300   */\n      and\n        /* \"#utility.yul\":2262:2300   */\n      swap1\n      pop\n        /* \"#utility.yul\":2204:2306   */\n      swap2\n      swap1\n      pop\n      jump\t// out\n        /* \"#utility.yul\":2312:2676   */\n    tag_151:\n        /* \"#utility.yul\":2400:2403   */\n      0x00\n        /* \"#utility.yul\":2428:2467   */\n      tag_201\n        /* \"#utility.yul\":2461:2466   */\n      dup3\n        /* \"#utility.yul\":2428:2467   */\n      tag_147\n      jump\t// in\n    tag_201:\n        /* \"#utility.yul\":2483:2554   */\n      tag_202\n        /* \"#utility.yul\":2547:2553   */\n      dup2\n        /* \"#utility.yul\":2542:2545   */\n      dup6\n        /* \"#utility.yul\":2483:2554   */\n      tag_148\n      jump\t// in\n    tag_202:\n        /* \"#utility.yul\":2476:2554   */\n      swap4\n      pop\n        /* \"#utility.yul\":2563:2615   */\n      tag_203\n        /* \"#utility.yul\":2608:2614   */\n      dup2\n        /* \"#utility.yul\":2603:2606   */\n      dup6\n        /* \"#utility.yul\":2596:2600   */\n      0x20\n        /* \"#utility.yul\":2589:2594   */\n      dup7\n        /* \"#utility.yul\":2585:2601   */\n      add\n        /* \"#utility.yul\":2563:2615   */\n      tag_149\n      jump\t// in\n    tag_203:\n        /* \"#utility.yul\":2640:2669   */\n      tag_204\n        /* \"#utility.yul\":2662:2668   */\n      dup2\n        /* \"#utility.yul\":2640:2669   */\n      tag_150\n      jump\t// in\n    tag_204:\n        /* \"#utility.yul\":2635:2638   */\n      dup5\n        /* \"#utility.yul\":2631:2670   */\n      add\n        /* \"#utility.yul\":2624:2670   */\n      swap2\n      pop\n        /* \"#utility.yul\":2404:2676   */\n      pop\n        /* \"#utility.yul\":2312:2676   */\n      swap3\n      swap2\n      pop\n      pop\n      jump\t// out\n        /* \"#utility.yul\":2682:2995   */\n    tag_30:\n        /* \"#utility.yul\":2795:2799   */\n      0x00\n        /* \"#utility.yul\":2833:2835   */\n      0x20\n        /* \"#utility.yul\":2822:2831   */\n      dup3\n        /* \"#utility.yul\":2818:2836   */\n      add\n        /* \"#utility.yul\":2810:2836   */\n      swap1\n      pop\n        /* \"#utility.yul\":2882:2891   */\n      dup2\n        /* \"#utility.yul\":2876:2880   */\n      dup2\n        /* \"#utility.yul\":2872:2892   */\n      sub\n        /* \"#utility.yul\":2868:2869   */\n      0x00\n        /* \"#utility.yul\":2857:2866   */\n      dup4\n        /* \"#utility.yul\":2853:2870   */\n      add\n        /* \"#utility.yul\":2846:2893   */\n      mstore\n        /* \"#utility.yul\":2910:2988   */\n      tag_206\n        /* \"#utility.yul\":2983:2987   */\n      dup2\n        /* \"#utility.yul\":2974:2980   */\n      dup5\n        /* \"#utility.yul\":2910:2988   */\n      tag_151\n      jump\t// in\n    tag_206:\n        /* \"#utility.yul\":2902:2988   */\n      swap1\n      pop\n        /* \"#utility.yul\":2682:2995   */\n      swap3\n      swap2\n      pop\n      pop\n      jump\t// out\n        /* \"#utility.yul\":3001:3123   */\n    tag_152:\n        /* \"#utility.yul\":3074:3098   */\n      tag_208\n        /* \"#utility.yul\":3092:3097   */\n      dup2\n        /* \"#utility.yul\":3074:3098   */\n      tag_145\n      jump\t// in\n    tag_208:\n        /* \"#utility.yul\":3067:3072   */\n      dup2\n        /* \"#utility.yul\":3064:3099   */\n      eq\n        /* \"#utility.yul\":3054:3117   */\n      tag_209\n      jumpi\n        /* \"#utility.yul\":3113:3114   */\n      0x00\n        /* \"#utility.yul\":3110:3111   */\n      dup1\n        /* \"#utility.yul\":3103:3115   */\n      revert\n        /* \"#utility.yul\":3054:3117   */\n    tag_209:\n        /* \"#utility.yul\":3001:3123   */\n      pop\n      jump\t// out\n        /* \"#utility.yul\":3129:3268   */\n    tag_153:\n        /* \"#utility.yul\":3175:3180   */\n      0x00\n        /* \"#utility.yul\":3213:3219   */\n      dup2\n        /* \"#utility.yul\":3200:3220   */\n      calldataload\n        /* \"#utility.yul\":3191:3220   */\n      swap1\n      pop\n        /* \"#utility.yul\":3229:3262   */\n      tag_211\n        /* \"#utility.yul\":3256:3261   */\n      dup2\n        /* \"#utility.yul\":3229:3262   */\n      tag_152\n      jump\t// in\n    tag_211:\n        /* \"#utility.yul\":3129:3268   */\n      swap3\n      swap2\n      pop\n      pop\n      jump\t// out\n        /* \"#utility.yul\":3274:3603   */\n    tag_38:\n        /* \"#utility.yul\":3333:3339   */\n      0x00\n        /* \"#utility.yul\":3382:3384   */\n      0x20\n        /* \"#utility.yul\":3370:3379   */\n      dup3\n        /* \"#utility.yul\":3361:3368   */\n      dup5\n        /* \"#utility.yul\":3357:3380   */\n      sub\n        /* \"#utility.yul\":3353:3385   */\n      slt\n        /* \"#utility.yul\":3350:3469   */\n      iszero\n      tag_213\n      jumpi\n        /* \"#utility.yul\":3388:3467   */\n      tag_214\n      tag_139\n      jump\t// in\n    tag_214:\n        /* \"#utility.yul\":3350:3469   */\n    tag_213:\n        /* \"#utility.yul\":3508:3509   */\n      0x00\n        /* \"#utility.yul\":3533:3586   */\n      tag_215\n        /* \"#utility.yul\":3578:3585   */\n      dup5\n        /* \"#utility.yul\":3569:3575   */\n      dup3\n        /* \"#utility.yul\":3558:3567   */\n      dup6\n        /* \"#utility.yul\":3554:3576   */\n      add\n        /* \"#utility.yul\":3533:3586   */\n      tag_153\n      jump\t// in\n    tag_215:\n        /* \"#utility.yul\":3523:3586   */\n      swap2\n      pop\n        /* \"#utility.yul\":3479:3596   */\n      pop\n        /* \"#utility.yul\":3274:3603   */\n      swap3\n      swap2\n      pop\n      pop\n      jump\t// out\n        /* \"#utility.yul\":3609:3727   */\n    tag_154:\n        /* \"#utility.yul\":3696:3720   */\n      tag_217\n        /* \"#utility.yul\":3714:3719   */\n      dup2\n        /* \"#utility.yul\":3696:3720   */\n      tag_142\n      jump\t// in\n    tag_217:\n        /* \"#utility.yul\":3691:3694   */\n      dup3\n        /* \"#utility.yul\":3684:3721   */\n      mstore\n        /* \"#utility.yul\":3609:3727   */\n      pop\n      pop\n      jump\t// out\n        /* \"#utility.yul\":3733:4710   */\n    tag_48:\n        /* \"#utility.yul\":4014:4018   */\n      0x00\n        /* \"#utility.yul\":4052:4055   */\n      0xe0\n        /* \"#utility.yul\":4041:4050   */\n      dup3\n        /* \"#utility.yul\":4037:4056   */\n      add\n        /* \"#utility.yul\":4029:4056   */\n      swap1\n      pop\n        /* \"#utility.yul\":4066:4137   */\n      tag_219\n        /* \"#utility.yul\":4134:4135   */\n      0x00\n        /* \"#utility.yul\":4123:4132   */\n      dup4\n        /* \"#utility.yul\":4119:4136   */\n      add\n        /* \"#utility.yul\":4110:4116   */\n      dup11\n        /* \"#utility.yul\":4066:4137   */\n      tag_146\n      jump\t// in\n    tag_219:\n        /* \"#utility.yul\":4147:4219   */\n      tag_220\n        /* \"#utility.yul\":4215:4217   */\n      0x20\n        /* \"#utility.yul\":4204:4213   */\n      dup4\n        /* \"#utility.yul\":4200:4218   */\n      add\n        /* \"#utility.yul\":4191:4197   */\n      dup10\n        /* \"#utility.yul\":4147:4219   */\n      tag_146\n      jump\t// in\n    tag_220:\n        /* \"#utility.yul\":4229:4301   */\n      tag_221\n        /* \"#utility.yul\":4297:4299   */\n      0x40\n        /* \"#utility.yul\":4286:4295   */\n      dup4\n        /* \"#utility.yul\":4282:4300   */\n      add\n        /* \"#utility.yul\":4273:4279   */\n      dup9\n        /* \"#utility.yul\":4229:4301   */\n      tag_146\n      jump\t// in\n    tag_221:\n        /* \"#utility.yul\":4311:4383   */\n      tag_222\n        /* \"#utility.yul\":4379:4381   */\n      0x60\n        /* \"#utility.yul\":4368:4377   */\n      dup4\n        /* \"#utility.yul\":4364:4382   */\n      add\n        /* \"#utility.yul\":4355:4361   */\n      dup8\n        /* \"#utility.yul\":4311:4383   */\n      tag_146\n      jump\t// in\n    tag_222:\n        /* \"#utility.yul\":4393:4466   */\n      tag_223\n        /* \"#utility.yul\":4461:4464   */\n      0x80\n        /* \"#utility.yul\":4450:4459   */\n      dup4\n        /* \"#utility.yul\":4446:4465   */\n      add\n        /* \"#utility.yul\":4437:4443   */\n      dup7\n        /* \"#utility.yul\":4393:4466   */\n      tag_154\n      jump\t// in\n    tag_223:\n        /* \"#utility.yul\":4514:4523   */\n      dup2\n        /* \"#utility.yul\":4508:4512   */\n      dup2\n        /* \"#utility.yul\":4504:4524   */\n      sub\n        /* \"#utility.yul\":4498:4501   */\n      0xa0\n        /* \"#utility.yul\":4487:4496   */\n      dup4\n        /* \"#utility.yul\":4483:4502   */\n      add\n        /* \"#utility.yul\":4476:4525   */\n      mstore\n        /* \"#utility.yul\":4542:4620   */\n      tag_224\n        /* \"#utility.yul\":4615:4619   */\n      dup2\n        /* \"#utility.yul\":4606:4612   */\n      dup6\n        /* \"#utility.yul\":4542:4620   */\n      tag_151\n      jump\t// in\n    tag_224:\n        /* \"#utility.yul\":4534:4620   */\n      swap1\n      pop\n        /* \"#utility.yul\":4630:4703   */\n      tag_225\n        /* \"#utility.yul\":4698:4701   */\n      0xc0\n        /* \"#utility.yul\":4687:4696   */\n      dup4\n        /* \"#utility.yul\":4683:4702   */\n      add\n        /* \"#utility.yul\":4674:4680   */\n      dup5\n        /* \"#utility.yul\":4630:4703   */\n      tag_146\n      jump\t// in\n    tag_225:\n        /* \"#utility.yul\":3733:4710   */\n      swap9\n      swap8\n      pop\n      pop\n      pop\n      pop\n      pop\n      pop\n      pop\n      pop\n      jump\t// out\n        /* \"#utility.yul\":4716:4820   */\n    tag_155:\n        /* \"#utility.yul\":4761:4768   */\n      0x00\n        /* \"#utility.yul\":4790:4814   */\n      tag_227\n        /* \"#utility.yul\":4808:4813   */\n      dup3\n        /* \"#utility.yul\":4790:4814   */\n      tag_141\n      jump\t// in\n    tag_227:\n        /* \"#utility.yul\":4779:4814   */\n      swap1\n      pop\n        /* \"#utility.yul\":4716:4820   */\n      swap2\n      swap1\n      pop\n      jump\t// out\n        /* \"#utility.yul\":4826:4968   */\n    tag_156:\n        /* \"#utility.yul\":4929:4961   */\n      tag_229\n        /* \"#utility.yul\":4955:4960   */\n      dup2\n        /* \"#utility.yul\":4929:4961   */\n      tag_155\n      jump\t// in\n    tag_229:\n        /* \"#utility.yul\":4924:4927   */\n      dup3\n        /* \"#utility.yul\":4917:4962   */\n      mstore\n        /* \"#utility.yul\":4826:4968   */\n      pop\n      pop\n      jump\t// out\n        /* \"#utility.yul\":4974:5064   */\n    tag_157:\n        /* \"#utility.yul\":5008:5015   */\n      0x00\n        /* \"#utility.yul\":5051:5056   */\n      dup2\n        /* \"#utility.yul\":5044:5057   */\n      iszero\n        /* \"#utility.yul\":5037:5058   */\n      iszero\n        /* \"#utility.yul\":5026:5058   */\n      swap1\n      pop\n        /* \"#utility.yul\":4974:5064   */\n      swap2\n      swap1\n      pop\n      jump\t// out\n        /* \"#utility.yul\":5070:5179   */\n    tag_158:\n        /* \"#utility.yul\":5151:5172   */\n      tag_232\n        /* \"#utility.yul\":5166:5171   */\n      dup2\n        /* \"#utility.yul\":5151:5172   */\n      tag_157\n      jump\t// in\n    tag_232:\n        /* \"#utility.yul\":5146:5149   */\n      dup3\n        /* \"#utility.yul\":5139:5173   */\n      mstore\n        /* \"#utility.yul\":5070:5179   */\n      pop\n      pop\n      jump\t// out\n        /* \"#utility.yul\":5185:5960   */\n    tag_54:\n        /* \"#utility.yul\":5420:5424   */\n      0x00\n        /* \"#utility.yul\":5458:5461   */\n      0xa0\n        /* \"#utility.yul\":5447:5456   */\n      dup3\n        /* \"#utility.yul\":5443:5462   */\n      add\n        /* \"#utility.yul\":5435:5462   */\n      swap1\n      pop\n        /* \"#utility.yul\":5508:5517   */\n      dup2\n        /* \"#utility.yul\":5502:5506   */\n      dup2\n        /* \"#utility.yul\":5498:5518   */\n      sub\n        /* \"#utility.yul\":5494:5495   */\n      0x00\n        /* \"#utility.yul\":5483:5492   */\n      dup4\n        /* \"#utility.yul\":5479:5496   */\n      add\n        /* \"#utility.yul\":5472:5519   */\n      mstore\n        /* \"#utility.yul\":5536:5614   */\n      tag_234\n        /* \"#utility.yul\":5609:5613   */\n      dup2\n        /* \"#utility.yul\":5600:5606   */\n      dup9\n        /* \"#utility.yul\":5536:5614   */\n      tag_151\n      jump\t// in\n    tag_234:\n        /* \"#utility.yul\":5528:5614   */\n      swap1\n      pop\n        /* \"#utility.yul\":5624:5696   */\n      tag_235\n        /* \"#utility.yul\":5692:5694   */\n      0x20\n        /* \"#utility.yul\":5681:5690   */\n      dup4\n        /* \"#utility.yul\":5677:5695   */\n      add\n        /* \"#utility.yul\":5668:5674   */\n      dup8\n        /* \"#utility.yul\":5624:5696   */\n      tag_146\n      jump\t// in\n    tag_235:\n        /* \"#utility.yul\":5706:5794   */\n      tag_236\n        /* \"#utility.yul\":5790:5792   */\n      0x40\n        /* \"#utility.yul\":5779:5788   */\n      dup4\n        /* \"#utility.yul\":5775:5793   */\n      add\n        /* \"#utility.yul\":5766:5772   */\n      dup7\n        /* \"#utility.yul\":5706:5794   */\n      tag_156\n      jump\t// in\n    tag_236:\n        /* \"#utility.yul\":5804:5870   */\n      tag_237\n        /* \"#utility.yul\":5866:5868   */\n      0x60\n        /* \"#utility.yul\":5855:5864   */\n      dup4\n        /* \"#utility.yul\":5851:5869   */\n      add\n        /* \"#utility.yul\":5842:5848   */\n      dup6\n        /* \"#utility.yul\":5804:5870   */\n      tag_158\n      jump\t// in\n    tag_237:\n        /* \"#utility.yul\":5880:5953   */\n      tag_238\n        /* \"#utility.yul\":5948:5951   */\n      0x80\n        /* \"#utility.yul\":5937:5946   */\n      dup4\n        /* \"#utility.yul\":5933:5952   */\n      add\n        /* \"#utility.yul\":5924:5930   */\n      dup5\n        /* \"#utility.yul\":5880:5953   */\n      tag_146\n      jump\t// in\n    tag_238:\n        /* \"#utility.yul\":5185:5960   */\n      swap7\n      swap6\n      pop\n      pop\n      pop\n      pop\n      pop\n      pop\n      jump\t// out\n        /* \"#utility.yul\":5966:6188   */\n    tag_75:\n        /* \"#utility.yul\":6059:6063   */\n      0x00\n        /* \"#utility.yul\":6097:6099   */\n      0x20\n        /* \"#utility.yul\":6086:6095   */\n      dup3\n        /* \"#utility.yul\":6082:6100   */\n      add\n        /* \"#utility.yul\":6074:6100   */\n      swap1\n      pop\n        /* \"#utility.yul\":6110:6181   */\n      tag_240\n        /* \"#utility.yul\":6178:6179   */\n      0x00\n        /* \"#utility.yul\":6167:6176   */\n      dup4\n        /* \"#utility.yul\":6163:6180   */\n      add\n        /* \"#utility.yul\":6154:6160   */\n      dup5\n        /* \"#utility.yul\":6110:6181   */\n      tag_154\n      jump\t// in\n    tag_240:\n        /* \"#utility.yul\":5966:6188   */\n      swap3\n      swap2\n      pop\n      pop\n      jump\t// out\n        /* \"#utility.yul\":6194:6311   */\n    tag_159:\n        /* \"#utility.yul\":6303:6304   */\n      0x00\n        /* \"#utility.yul\":6300:6301   */\n      dup1\n        /* \"#utility.yul\":6293:6305   */\n      revert\n        /* \"#utility.yul\":6317:6434   */\n    tag_160:\n        /* \"#utility.yul\":6426:6427   */\n      0x00\n        /* \"#utility.yul\":6423:6424   */\n      dup1\n        /* \"#utility.yul\":6416:6428   */\n      revert\n        /* \"#utility.yul\":6440:6620   */\n    tag_161:\n        /* \"#utility.yul\":6488:6565   */\n      0x4e487b7100000000000000000000000000000000000000000000000000000000\n        /* \"#utility.yul\":6485:6486   */\n      0x00\n        /* \"#utility.yul\":6478:6566   */\n      mstore\n        /* \"#utility.yul\":6585:6589   */\n      0x41\n        /* \"#utility.yul\":6582:6583   */\n      0x04\n        /* \"#utility.yul\":6575:6590   */\n      mstore\n        /* \"#utility.yul\":6609:6613   */\n      0x24\n        /* \"#utility.yul\":6606:6607   */\n      0x00\n        /* \"#utility.yul\":6599:6614   */\n      revert\n        /* \"#utility.yul\":6626:6907   */\n    tag_162:\n        /* \"#utility.yul\":6709:6736   */\n      tag_245\n        /* \"#utility.yul\":6731:6735   */\n      dup3\n        /* \"#utility.yul\":6709:6736   */\n      tag_150\n      jump\t// in\n    tag_245:\n        /* \"#utility.yul\":6701:6707   */\n      dup2\n        /* \"#utility.yul\":6697:6737   */\n      add\n        /* \"#utility.yul\":6839:6845   */\n      dup2\n        /* \"#utility.yul\":6827:6837   */\n      dup2\n        /* \"#utility.yul\":6824:6846   */\n      lt\n        /* \"#utility.yul\":6803:6821   */\n      0xffffffffffffffff\n        /* \"#utility.yul\":6791:6801   */\n      dup3\n        /* \"#utility.yul\":6788:6822   */\n      gt\n        /* \"#utility.yul\":6785:6847   */\n      or\n        /* \"#utility.yul\":6782:6870   */\n      iszero\n      tag_246\n      jumpi\n        /* \"#utility.yul\":6850:6868   */\n      tag_247\n      tag_161\n      jump\t// in\n    tag_247:\n        /* \"#utility.yul\":6782:6870   */\n    tag_246:\n        /* \"#utility.yul\":6890:6900   */\n      dup1\n        /* \"#utility.yul\":6886:6888   */\n      0x40\n        /* \"#utility.yul\":6879:6901   */\n      mstore\n        /* \"#utility.yul\":6669:6907   */\n      pop\n        /* \"#utility.yul\":6626:6907   */\n      pop\n      pop\n      jump\t// out\n        /* \"#utility.yul\":6913:7042   */\n    tag_163:\n        /* \"#utility.yul\":6947:6953   */\n      0x00\n        /* \"#utility.yul\":6974:6994   */\n      tag_249\n      tag_138\n      jump\t// in\n    tag_249:\n        /* \"#utility.yul\":6964:6994   */\n      swap1\n      pop\n        /* \"#utility.yul\":7003:7036   */\n      tag_250\n        /* \"#utility.yul\":7031:7035   */\n      dup3\n        /* \"#utility.yul\":7023:7029   */\n      dup3\n        /* \"#utility.yul\":7003:7036   */\n      tag_162\n      jump\t// in\n    tag_250:\n        /* \"#utility.yul\":6913:7042   */\n      swap2\n      swap1\n      pop\n      jump\t// out\n        /* \"#utility.yul\":7048:7356   */\n    tag_164:\n        /* \"#utility.yul\":7110:7114   */\n      0x00\n        /* \"#utility.yul\":7200:7218   */\n      0xffffffffffffffff\n        /* \"#utility.yul\":7192:7198   */\n      dup3\n        /* \"#utility.yul\":7189:7219   */\n      gt\n        /* \"#utility.yul\":7186:7242   */\n      iszero\n      tag_252\n      jumpi\n        /* \"#utility.yul\":7222:7240   */\n      tag_253\n      tag_161\n      jump\t// in\n    tag_253:\n        /* \"#utility.yul\":7186:7242   */\n    tag_252:\n        /* \"#utility.yul\":7260:7289   */\n      tag_254\n        /* \"#utility.yul\":7282:7288   */\n      dup3\n        /* \"#utility.yul\":7260:7289   */\n      tag_150\n      jump\t// in\n    tag_254:\n        /* \"#utility.yul\":7252:7289   */\n      swap1\n      pop\n        /* \"#utility.yul\":7344:7348   */\n      0x20\n        /* \"#utility.yul\":7338:7342   */\n      dup2\n        /* \"#utility.yul\":7334:7349   */\n      add\n        /* \"#utility.yul\":7326:7349   */\n      swap1\n      pop\n        /* \"#utility.yul\":7048:7356   */\n      swap2\n      swap1\n      pop\n      jump\t// out\n        /* \"#utility.yul\":7362:7516   */\n    tag_165:\n        /* \"#utility.yul\":7446:7452   */\n      dup3\n        /* \"#utility.yul\":7441:7444   */\n      dup2\n        /* \"#utility.yul\":7436:7439   */\n      dup4\n        /* \"#utility.yul\":7423:7453   */\n      calldatacopy\n        /* \"#utility.yul\":7508:7509   */\n      0x00\n        /* \"#utility.yul\":7499:7505   */\n      dup4\n        /* \"#utility.yul\":7494:7497   */\n      dup4\n        /* \"#utility.yul\":7490:7506   */\n      add\n        /* \"#utility.yul\":7483:7510   */\n      mstore\n        /* \"#utility.yul\":7362:7516   */\n      pop\n      pop\n      pop\n      jump\t// out\n        /* \"#utility.yul\":7522:7934   */\n    tag_166:\n        /* \"#utility.yul\":7600:7605   */\n      0x00\n        /* \"#utility.yul\":7625:7691   */\n      tag_257\n        /* \"#utility.yul\":7641:7690   */\n      tag_258\n        /* \"#utility.yul\":7683:7689   */\n      dup5\n        /* \"#utility.yul\":7641:7690   */\n      tag_164\n      jump\t// in\n    tag_258:\n        /* \"#utility.yul\":7625:7691   */\n      tag_163\n      jump\t// in\n    tag_257:\n        /* \"#utility.yul\":7616:7691   */\n      swap1\n      pop\n        /* \"#utility.yul\":7714:7720   */\n      dup3\n        /* \"#utility.yul\":7707:7712   */\n      dup2\n        /* \"#utility.yul\":7700:7721   */\n      mstore\n        /* \"#utility.yul\":7752:7756   */\n      0x20\n        /* \"#utility.yul\":7745:7750   */\n      dup2\n        /* \"#utility.yul\":7741:7757   */\n      add\n        /* \"#utility.yul\":7790:7793   */\n      dup5\n        /* \"#utility.yul\":7781:7787   */\n      dup5\n        /* \"#utility.yul\":7776:7779   */\n      dup5\n        /* \"#utility.yul\":7772:7788   */\n      add\n        /* \"#utility.yul\":7769:7794   */\n      gt\n        /* \"#utility.yul\":7766:7878   */\n      iszero\n      tag_259\n      jumpi\n        /* \"#utility.yul\":7797:7876   */\n      tag_260\n      tag_160\n      jump\t// in\n    tag_260:\n        /* \"#utility.yul\":7766:7878   */\n    tag_259:\n        /* \"#utility.yul\":7887:7928   */\n      tag_261\n        /* \"#utility.yul\":7921:7927   */\n      dup5\n        /* \"#utility.yul\":7916:7919   */\n      dup3\n        /* \"#utility.yul\":7911:7914   */\n      dup6\n        /* \"#utility.yul\":7887:7928   */\n      tag_165\n      jump\t// in\n    tag_261:\n        /* \"#utility.yul\":7606:7934   */\n      pop\n        /* \"#utility.yul\":7522:7934   */\n      swap4\n      swap3\n      pop\n      pop\n      pop\n      jump\t// out\n        /* \"#utility.yul\":7954:8294   */\n    tag_167:\n        /* \"#utility.yul\":8010:8015   */\n      0x00\n        /* \"#utility.yul\":8059:8062   */\n      dup3\n        /* \"#utility.yul\":8052:8056   */\n      0x1f\n        /* \"#utility.yul\":8044:8050   */\n      dup4\n        /* \"#utility.yul\":8040:8057   */\n      add\n        /* \"#utility.yul\":8036:8063   */\n      slt\n        /* \"#utility.yul\":8026:8148   */\n      tag_263\n      jumpi\n        /* \"#utility.yul\":8067:8146   */\n      tag_264\n      tag_159\n      jump\t// in\n    tag_264:\n        /* \"#utility.yul\":8026:8148   */\n    tag_263:\n        /* \"#utility.yul\":8184:8190   */\n      dup2\n        /* \"#utility.yul\":8171:8191   */\n      calldataload\n        /* \"#utility.yul\":8209:8288   */\n      tag_265\n        /* \"#utility.yul\":8284:8287   */\n      dup5\n        /* \"#utility.yul\":8276:8282   */\n      dup3\n        /* \"#utility.yul\":8269:8273   */\n      0x20\n        /* \"#utility.yul\":8261:8267   */\n      dup7\n        /* \"#utility.yul\":8257:8274   */\n      add\n        /* \"#utility.yul\":8209:8288   */\n      tag_166\n      jump\t// in\n    tag_265:\n        /* \"#utility.yul\":8200:8288   */\n      swap2\n      pop\n        /* \"#utility.yul\":8016:8294   */\n      pop\n        /* \"#utility.yul\":7954:8294   */\n      swap3\n      swap2\n      pop\n      pop\n      jump\t// out\n        /* \"#utility.yul\":8300:9099   */\n    tag_79:\n        /* \"#utility.yul\":8387:8393   */\n      0x00\n        /* \"#utility.yul\":8395:8401   */\n      dup1\n        /* \"#utility.yul\":8403:8409   */\n      0x00\n        /* \"#utility.yul\":8452:8454   */\n      0x60\n        /* \"#utility.yul\":8440:8449   */\n      dup5\n        /* \"#utility.yul\":8431:8438   */\n      dup7\n        /* \"#utility.yul\":8427:8450   */\n      sub\n        /* \"#utility.yul\":8423:8455   */\n      slt\n        /* \"#utility.yul\":8420:8539   */\n      iszero\n      tag_267\n      jumpi\n        /* \"#utility.yul\":8458:8537   */\n      tag_268\n      tag_139\n      jump\t// in\n    tag_268:\n        /* \"#utility.yul\":8420:8539   */\n    tag_267:\n        /* \"#utility.yul\":8606:8607   */\n      0x00\n        /* \"#utility.yul\":8595:8604   */\n      dup5\n        /* \"#utility.yul\":8591:8608   */\n      add\n        /* \"#utility.yul\":8578:8609   */\n      calldataload\n        /* \"#utility.yul\":8636:8654   */\n      0xffffffffffffffff\n        /* \"#utility.yul\":8628:8634   */\n      dup2\n        /* \"#utility.yul\":8625:8655   */\n      gt\n        /* \"#utility.yul\":8622:8739   */\n      iszero\n      tag_269\n      jumpi\n        /* \"#utility.yul\":8658:8737   */\n      tag_270\n      tag_140\n      jump\t// in\n    tag_270:\n        /* \"#utility.yul\":8622:8739   */\n    tag_269:\n        /* \"#utility.yul\":8763:8826   */\n      tag_271\n        /* \"#utility.yul\":8818:8825   */\n      dup7\n        /* \"#utility.yul\":8809:8815   */\n      dup3\n        /* \"#utility.yul\":8798:8807   */\n      dup8\n        /* \"#utility.yul\":8794:8816   */\n      add\n        /* \"#utility.yul\":8763:8826   */\n      tag_167\n      jump\t// in\n    tag_271:\n        /* \"#utility.yul\":8753:8826   */\n      swap4\n      pop\n        /* \"#utility.yul\":8549:8836   */\n      pop\n        /* \"#utility.yul\":8875:8877   */\n      0x20\n        /* \"#utility.yul\":8901:8954   */\n      tag_272\n        /* \"#utility.yul\":8946:8953   */\n      dup7\n        /* \"#utility.yul\":8937:8943   */\n      dup3\n        /* \"#utility.yul\":8926:8935   */\n      dup8\n        /* \"#utility.yul\":8922:8944   */\n      add\n        /* \"#utility.yul\":8901:8954   */\n      tag_153\n      jump\t// in\n    tag_272:\n        /* \"#utility.yul\":8891:8954   */\n      swap3\n      pop\n        /* \"#utility.yul\":8846:8964   */\n      pop\n        /* \"#utility.yul\":9003:9005   */\n      0x40\n        /* \"#utility.yul\":9029:9082   */\n      tag_273\n        /* \"#utility.yul\":9074:9081   */\n      dup7\n        /* \"#utility.yul\":9065:9071   */\n      dup3\n        /* \"#utility.yul\":9054:9063   */\n      dup8\n        /* \"#utility.yul\":9050:9072   */\n      add\n        /* \"#utility.yul\":9029:9082   */\n      tag_144\n      jump\t// in\n    tag_273:\n        /* \"#utility.yul\":9019:9082   */\n      swap2\n      pop\n        /* \"#utility.yul\":8974:9092   */\n      pop\n        /* \"#utility.yul\":8300:9099   */\n      swap3\n      pop\n      swap3\n      pop\n      swap3\n      jump\t// out\n        /* \"#utility.yul\":9105:9285   */\n    tag_168:\n        /* \"#utility.yul\":9153:9230   */\n      0x4e487b7100000000000000000000000000000000000000000000000000000000\n        /* \"#utility.yul\":9150:9151   */\n      0x00\n        /* \"#utility.yul\":9143:9231   */\n      mstore\n        /* \"#utility.yul\":9250:9254   */\n      0x22\n        /* \"#utility.yul\":9247:9248   */\n      0x04\n        /* \"#utility.yul\":9240:9255   */\n      mstore\n        /* \"#utility.yul\":9274:9278   */\n      0x24\n        /* \"#utility.yul\":9271:9272   */\n      0x00\n        /* \"#utility.yul\":9264:9279   */\n      revert\n        /* \"#utility.yul\":9291:9611   */\n    tag_85:\n        /* \"#utility.yul\":9335:9341   */\n      0x00\n        /* \"#utility.yul\":9372:9373   */\n      0x02\n        /* \"#utility.yul\":9366:9370   */\n      dup3\n        /* \"#utility.yul\":9362:9374   */\n      div\n        /* \"#utility.yul\":9352:9374   */\n      swap1\n      pop\n        /* \"#utility.yul\":9419:9420   */\n      0x01\n        /* \"#utility.yul\":9413:9417   */\n      dup3\n        /* \"#utility.yul\":9409:9421   */\n      and\n        /* \"#utility.yul\":9440:9458   */\n      dup1\n        /* \"#utility.yul\":9430:9511   */\n      tag_276\n      jumpi\n        /* \"#utility.yul\":9496:9500   */\n      0x7f\n        /* \"#utility.yul\":9488:9494   */\n      dup3\n        /* \"#utility.yul\":9484:9501   */\n      and\n        /* \"#utility.yul\":9474:9501   */\n      swap2\n      pop\n        /* \"#utility.yul\":9430:9511   */\n    tag_276:\n        /* \"#utility.yul\":9558:9560   */\n      0x20\n        /* \"#utility.yul\":9550:9556   */\n      dup3\n        /* \"#utility.yul\":9547:9561   */\n      lt\n        /* \"#utility.yul\":9527:9545   */\n      dup2\n        /* \"#utility.yul\":9524:9562   */\n      eq\n        /* \"#utility.yul\":9521:9605   */\n      iszero\n      tag_277\n      jumpi\n        /* \"#utility.yul\":9577:9595   */\n      tag_278\n      tag_168\n      jump\t// in\n    tag_278:\n        /* \"#utility.yul\":9521:9605   */\n    tag_277:\n        /* \"#utility.yul\":9342:9611   */\n      pop\n        /* \"#utility.yul\":9291:9611   */\n      swap2\n      swap1\n      pop\n      jump\t// out\n        /* \"#utility.yul\":9617:9797   */\n    tag_169:\n        /* \"#utility.yul\":9665:9742   */\n      0x4e487b7100000000000000000000000000000000000000000000000000000000\n        /* \"#utility.yul\":9662:9663   */\n      0x00\n        /* \"#utility.yul\":9655:9743   */\n      mstore\n        /* \"#utility.yul\":9762:9766   */\n      0x12\n        /* \"#utility.yul\":9759:9760   */\n      0x04\n        /* \"#utility.yul\":9752:9767   */\n      mstore\n        /* \"#utility.yul\":9786:9790   */\n      0x24\n        /* \"#utility.yul\":9783:9784   */\n      0x00\n        /* \"#utility.yul\":9776:9791   */\n      revert\n        /* \"#utility.yul\":9803:9983   */\n    tag_170:\n        /* \"#utility.yul\":9851:9928   */\n      0x4e487b7100000000000000000000000000000000000000000000000000000000\n        /* \"#utility.yul\":9848:9849   */\n      0x00\n        /* \"#utility.yul\":9841:9929   */\n      mstore\n        /* \"#utility.yul\":9948:9952   */\n      0x11\n        /* \"#utility.yul\":9945:9946   */\n      0x04\n        /* \"#utility.yul\":9938:9953   */\n      mstore\n        /* \"#utility.yul\":9972:9976   */\n      0x24\n        /* \"#utility.yul\":9969:9970   */\n      0x00\n        /* \"#utility.yul\":9962:9977   */\n      revert\n        /* \"#utility.yul\":9989:10174   */\n    tag_95:\n        /* \"#utility.yul\":10029:10030   */\n      0x00\n        /* \"#utility.yul\":10046:10066   */\n      tag_282\n        /* \"#utility.yul\":10064:10065   */\n      dup3\n        /* \"#utility.yul\":10046:10066   */\n      tag_145\n      jump\t// in\n    tag_282:\n        /* \"#utility.yul\":10041:10066   */\n      swap2\n      pop\n        /* \"#utility.yul\":10080:10100   */\n      tag_283\n        /* \"#utility.yul\":10098:10099   */\n      dup4\n        /* \"#utility.yul\":10080:10100   */\n      tag_145\n      jump\t// in\n    tag_283:\n        /* \"#utility.yul\":10075:10100   */\n      swap3\n      pop\n        /* \"#utility.yul\":10119:10120   */\n      dup3\n        /* \"#utility.yul\":10109:10144   */\n      tag_284\n      jumpi\n        /* \"#utility.yul\":10124:10142   */\n      tag_285\n      tag_169\n      jump\t// in\n    tag_285:\n        /* \"#utility.yul\":10109:10144   */\n    tag_284:\n        /* \"#utility.yul\":10166:10167   */\n      dup3\n        /* \"#utility.yul\":10163:10164   */\n      dup3\n        /* \"#utility.yul\":10159:10168   */\n      div\n        /* \"#utility.yul\":10154:10168   */\n      swap1\n      pop\n        /* \"#utility.yul\":9989:10174   */\n      swap3\n      swap2\n      pop\n      pop\n      jump\t// out\n        /* \"#utility.yul\":10180:10413   */\n    tag_115:\n        /* \"#utility.yul\":10219:10222   */\n      0x00\n        /* \"#utility.yul\":10242:10266   */\n      tag_287\n        /* \"#utility.yul\":10260:10265   */\n      dup3\n        /* \"#utility.yul\":10242:10266   */\n      tag_145\n      jump\t// in\n    tag_287:\n        /* \"#utility.yul\":10233:10266   */\n      swap2\n      pop\n        /* \"#utility.yul\":10288:10354   */\n      0xffffffffffffffffffffffffffffffffffffffffffffffffffffffffffffffff\n        /* \"#utility.yul\":10281:10286   */\n      dup3\n        /* \"#utility.yul\":10278:10355   */\n      eq\n        /* \"#utility.yul\":10275:10378   */\n      iszero\n      tag_288\n      jumpi\n        /* \"#utility.yul\":10358:10376   */\n      tag_289\n      tag_170\n      jump\t// in\n    tag_289:\n        /* \"#utility.yul\":10275:10378   */\n    tag_288:\n        /* \"#utility.yul\":10405:10406   */\n      0x01\n        /* \"#utility.yul\":10398:10403   */\n      dup3\n        /* \"#utility.yul\":10394:10407   */\n      add\n        /* \"#utility.yul\":10387:10407   */\n      swap1\n      pop\n        /* \"#utility.yul\":10180:10413   */\n      swap2\n      swap1\n      pop\n      jump\t// out\n        /* \"#utility.yul\":10419:10724   */\n    tag_127:\n        /* \"#utility.yul\":10459:10462   */\n      0x00\n        /* \"#utility.yul\":10478:10498   */\n      tag_291\n        /* \"#utility.yul\":10496:10497   */\n      dup3\n        /* \"#utility.yul\":10478:10498   */\n      tag_145\n      jump\t// in\n    tag_291:\n        /* \"#utility.yul\":10473:10498   */\n      swap2\n      pop\n        /* \"#utility.yul\":10512:10532   */\n      tag_292\n        /* \"#utility.yul\":10530:10531   */\n      dup4\n        /* \"#utility.yul\":10512:10532   */\n      tag_145\n      jump\t// in\n    tag_292:\n        /* \"#utility.yul\":10507:10532   */\n      swap3\n      pop\n        /* \"#utility.yul\":10666:10667   */\n      dup3\n        /* \"#utility.yul\":10598:10664   */\n      0xffffffffffffffffffffffffffffffffffffffffffffffffffffffffffffffff\n        /* \"#utility.yul\":10594:10668   */\n      sub\n        /* \"#utility.yul\":10591:10592   */\n      dup3\n        /* \"#utility.yul\":10588:10669   */\n      gt\n        /* \"#utility.yul\":10585:10692   */\n      iszero\n      tag_293\n      jumpi\n        /* \"#utility.yul\":10672:10690   */\n      tag_294\n      tag_170\n      jump\t// in\n    tag_294:\n        /* \"#utility.yul\":10585:10692   */\n    tag_293:\n        /* \"#utility.yul\":10716:10717   */\n      dup3\n        /* \"#utility.yul\":10713:10714   */\n      dup3\n        /* \"#utility.yul\":10709:10718   */\n      add\n        /* \"#utility.yul\":10702:10718   */\n      swap1\n      pop\n        /* \"#utility.yul\":10419:10724   */\n      swap3\n      swap2\n      pop\n      pop\n      jump\t// out\n\n    auxdata: 0xa2646970667358221220f1a800286d76d85c43577610c496a41f52b3f866d9d25e807364f5f072f9473364736f6c634300080b0033\n}\n","bytecode":{"linkReferences":{},"object":"60806040523480156200001157600080fd5b506040516200162538038062001625833981810160405281019062000037919062000395565b806000806101000a81548173ffffffffffffffffffffffffffffffffffffffff021916908373ffffffffffffffffffffffffffffffffffffffff16021790555083600190805190602001906200008f929190620000a8565b508260028190555081600381905550505050506200048b565b828054620000b69062000455565b90600052602060002090601f016020900481019282620000da576000855562000126565b82601f10620000f557805160ff191683800117855562000126565b8280016001018555821562000126579182015b828111156200012557825182559160200191906001019062000108565b5b50905062000135919062000139565b5090565b5b80821115620001545760008160009055506001016200013a565b5090565b6000604051905090565b600080fd5b600080fd5b600080fd5b600080fd5b6000601f19601f8301169050919050565b7f4e487b7100000000000000000000000000000000000000000000000000000000600052604160045260246000fd5b620001c18262000176565b810181811067ffffffffffffffff82111715620001e357620001e262000187565b5b80604052505050565b6000620001f862000158565b9050620002068282620001b6565b919050565b600067ffffffffffffffff82111562000229576200022862000187565b5b620002348262000176565b9050602081019050919050565b60005b838110156200026157808201518184015260208101905062000244565b8381111562000271576000848401525b50505050565b60006200028e62000288846200020b565b620001ec565b905082815260208101848484011115620002ad57620002ac62000171565b5b620002ba84828562000241565b509392505050565b600082601f830112620002da57620002d96200016c565b5b8151620002ec84826020860162000277565b91505092915050565b6000819050919050565b6200030a81620002f5565b81146200031657600080fd5b50565b6000815190506200032a81620002ff565b92915050565b600073ffffffffffffffffffffffffffffffffffffffff82169050919050565b60006200035d8262000330565b9050919050565b6200036f8162000350565b81146200037b57600080fd5b50565b6000815190506200038f8162000364565b92915050565b60008060008060808587031215620003b257620003b162000162565b5b600085015167ffffffffffffffff811115620003d357620003d262000167565b5b620003e187828801620002c2565b9450506020620003f48782880162000319565b9350506040620004078782880162000319565b92505060606200041a878288016200037e565b91505092959194509250565b7f4e487b7100000000000000000000000000000000000000000000000000000000600052602260045260246000fd5b600060028204905060018216806200046e57607f821691505b6020821081141562000485576200048462000426565b5b50919050565b61118a806200049b6000396000f3fe6080604052600436106100dd5760003560e01c8063700127ef1161007f5780639fb42b1f116100595780639fb42b1f146102ba578063b39e12cf146102e5578063cf97e29414610310578063d7bb99ba1461034d576100dd565b8063700127ef1461023b5780637a3a0e8414610264578063937e09b11461028f576100dd565b806330559591116100bb57806330559591146101755780633410452a1461019e5780634051ddac146101c95780636c60a942146101fa576100dd565b8063031b3677146100e25780630724fda91461011f57806313a2e1171461014a575b600080fd5b3480156100ee57600080fd5b5061010960048036038101906101049190610b76565b610357565b6040516101169190610bbc565b60405180910390f35b34801561012b57600080fd5b5061013461036f565b6040516101419190610c70565b60405180910390f35b34801561015657600080fd5b5061015f6103fd565b60405161016c9190610bbc565b60405180910390f35b34801561018157600080fd5b5061019c60048036038101906101979190610cbe565b610403565b005b3480156101aa57600080fd5b506101b361053c565b6040516101c09190610bbc565b60405180910390f35b3480156101d557600080fd5b506101de610546565b6040516101f19796959493929190610cfa565b60405180910390f35b34801561020657600080fd5b50610221600480360381019061021c9190610cbe565b610625565b604051610232959493929190610dac565b60405180910390f35b34801561024757600080fd5b50610262600480360381019061025d9190610cbe565b610710565b005b34801561027057600080fd5b50610279610844565b6040516102869190610bbc565b60405180910390f35b34801561029b57600080fd5b506102a461084a565b6040516102b19190610bbc565b60405180910390f35b3480156102c657600080fd5b506102cf610850565b6040516102dc9190610bbc565b60405180910390f35b3480156102f157600080fd5b506102fa610856565b6040516103079190610e06565b60405180910390f35b34801561031c57600080fd5b5061033760048036038101906103329190610f56565b61087a565b6040516103449190610bbc565b60405180910390f35b610355610999565b005b60046020528060005260406000206000915090505481565b6001805461037c90610ff4565b80601f01602080910402602001604051908101604052809291908181526020018280546103a890610ff4565b80156103f55780601f106103ca576101008083540402835291602001916103f5565b820191906000526020600020905b8154815290600101906020018083116103d857829003601f168201915b505050505081565b60055481565b60008054906101000a900473ffffffffffffffffffffffffffffffffffffffff1673ffffffffffffffffffffffffffffffffffffffff163373ffffffffffffffffffffffffffffffffffffffff161461045b57600080fd5b60006007600083815260200190815260200160002090508060020160149054906101000a900460ff161561048e57600080fd5b600260055461049d9190611084565b8160030154116104ac57600080fd5b8060020160009054906101000a900473ffffffffffffffffffffffffffffffffffffffff1673ffffffffffffffffffffffffffffffffffffffff166108fc82600101549081150290604051600060405180830381858888f1935050505015801561051a573d6000803e3d6000fd5b5060018160020160146101000a81548160ff0219169083151502179055505050565b6000600654905090565b6000806000806000606060006002544760065460055460008054906101000a900473ffffffffffffffffffffffffffffffffffffffff16600160035481805461058e90610ff4565b80601f01602080910402602001604051908101604052809291908181526020018280546105ba90610ff4565b80156106075780601f106105dc57610100808354040283529160200191610607565b820191906000526020600020905b8154815290600101906020018083116105ea57829003601f168201915b50505050509150965096509650965096509650965090919293949596565b600760205280600052604060002060009150905080600001805461064890610ff4565b80601f016020809104026020016040519081016040528092919081815260200182805461067490610ff4565b80156106c15780601f10610696576101008083540402835291602001916106c1565b820191906000526020600020905b8154815290600101906020018083116106a457829003601f168201915b5050505050908060010154908060020160009054906101000a900473ffffffffffffffffffffffffffffffffffffffff16908060020160149054906101000a900460ff16908060030154905085565b6000600460003373ffffffffffffffffffffffffffffffffffffffff1673ffffffffffffffffffffffffffffffffffffffff168152602001908152602001600020541161075c57600080fd5b60006007600083815260200190815260200160002090508060040160003373ffffffffffffffffffffffffffffffffffffffff1673ffffffffffffffffffffffffffffffffffffffff16815260200190815260200160002060009054906101000a900460ff16156107cc57600080fd5b60018160040160003373ffffffffffffffffffffffffffffffffffffffff1673ffffffffffffffffffffffffffffffffffffffff16815260200190815260200160002060006101000a81548160ff02191690831515021790555080600301600081548092919061083b906110b5565b91905055505050565b60035481565b60025481565b60065481565b60008054906101000a900473ffffffffffffffffffffffffffffffffffffffff1681565b60008060009054906101000a900473ffffffffffffffffffffffffffffffffffffffff1673ffffffffffffffffffffffffffffffffffffffff163373ffffffffffffffffffffffffffffffffffffffff16146108d557600080fd5b600660008154809291906108e8906110b5565b9190505590506000600760008381526020019081526020016000209050828160020160006101000a81548173ffffffffffffffffffffffffffffffffffffffff021916908373ffffffffffffffffffffffffffffffffffffffff16021790555083816001018190555084816000019080519060200190610969929190610a61565b506000816003018190555060008160020160146101000a81548160ff021916908315150217905550509392505050565b6002543410156109a857600080fd5b6000600460003373ffffffffffffffffffffffffffffffffffffffff1673ffffffffffffffffffffffffffffffffffffffff168152602001908152602001600020541415610a095760056000815480929190610a03906110b5565b91905055505b34600460003373ffffffffffffffffffffffffffffffffffffffff1673ffffffffffffffffffffffffffffffffffffffff1681526020019081526020016000206000828254610a5891906110fe565b92505081905550565b828054610a6d90610ff4565b90600052602060002090601f016020900481019282610a8f5760008555610ad6565b82601f10610aa857805160ff1916838001178555610ad6565b82800160010185558215610ad6579182015b82811115610ad5578251825591602001919060010190610aba565b5b509050610ae39190610ae7565b5090565b5b80821115610b00576000816000905550600101610ae8565b5090565b6000604051905090565b600080fd5b600080fd5b600073ffffffffffffffffffffffffffffffffffffffff82169050919050565b6000610b4382610b18565b9050919050565b610b5381610b38565b8114610b5e57600080fd5b50565b600081359050610b7081610b4a565b92915050565b600060208284031215610b8c57610b8b610b0e565b5b6000610b9a84828501610b61565b91505092915050565b6000819050919050565b610bb681610ba3565b82525050565b6000602082019050610bd16000830184610bad565b92915050565b600081519050919050565b600082825260208201905092915050565b60005b83811015610c11578082015181840152602081019050610bf6565b83811115610c20576000848401525b50505050565b6000601f19601f8301169050919050565b6000610c4282610bd7565b610c4c8185610be2565b9350610c5c818560208601610bf3565b610c6581610c26565b840191505092915050565b60006020820190508181036000830152610c8a8184610c37565b905092915050565b610c9b81610ba3565b8114610ca657600080fd5b50565b600081359050610cb881610c92565b92915050565b600060208284031215610cd457610cd3610b0e565b5b6000610ce284828501610ca9565b91505092915050565b610cf481610b38565b82525050565b600060e082019050610d0f600083018a610bad565b610d1c6020830189610bad565b610d296040830188610bad565b610d366060830187610bad565b610d436080830186610ceb565b81810360a0830152610d558185610c37565b9050610d6460c0830184610bad565b98975050505050505050565b6000610d7b82610b18565b9050919050565b610d8b81610d70565b82525050565b60008115159050919050565b610da681610d91565b82525050565b600060a0820190508181036000830152610dc68188610c37565b9050610dd56020830187610bad565b610de26040830186610d82565b610def6060830185610d9d565b610dfc6080830184610bad565b9695505050505050565b6000602082019050610e1b6000830184610ceb565b92915050565b600080fd5b600080fd5b7f4e487b7100000000000000000000000000000000000000000000000000000000600052604160045260246000fd5b610e6382610c26565b810181811067ffffffffffffffff82111715610e8257610e81610e2b565b5b80604052505050565b6000610e95610b04565b9050610ea18282610e5a565b919050565b600067ffffffffffffffff821115610ec157610ec0610e2b565b5b610eca82610c26565b9050602081019050919050565b82818337600083830152505050565b6000610ef9610ef484610ea6565b610e8b565b905082815260208101848484011115610f1557610f14610e26565b5b610f20848285610ed7565b509392505050565b600082601f830112610f3d57610f3c610e21565b5b8135610f4d848260208601610ee6565b91505092915050565b600080600060608486031215610f6f57610f6e610b0e565b5b600084013567ffffffffffffffff811115610f8d57610f8c610b13565b5b610f9986828701610f28565b9350506020610faa86828701610ca9565b9250506040610fbb86828701610b61565b9150509250925092565b7f4e487b7100000000000000000000000000000000000000000000000000000000600052602260045260246000fd5b6000600282049050600182168061100c57607f821691505b602082108114156110205761101f610fc5565b5b50919050565b7f4e487b7100000000000000000000000000000000000000000000000000000000600052601260045260246000fd5b7f4e487b7100000000000000000000000000000000000000000000000000000000600052601160045260246000fd5b600061108f82610ba3565b915061109a83610ba3565b9250826110aa576110a9611026565b5b828204905092915050565b60006110c082610ba3565b91507fffffffffffffffffffffffffffffffffffffffffffffffffffffffffffffffff8214156110f3576110f2611055565b5b600182019050919050565b600061110982610ba3565b915061111483610ba3565b9250827fffffffffffffffffffffffffffffffffffffffffffffffffffffffffffffffff0382111561114957611148611055565b5b82820190509291505056fea2646970667358221220f1a800286d76d85c43577610c496a41f52b3f866d9d25e807364f5f072f9473364736f6c634300080b0033","opcodes":"PUSH1 0x80 PUSH1 0x40 MSTORE CALLVALUE DUP1 ISZERO PUSH3 0x11 JUMPI PUSH1 0x0 DUP1 REVERT JUMPDEST POP PUSH1 0x40 MLOAD PUSH3 0x1625 CODESIZE SUB DUP1 PUSH3 0x1625 DUP4 CODECOPY DUP2 DUP2 ADD PUSH1 0x40 MSTORE DUP2 ADD SWAP1 PUSH3 0x37 SWAP2 SWAP1 PUSH3 0x395 JUMP JUMPDEST DUP1 PUSH1 0x0 DUP1 PUSH2 0x100 EXP DUP2 SLOAD DUP2 PUSH20 0xFFFFFFFFFFFFFFFFFFFFFFFFFFFFFFFFFFFFFFFF MUL NOT AND SWAP1 DUP4 PUSH20 0xFFFFFFFFFFFFFFFFFFFFFFFFFFFFFFFFFFFFFFFF AND MUL OR SWAP1 SSTORE POP DUP4 PUSH1 0x1 SWAP1 DUP1 MLOAD SWAP1 PUSH1 0x20 ADD SWAP1 PUSH3 0x8F SWAP3 SWAP2 SWAP1 PUSH3 0xA8 JUMP JUMPDEST POP DUP3 PUSH1 0x2 DUP2 SWAP1 SSTORE POP DUP2 PUSH1 0x3 DUP2 SWAP1 SSTORE POP POP POP POP POP PUSH3 0x48B JUMP JUMPDEST DUP3 DUP1 SLOAD PUSH3 0xB6 SWAP1 PUSH3 0x455 JUMP JUMPDEST SWAP1 PUSH1 0x0 MSTORE PUSH1 0x20 PUSH1 0x0 KECCAK256 SWAP1 PUSH1 0x1F ADD PUSH1 0x20 SWAP1 DIV DUP2 ADD SWAP3 DUP3 PUSH3 0xDA JUMPI PUSH1 0x0 DUP6 SSTORE PUSH3 0x126 JUMP JUMPDEST DUP3 PUSH1 0x1F LT PUSH3 0xF5 JUMPI DUP1 MLOAD PUSH1 0xFF NOT AND DUP4 DUP1 ADD OR DUP6 SSTORE PUSH3 0x126 JUMP JUMPDEST DUP3 DUP1 ADD PUSH1 0x1 ADD DUP6 SSTORE DUP3 ISZERO PUSH3 0x126 JUMPI SWAP2 DUP3 ADD JUMPDEST DUP3 DUP2 GT ISZERO PUSH3 0x125 JUMPI DUP3 MLOAD DUP3 SSTORE SWAP2 PUSH1 0x20 ADD SWAP2 SWAP1 PUSH1 0x1 ADD SWAP1 PUSH3 0x108 JUMP JUMPDEST JUMPDEST POP SWAP1 POP PUSH3 0x135 SWAP2 SWAP1 PUSH3 0x139 JUMP JUMPDEST POP SWAP1 JUMP JUMPDEST JUMPDEST DUP1 DUP3 GT ISZERO PUSH3 0x154 JUMPI PUSH1 0x0 DUP2 PUSH1 0x0 SWAP1 SSTORE POP PUSH1 0x1 ADD PUSH3 0x13A JUMP JUMPDEST POP SWAP1 JUMP JUMPDEST PUSH1 0x0 PUSH1 0x40 MLOAD SWAP1 POP SWAP1 JUMP JUMPDEST PUSH1 0x0 DUP1 REVERT JUMPDEST PUSH1 0x0 DUP1 REVERT JUMPDEST PUSH1 0x0 DUP1 REVERT JUMPDEST PUSH1 0x0 DUP1 REVERT JUMPDEST PUSH1 0x0 PUSH1 0x1F NOT PUSH1 0x1F DUP4 ADD AND SWAP1 POP SWAP2 SWAP1 POP JUMP JUMPDEST PUSH32 0x4E487B7100000000000000000000000000000000000000000000000000000000 PUSH1 0x0 MSTORE PUSH1 0x41 PUSH1 0x4 MSTORE PUSH1 0x24 PUSH1 0x0 REVERT JUMPDEST PUSH3 0x1C1 DUP3 PUSH3 0x176 JUMP JUMPDEST DUP2 ADD DUP2 DUP2 LT PUSH8 0xFFFFFFFFFFFFFFFF DUP3 GT OR ISZERO PUSH3 0x1E3 JUMPI PUSH3 0x1E2 PUSH3 0x187 JUMP JUMPDEST JUMPDEST DUP1 PUSH1 0x40 MSTORE POP POP POP JUMP JUMPDEST PUSH1 0x0 PUSH3 0x1F8 PUSH3 0x158 JUMP JUMPDEST SWAP1 POP PUSH3 0x206 DUP3 DUP3 PUSH3 0x1B6 JUMP JUMPDEST SWAP2 SWAP1 POP JUMP JUMPDEST PUSH1 0x0 PUSH8 0xFFFFFFFFFFFFFFFF DUP3 GT ISZERO PUSH3 0x229 JUMPI PUSH3 0x228 PUSH3 0x187 JUMP JUMPDEST JUMPDEST PUSH3 0x234 DUP3 PUSH3 0x176 JUMP JUMPDEST SWAP1 POP PUSH1 0x20 DUP2 ADD SWAP1 POP SWAP2 SWAP1 POP JUMP JUMPDEST PUSH1 0x0 JUMPDEST DUP4 DUP2 LT ISZERO PUSH3 0x261 JUMPI DUP1 DUP3 ADD MLOAD DUP2 DUP5 ADD MSTORE PUSH1 0x20 DUP2 ADD SWAP1 POP PUSH3 0x244 JUMP JUMPDEST DUP4 DUP2 GT ISZERO PUSH3 0x271 JUMPI PUSH1 0x0 DUP5 DUP5 ADD MSTORE JUMPDEST POP POP POP POP JUMP JUMPDEST PUSH1 0x0 PUSH3 0x28E PUSH3 0x288 DUP5 PUSH3 0x20B JUMP JUMPDEST PUSH3 0x1EC JUMP JUMPDEST SWAP1 POP DUP3 DUP2 MSTORE PUSH1 0x20 DUP2 ADD DUP5 DUP5 DUP5 ADD GT ISZERO PUSH3 0x2AD JUMPI PUSH3 0x2AC PUSH3 0x171 JUMP JUMPDEST JUMPDEST PUSH3 0x2BA DUP5 DUP3 DUP6 PUSH3 0x241 JUMP JUMPDEST POP SWAP4 SWAP3 POP POP POP JUMP JUMPDEST PUSH1 0x0 DUP3 PUSH1 0x1F DUP4 ADD SLT PUSH3 0x2DA JUMPI PUSH3 0x2D9 PUSH3 0x16C JUMP JUMPDEST JUMPDEST DUP2 MLOAD PUSH3 0x2EC DUP5 DUP3 PUSH1 0x20 DUP7 ADD PUSH3 0x277 JUMP JUMPDEST SWAP2 POP POP SWAP3 SWAP2 POP POP JUMP JUMPDEST PUSH1 0x0 DUP2 SWAP1 POP SWAP2 SWAP1 POP JUMP JUMPDEST PUSH3 0x30A DUP2 PUSH3 0x2F5 JUMP JUMPDEST DUP2 EQ PUSH3 0x316 JUMPI PUSH1 0x0 DUP1 REVERT JUMPDEST POP JUMP JUMPDEST PUSH1 0x0 DUP2 MLOAD SWAP1 POP PUSH3 0x32A DUP2 PUSH3 0x2FF JUMP JUMPDEST SWAP3 SWAP2 POP POP JUMP JUMPDEST PUSH1 0x0 PUSH20 0xFFFFFFFFFFFFFFFFFFFFFFFFFFFFFFFFFFFFFFFF DUP3 AND SWAP1 POP SWAP2 SWAP1 POP JUMP JUMPDEST PUSH1 0x0 PUSH3 0x35D DUP3 PUSH3 0x330 JUMP JUMPDEST SWAP1 POP SWAP2 SWAP1 POP JUMP JUMPDEST PUSH3 0x36F DUP2 PUSH3 0x350 JUMP JUMPDEST DUP2 EQ PUSH3 0x37B JUMPI PUSH1 0x0 DUP1 REVERT JUMPDEST POP JUMP JUMPDEST PUSH1 0x0 DUP2 MLOAD SWAP1 POP PUSH3 0x38F DUP2 PUSH3 0x364 JUMP JUMPDEST SWAP3 SWAP2 POP POP JUMP JUMPDEST PUSH1 0x0 DUP1 PUSH1 0x0 DUP1 PUSH1 0x80 DUP6 DUP8 SUB SLT ISZERO PUSH3 0x3B2 JUMPI PUSH3 0x3B1 PUSH3 0x162 JUMP JUMPDEST JUMPDEST PUSH1 0x0 DUP6 ADD MLOAD PUSH8 0xFFFFFFFFFFFFFFFF DUP2 GT ISZERO PUSH3 0x3D3 JUMPI PUSH3 0x3D2 PUSH3 0x167 JUMP JUMPDEST JUMPDEST PUSH3 0x3E1 DUP8 DUP3 DUP9 ADD PUSH3 0x2C2 JUMP JUMPDEST SWAP5 POP POP PUSH1 0x20 PUSH3 0x3F4 DUP8 DUP3 DUP9 ADD PUSH3 0x319 JUMP JUMPDEST SWAP4 POP POP PUSH1 0x40 PUSH3 0x407 DUP8 DUP3 DUP9 ADD PUSH3 0x319 JUMP JUMPDEST SWAP3 POP POP PUSH1 0x60 PUSH3 0x41A DUP8 DUP3 DUP9 ADD PUSH3 0x37E JUMP JUMPDEST SWAP2 POP POP SWAP3 SWAP6 SWAP2 SWAP5 POP SWAP3 POP JUMP JUMPDEST PUSH32 0x4E487B7100000000000000000000000000000000000000000000000000000000 PUSH1 0x0 MSTORE PUSH1 0x22 PUSH1 0x4 MSTORE PUSH1 0x24 PUSH1 0x0 REVERT JUMPDEST PUSH1 0x0 PUSH1 0x2 DUP3 DIV SWAP1 POP PUSH1 0x1 DUP3 AND DUP1 PUSH3 0x46E JUMPI PUSH1 0x7F DUP3 AND SWAP2 POP JUMPDEST PUSH1 0x20 DUP3 LT DUP2 EQ ISZERO PUSH3 0x485 JUMPI PUSH3 0x484 PUSH3 0x426 JUMP JUMPDEST JUMPDEST POP SWAP2 SWAP1 POP JUMP JUMPDEST PUSH2 0x118A DUP1 PUSH3 0x49B PUSH1 0x0 CODECOPY PUSH1 0x0 RETURN INVALID PUSH1 0x80 PUSH1 0x40 MSTORE PUSH1 0x4 CALLDATASIZE LT PUSH2 0xDD JUMPI PUSH1 0x0 CALLDATALOAD PUSH1 0xE0 SHR DUP1 PUSH4 0x700127EF GT PUSH2 0x7F JUMPI DUP1 PUSH4 0x9FB42B1F GT PUSH2 0x59 JUMPI DUP1 PUSH4 0x9FB42B1F EQ PUSH2 0x2BA JUMPI DUP1 PUSH4 0xB39E12CF EQ PUSH2 0x2E5 JUMPI DUP1 PUSH4 0xCF97E294 EQ PUSH2 0x310 JUMPI DUP1 PUSH4 0xD7BB99BA EQ PUSH2 0x34D JUMPI PUSH2 0xDD JUMP JUMPDEST DUP1 PUSH4 0x700127EF EQ PUSH2 0x23B JUMPI DUP1 PUSH4 0x7A3A0E84 EQ PUSH2 0x264 JUMPI DUP1 PUSH4 0x937E09B1 EQ PUSH2 0x28F JUMPI PUSH2 0xDD JUMP JUMPDEST DUP1 PUSH4 0x30559591 GT PUSH2 0xBB JUMPI DUP1 PUSH4 0x30559591 EQ PUSH2 0x175 JUMPI DUP1 PUSH4 0x3410452A EQ PUSH2 0x19E JUMPI DUP1 PUSH4 0x4051DDAC EQ PUSH2 0x1C9 JUMPI DUP1 PUSH4 0x6C60A942 EQ PUSH2 0x1FA JUMPI PUSH2 0xDD JUMP JUMPDEST DUP1 PUSH4 0x31B3677 EQ PUSH2 0xE2 JUMPI DUP1 PUSH4 0x724FDA9 EQ PUSH2 0x11F JUMPI DUP1 PUSH4 0x13A2E117 EQ PUSH2 0x14A JUMPI JUMPDEST PUSH1 0x0 DUP1 REVERT JUMPDEST CALLVALUE DUP1 ISZERO PUSH2 0xEE JUMPI PUSH1 0x0 DUP1 REVERT JUMPDEST POP PUSH2 0x109 PUSH1 0x4 DUP1 CALLDATASIZE SUB DUP2 ADD SWAP1 PUSH2 0x104 SWAP2 SWAP1 PUSH2 0xB76 JUMP JUMPDEST PUSH2 0x357 JUMP JUMPDEST PUSH1 0x40 MLOAD PUSH2 0x116 SWAP2 SWAP1 PUSH2 0xBBC JUMP JUMPDEST PUSH1 0x40 MLOAD DUP1 SWAP2 SUB SWAP1 RETURN JUMPDEST CALLVALUE DUP1 ISZERO PUSH2 0x12B JUMPI PUSH1 0x0 DUP1 REVERT JUMPDEST POP PUSH2 0x134 PUSH2 0x36F JUMP JUMPDEST PUSH1 0x40 MLOAD PUSH2 0x141 SWAP2 SWAP1 PUSH2 0xC70 JUMP JUMPDEST PUSH1 0x40 MLOAD DUP1 SWAP2 SUB SWAP1 RETURN JUMPDEST CALLVALUE DUP1 ISZERO PUSH2 0x156 JUMPI PUSH1 0x0 DUP1 REVERT JUMPDEST POP PUSH2 0x15F PUSH2 0x3FD JUMP JUMPDEST PUSH1 0x40 MLOAD PUSH2 0x16C SWAP2 SWAP1 PUSH2 0xBBC JUMP JUMPDEST PUSH1 0x40 MLOAD DUP1 SWAP2 SUB SWAP1 RETURN JUMPDEST CALLVALUE DUP1 ISZERO PUSH2 0x181 JUMPI PUSH1 0x0 DUP1 REVERT JUMPDEST POP PUSH2 0x19C PUSH1 0x4 DUP1 CALLDATASIZE SUB DUP2 ADD SWAP1 PUSH2 0x197 SWAP2 SWAP1 PUSH2 0xCBE JUMP JUMPDEST PUSH2 0x403 JUMP JUMPDEST STOP JUMPDEST CALLVALUE DUP1 ISZERO PUSH2 0x1AA JUMPI PUSH1 0x0 DUP1 REVERT JUMPDEST POP PUSH2 0x1B3 PUSH2 0x53C JUMP JUMPDEST PUSH1 0x40 MLOAD PUSH2 0x1C0 SWAP2 SWAP1 PUSH2 0xBBC JUMP JUMPDEST PUSH1 0x40 MLOAD DUP1 SWAP2 SUB SWAP1 RETURN JUMPDEST CALLVALUE DUP1 ISZERO PUSH2 0x1D5 JUMPI PUSH1 0x0 DUP1 REVERT JUMPDEST POP PUSH2 0x1DE PUSH2 0x546 JUMP JUMPDEST PUSH1 0x40 MLOAD PUSH2 0x1F1 SWAP8 SWAP7 SWAP6 SWAP5 SWAP4 SWAP3 SWAP2 SWAP1 PUSH2 0xCFA JUMP JUMPDEST PUSH1 0x40 MLOAD DUP1 SWAP2 SUB SWAP1 RETURN JUMPDEST CALLVALUE DUP1 ISZERO PUSH2 0x206 JUMPI PUSH1 0x0 DUP1 REVERT JUMPDEST POP PUSH2 0x221 PUSH1 0x4 DUP1 CALLDATASIZE SUB DUP2 ADD SWAP1 PUSH2 0x21C SWAP2 SWAP1 PUSH2 0xCBE JUMP JUMPDEST PUSH2 0x625 JUMP JUMPDEST PUSH1 0x40 MLOAD PUSH2 0x232 SWAP6 SWAP5 SWAP4 SWAP3 SWAP2 SWAP1 PUSH2 0xDAC JUMP JUMPDEST PUSH1 0x40 MLOAD DUP1 SWAP2 SUB SWAP1 RETURN JUMPDEST CALLVALUE DUP1 ISZERO PUSH2 0x247 JUMPI PUSH1 0x0 DUP1 REVERT JUMPDEST POP PUSH2 0x262 PUSH1 0x4 DUP1 CALLDATASIZE SUB DUP2 ADD SWAP1 PUSH2 0x25D SWAP2 SWAP1 PUSH2 0xCBE JUMP JUMPDEST PUSH2 0x710 JUMP JUMPDEST STOP JUMPDEST CALLVALUE DUP1 ISZERO PUSH2 0x270 JUMPI PUSH1 0x0 DUP1 REVERT JUMPDEST POP PUSH2 0x279 PUSH2 0x844 JUMP JUMPDEST PUSH1 0x40 MLOAD PUSH2 0x286 SWAP2 SWAP1 PUSH2 0xBBC JUMP JUMPDEST PUSH1 0x40 MLOAD DUP1 SWAP2 SUB SWAP1 RETURN JUMPDEST CALLVALUE DUP1 ISZERO PUSH2 0x29B JUMPI PUSH1 0x0 DUP1 REVERT JUMPDEST POP PUSH2 0x2A4 PUSH2 0x84A JUMP JUMPDEST PUSH1 0x40 MLOAD PUSH2 0x2B1 SWAP2 SWAP1 PUSH2 0xBBC JUMP JUMPDEST PUSH1 0x40 MLOAD DUP1 SWAP2 SUB SWAP1 RETURN JUMPDEST CALLVALUE DUP1 ISZERO PUSH2 0x2C6 JUMPI PUSH1 0x0 DUP1 REVERT JUMPDEST POP PUSH2 0x2CF PUSH2 0x850 JUMP JUMPDEST PUSH1 0x40 MLOAD PUSH2 0x2DC SWAP2 SWAP1 PUSH2 0xBBC JUMP JUMPDEST PUSH1 0x40 MLOAD DUP1 SWAP2 SUB SWAP1 RETURN JUMPDEST CALLVALUE DUP1 ISZERO PUSH2 0x2F1 JUMPI PUSH1 0x0 DUP1 REVERT JUMPDEST POP PUSH2 0x2FA PUSH2 0x856 JUMP JUMPDEST PUSH1 0x40 MLOAD PUSH2 0x307 SWAP2 SWAP1 PUSH2 0xE06 JUMP JUMPDEST PUSH1 0x40 MLOAD DUP1 SWAP2 SUB SWAP1 RETURN JUMPDEST CALLVALUE DUP1 ISZERO PUSH2 0x31C JUMPI PUSH1 0x0 DUP1 REVERT JUMPDEST POP PUSH2 0x337 PUSH1 0x4 DUP1 CALLDATASIZE SUB DUP2 ADD SWAP1 PUSH2 0x332 SWAP2 SWAP1 PUSH2 0xF56 JUMP JUMPDEST PUSH2 0x87A JUMP JUMPDEST PUSH1 0x40 MLOAD PUSH2 0x344 SWAP2 SWAP1 PUSH2 0xBBC JUMP JUMPDEST PUSH1 0x40 MLOAD DUP1 SWAP2 SUB SWAP1 RETURN JUMPDEST PUSH2 0x355 PUSH2 0x999 JUMP JUMPDEST STOP JUMPDEST PUSH1 0x4 PUSH1 0x20 MSTORE DUP1 PUSH1 0x0 MSTORE PUSH1 0x40 PUSH1 0x0 KECCAK256 PUSH1 0x0 SWAP2 POP SWAP1 POP SLOAD DUP2 JUMP JUMPDEST PUSH1 0x1 DUP1 SLOAD PUSH2 0x37C SWAP1 PUSH2 0xFF4 JUMP JUMPDEST DUP1 PUSH1 0x1F ADD PUSH1 0x20 DUP1 SWAP2 DIV MUL PUSH1 0x20 ADD PUSH1 0x40 MLOAD SWAP1 DUP2 ADD PUSH1 0x40 MSTORE DUP1 SWAP3 SWAP2 SWAP1 DUP2 DUP2 MSTORE PUSH1 0x20 ADD DUP3 DUP1 SLOAD PUSH2 0x3A8 SWAP1 PUSH2 0xFF4 JUMP JUMPDEST DUP1 ISZERO PUSH2 0x3F5 JUMPI DUP1 PUSH1 0x1F LT PUSH2 0x3CA JUMPI PUSH2 0x100 DUP1 DUP4 SLOAD DIV MUL DUP4 MSTORE SWAP2 PUSH1 0x20 ADD SWAP2 PUSH2 0x3F5 JUMP JUMPDEST DUP3 ADD SWAP2 SWAP1 PUSH1 0x0 MSTORE PUSH1 0x20 PUSH1 0x0 KECCAK256 SWAP1 JUMPDEST DUP2 SLOAD DUP2 MSTORE SWAP1 PUSH1 0x1 ADD SWAP1 PUSH1 0x20 ADD DUP1 DUP4 GT PUSH2 0x3D8 JUMPI DUP3 SWAP1 SUB PUSH1 0x1F AND DUP3 ADD SWAP2 JUMPDEST POP POP POP POP POP DUP2 JUMP JUMPDEST PUSH1 0x5 SLOAD DUP2 JUMP JUMPDEST PUSH1 0x0 DUP1 SLOAD SWAP1 PUSH2 0x100 EXP SWAP1 DIV PUSH20 0xFFFFFFFFFFFFFFFFFFFFFFFFFFFFFFFFFFFFFFFF AND PUSH20 0xFFFFFFFFFFFFFFFFFFFFFFFFFFFFFFFFFFFFFFFF AND CALLER PUSH20 0xFFFFFFFFFFFFFFFFFFFFFFFFFFFFFFFFFFFFFFFF AND EQ PUSH2 0x45B JUMPI PUSH1 0x0 DUP1 REVERT JUMPDEST PUSH1 0x0 PUSH1 0x7 PUSH1 0x0 DUP4 DUP2 MSTORE PUSH1 0x20 ADD SWAP1 DUP2 MSTORE PUSH1 0x20 ADD PUSH1 0x0 KECCAK256 SWAP1 POP DUP1 PUSH1 0x2 ADD PUSH1 0x14 SWAP1 SLOAD SWAP1 PUSH2 0x100 EXP SWAP1 DIV PUSH1 0xFF AND ISZERO PUSH2 0x48E JUMPI PUSH1 0x0 DUP1 REVERT JUMPDEST PUSH1 0x2 PUSH1 0x5 SLOAD PUSH2 0x49D SWAP2 SWAP1 PUSH2 0x1084 JUMP JUMPDEST DUP2 PUSH1 0x3 ADD SLOAD GT PUSH2 0x4AC JUMPI PUSH1 0x0 DUP1 REVERT JUMPDEST DUP1 PUSH1 0x2 ADD PUSH1 0x0 SWAP1 SLOAD SWAP1 PUSH2 0x100 EXP SWAP1 DIV PUSH20 0xFFFFFFFFFFFFFFFFFFFFFFFFFFFFFFFFFFFFFFFF AND PUSH20 0xFFFFFFFFFFFFFFFFFFFFFFFFFFFFFFFFFFFFFFFF AND PUSH2 0x8FC DUP3 PUSH1 0x1 ADD SLOAD SWAP1 DUP2 ISZERO MUL SWAP1 PUSH1 0x40 MLOAD PUSH1 0x0 PUSH1 0x40 MLOAD DUP1 DUP4 SUB DUP2 DUP6 DUP9 DUP9 CALL SWAP4 POP POP POP POP ISZERO DUP1 ISZERO PUSH2 0x51A JUMPI RETURNDATASIZE PUSH1 0x0 DUP1 RETURNDATACOPY RETURNDATASIZE PUSH1 0x0 REVERT JUMPDEST POP PUSH1 0x1 DUP2 PUSH1 0x2 ADD PUSH1 0x14 PUSH2 0x100 EXP DUP2 SLOAD DUP2 PUSH1 0xFF MUL NOT AND SWAP1 DUP4 ISZERO ISZERO MUL OR SWAP1 SSTORE POP POP POP JUMP JUMPDEST PUSH1 0x0 PUSH1 0x6 SLOAD SWAP1 POP SWAP1 JUMP JUMPDEST PUSH1 0x0 DUP1 PUSH1 0x0 DUP1 PUSH1 0x0 PUSH1 0x60 PUSH1 0x0 PUSH1 0x2 SLOAD SELFBALANCE PUSH1 0x6 SLOAD PUSH1 0x5 SLOAD PUSH1 0x0 DUP1 SLOAD SWAP1 PUSH2 0x100 EXP SWAP1 DIV PUSH20 0xFFFFFFFFFFFFFFFFFFFFFFFFFFFFFFFFFFFFFFFF AND PUSH1 0x1 PUSH1 0x3 SLOAD DUP2 DUP1 SLOAD PUSH2 0x58E SWAP1 PUSH2 0xFF4 JUMP JUMPDEST DUP1 PUSH1 0x1F ADD PUSH1 0x20 DUP1 SWAP2 DIV MUL PUSH1 0x20 ADD PUSH1 0x40 MLOAD SWAP1 DUP2 ADD PUSH1 0x40 MSTORE DUP1 SWAP3 SWAP2 SWAP1 DUP2 DUP2 MSTORE PUSH1 0x20 ADD DUP3 DUP1 SLOAD PUSH2 0x5BA SWAP1 PUSH2 0xFF4 JUMP JUMPDEST DUP1 ISZERO PUSH2 0x607 JUMPI DUP1 PUSH1 0x1F LT PUSH2 0x5DC JUMPI PUSH2 0x100 DUP1 DUP4 SLOAD DIV MUL DUP4 MSTORE SWAP2 PUSH1 0x20 ADD SWAP2 PUSH2 0x607 JUMP JUMPDEST DUP3 ADD SWAP2 SWAP1 PUSH1 0x0 MSTORE PUSH1 0x20 PUSH1 0x0 KECCAK256 SWAP1 JUMPDEST DUP2 SLOAD DUP2 MSTORE SWAP1 PUSH1 0x1 ADD SWAP1 PUSH1 0x20 ADD DUP1 DUP4 GT PUSH2 0x5EA JUMPI DUP3 SWAP1 SUB PUSH1 0x1F AND DUP3 ADD SWAP2 JUMPDEST POP POP POP POP POP SWAP2 POP SWAP7 POP SWAP7 POP SWAP7 POP SWAP7 POP SWAP7 POP SWAP7 POP SWAP7 POP SWAP1 SWAP2 SWAP3 SWAP4 SWAP5 SWAP6 SWAP7 JUMP JUMPDEST PUSH1 0x7 PUSH1 0x20 MSTORE DUP1 PUSH1 0x0 MSTORE PUSH1 0x40 PUSH1 0x0 KECCAK256 PUSH1 0x0 SWAP2 POP SWAP1 POP DUP1 PUSH1 0x0 ADD DUP1 SLOAD PUSH2 0x648 SWAP1 PUSH2 0xFF4 JUMP JUMPDEST DUP1 PUSH1 0x1F ADD PUSH1 0x20 DUP1 SWAP2 DIV MUL PUSH1 0x20 ADD PUSH1 0x40 MLOAD SWAP1 DUP2 ADD PUSH1 0x40 MSTORE DUP1 SWAP3 SWAP2 SWAP1 DUP2 DUP2 MSTORE PUSH1 0x20 ADD DUP3 DUP1 SLOAD PUSH2 0x674 SWAP1 PUSH2 0xFF4 JUMP JUMPDEST DUP1 ISZERO PUSH2 0x6C1 JUMPI DUP1 PUSH1 0x1F LT PUSH2 0x696 JUMPI PUSH2 0x100 DUP1 DUP4 SLOAD DIV MUL DUP4 MSTORE SWAP2 PUSH1 0x20 ADD SWAP2 PUSH2 0x6C1 JUMP JUMPDEST DUP3 ADD SWAP2 SWAP1 PUSH1 0x0 MSTORE PUSH1 0x20 PUSH1 0x0 KECCAK256 SWAP1 JUMPDEST DUP2 SLOAD DUP2 MSTORE SWAP1 PUSH1 0x1 ADD SWAP1 PUSH1 0x20 ADD DUP1 DUP4 GT PUSH2 0x6A4 JUMPI DUP3 SWAP1 SUB PUSH1 0x1F AND DUP3 ADD SWAP2 JUMPDEST POP POP POP POP POP SWAP1 DUP1 PUSH1 0x1 ADD SLOAD SWAP1 DUP1 PUSH1 0x2 ADD PUSH1 0x0 SWAP1 SLOAD SWAP1 PUSH2 0x100 EXP SWAP1 DIV PUSH20 0xFFFFFFFFFFFFFFFFFFFFFFFFFFFFFFFFFFFFFFFF AND SWAP1 DUP1 PUSH1 0x2 ADD PUSH1 0x14 SWAP1 SLOAD SWAP1 PUSH2 0x100 EXP SWAP1 DIV PUSH1 0xFF AND SWAP1 DUP1 PUSH1 0x3 ADD SLOAD SWAP1 POP DUP6 JUMP JUMPDEST PUSH1 0x0 PUSH1 0x4 PUSH1 0x0 CALLER PUSH20 0xFFFFFFFFFFFFFFFFFFFFFFFFFFFFFFFFFFFFFFFF AND PUSH20 0xFFFFFFFFFFFFFFFFFFFFFFFFFFFFFFFFFFFFFFFF AND DUP2 MSTORE PUSH1 0x20 ADD SWAP1 DUP2 MSTORE PUSH1 0x20 ADD PUSH1 0x0 KECCAK256 SLOAD GT PUSH2 0x75C JUMPI PUSH1 0x0 DUP1 REVERT JUMPDEST PUSH1 0x0 PUSH1 0x7 PUSH1 0x0 DUP4 DUP2 MSTORE PUSH1 0x20 ADD SWAP1 DUP2 MSTORE PUSH1 0x20 ADD PUSH1 0x0 KECCAK256 SWAP1 POP DUP1 PUSH1 0x4 ADD PUSH1 0x0 CALLER PUSH20 0xFFFFFFFFFFFFFFFFFFFFFFFFFFFFFFFFFFFFFFFF AND PUSH20 0xFFFFFFFFFFFFFFFFFFFFFFFFFFFFFFFFFFFFFFFF AND DUP2 MSTORE PUSH1 0x20 ADD SWAP1 DUP2 MSTORE PUSH1 0x20 ADD PUSH1 0x0 KECCAK256 PUSH1 0x0 SWAP1 SLOAD SWAP1 PUSH2 0x100 EXP SWAP1 DIV PUSH1 0xFF AND ISZERO PUSH2 0x7CC JUMPI PUSH1 0x0 DUP1 REVERT JUMPDEST PUSH1 0x1 DUP2 PUSH1 0x4 ADD PUSH1 0x0 CALLER PUSH20 0xFFFFFFFFFFFFFFFFFFFFFFFFFFFFFFFFFFFFFFFF AND PUSH20 0xFFFFFFFFFFFFFFFFFFFFFFFFFFFFFFFFFFFFFFFF AND DUP2 MSTORE PUSH1 0x20 ADD SWAP1 DUP2 MSTORE PUSH1 0x20 ADD PUSH1 0x0 KECCAK256 PUSH1 0x0 PUSH2 0x100 EXP DUP2 SLOAD DUP2 PUSH1 0xFF MUL NOT AND SWAP1 DUP4 ISZERO ISZERO MUL OR SWAP1 SSTORE POP DUP1 PUSH1 0x3 ADD PUSH1 0x0 DUP2 SLOAD DUP1 SWAP3 SWAP2 SWAP1 PUSH2 0x83B SWAP1 PUSH2 0x10B5 JUMP JUMPDEST SWAP2 SWAP1 POP SSTORE POP POP POP JUMP JUMPDEST PUSH1 0x3 SLOAD DUP2 JUMP JUMPDEST PUSH1 0x2 SLOAD DUP2 JUMP JUMPDEST PUSH1 0x6 SLOAD DUP2 JUMP JUMPDEST PUSH1 0x0 DUP1 SLOAD SWAP1 PUSH2 0x100 EXP SWAP1 DIV PUSH20 0xFFFFFFFFFFFFFFFFFFFFFFFFFFFFFFFFFFFFFFFF AND DUP2 JUMP JUMPDEST PUSH1 0x0 DUP1 PUSH1 0x0 SWAP1 SLOAD SWAP1 PUSH2 0x100 EXP SWAP1 DIV PUSH20 0xFFFFFFFFFFFFFFFFFFFFFFFFFFFFFFFFFFFFFFFF AND PUSH20 0xFFFFFFFFFFFFFFFFFFFFFFFFFFFFFFFFFFFFFFFF AND CALLER PUSH20 0xFFFFFFFFFFFFFFFFFFFFFFFFFFFFFFFFFFFFFFFF AND EQ PUSH2 0x8D5 JUMPI PUSH1 0x0 DUP1 REVERT JUMPDEST PUSH1 0x6 PUSH1 0x0 DUP2 SLOAD DUP1 SWAP3 SWAP2 SWAP1 PUSH2 0x8E8 SWAP1 PUSH2 0x10B5 JUMP JUMPDEST SWAP2 SWAP1 POP SSTORE SWAP1 POP PUSH1 0x0 PUSH1 0x7 PUSH1 0x0 DUP4 DUP2 MSTORE PUSH1 0x20 ADD SWAP1 DUP2 MSTORE PUSH1 0x20 ADD PUSH1 0x0 KECCAK256 SWAP1 POP DUP3 DUP2 PUSH1 0x2 ADD PUSH1 0x0 PUSH2 0x100 EXP DUP2 SLOAD DUP2 PUSH20 0xFFFFFFFFFFFFFFFFFFFFFFFFFFFFFFFFFFFFFFFF MUL NOT AND SWAP1 DUP4 PUSH20 0xFFFFFFFFFFFFFFFFFFFFFFFFFFFFFFFFFFFFFFFF AND MUL OR SWAP1 SSTORE POP DUP4 DUP2 PUSH1 0x1 ADD DUP2 SWAP1 SSTORE POP DUP5 DUP2 PUSH1 0x0 ADD SWAP1 DUP1 MLOAD SWAP1 PUSH1 0x20 ADD SWAP1 PUSH2 0x969 SWAP3 SWAP2 SWAP1 PUSH2 0xA61 JUMP JUMPDEST POP PUSH1 0x0 DUP2 PUSH1 0x3 ADD DUP2 SWAP1 SSTORE POP PUSH1 0x0 DUP2 PUSH1 0x2 ADD PUSH1 0x14 PUSH2 0x100 EXP DUP2 SLOAD DUP2 PUSH1 0xFF MUL NOT AND SWAP1 DUP4 ISZERO ISZERO MUL OR SWAP1 SSTORE POP POP SWAP4 SWAP3 POP POP POP JUMP JUMPDEST PUSH1 0x2 SLOAD CALLVALUE LT ISZERO PUSH2 0x9A8 JUMPI PUSH1 0x0 DUP1 REVERT JUMPDEST PUSH1 0x0 PUSH1 0x4 PUSH1 0x0 CALLER PUSH20 0xFFFFFFFFFFFFFFFFFFFFFFFFFFFFFFFFFFFFFFFF AND PUSH20 0xFFFFFFFFFFFFFFFFFFFFFFFFFFFFFFFFFFFFFFFF AND DUP2 MSTORE PUSH1 0x20 ADD SWAP1 DUP2 MSTORE PUSH1 0x20 ADD PUSH1 0x0 KECCAK256 SLOAD EQ ISZERO PUSH2 0xA09 JUMPI PUSH1 0x5 PUSH1 0x0 DUP2 SLOAD DUP1 SWAP3 SWAP2 SWAP1 PUSH2 0xA03 SWAP1 PUSH2 0x10B5 JUMP JUMPDEST SWAP2 SWAP1 POP SSTORE POP JUMPDEST CALLVALUE PUSH1 0x4 PUSH1 0x0 CALLER PUSH20 0xFFFFFFFFFFFFFFFFFFFFFFFFFFFFFFFFFFFFFFFF AND PUSH20 0xFFFFFFFFFFFFFFFFFFFFFFFFFFFFFFFFFFFFFFFF AND DUP2 MSTORE PUSH1 0x20 ADD SWAP1 DUP2 MSTORE PUSH1 0x20 ADD PUSH1 0x0 KECCAK256 PUSH1 0x0 DUP3 DUP3 SLOAD PUSH2 0xA58 SWAP2 SWAP1 PUSH2 0x10FE JUMP JUMPDEST SWAP3 POP POP DUP2 SWAP1 SSTORE POP JUMP JUMPDEST DUP3 DUP1 SLOAD PUSH2 0xA6D SWAP1 PUSH2 0xFF4 JUMP JUMPDEST SWAP1 PUSH1 0x0 MSTORE PUSH1 0x20 PUSH1 0x0 KECCAK256 SWAP1 PUSH1 0x1F ADD PUSH1 0x20 SWAP1 DIV DUP2 ADD SWAP3 DUP3 PUSH2 0xA8F JUMPI PUSH1 0x0 DUP6 SSTORE PUSH2 0xAD6 JUMP JUMPDEST DUP3 PUSH1 0x1F LT PUSH2 0xAA8 JUMPI DUP1 MLOAD PUSH1 0xFF NOT AND DUP4 DUP1 ADD OR DUP6 SSTORE PUSH2 0xAD6 JUMP JUMPDEST DUP3 DUP1 ADD PUSH1 0x1 ADD DUP6 SSTORE DUP3 ISZERO PUSH2 0xAD6 JUMPI SWAP2 DUP3 ADD JUMPDEST DUP3 DUP2 GT ISZERO PUSH2 0xAD5 JUMPI DUP3 MLOAD DUP3 SSTORE SWAP2 PUSH1 0x20 ADD SWAP2 SWAP1 PUSH1 0x1 ADD SWAP1 PUSH2 0xABA JUMP JUMPDEST JUMPDEST POP SWAP1 POP PUSH2 0xAE3 SWAP2 SWAP1 PUSH2 0xAE7 JUMP JUMPDEST POP SWAP1 JUMP JUMPDEST JUMPDEST DUP1 DUP3 GT ISZERO PUSH2 0xB00 JUMPI PUSH1 0x0 DUP2 PUSH1 0x0 SWAP1 SSTORE POP PUSH1 0x1 ADD PUSH2 0xAE8 JUMP JUMPDEST POP SWAP1 JUMP JUMPDEST PUSH1 0x0 PUSH1 0x40 MLOAD SWAP1 POP SWAP1 JUMP JUMPDEST PUSH1 0x0 DUP1 REVERT JUMPDEST PUSH1 0x0 DUP1 REVERT JUMPDEST PUSH1 0x0 PUSH20 0xFFFFFFFFFFFFFFFFFFFFFFFFFFFFFFFFFFFFFFFF DUP3 AND SWAP1 POP SWAP2 SWAP1 POP JUMP JUMPDEST PUSH1 0x0 PUSH2 0xB43 DUP3 PUSH2 0xB18 JUMP JUMPDEST SWAP1 POP SWAP2 SWAP1 POP JUMP JUMPDEST PUSH2 0xB53 DUP2 PUSH2 0xB38 JUMP JUMPDEST DUP2 EQ PUSH2 0xB5E JUMPI PUSH1 0x0 DUP1 REVERT JUMPDEST POP JUMP JUMPDEST PUSH1 0x0 DUP2 CALLDATALOAD SWAP1 POP PUSH2 0xB70 DUP2 PUSH2 0xB4A JUMP JUMPDEST SWAP3 SWAP2 POP POP JUMP JUMPDEST PUSH1 0x0 PUSH1 0x20 DUP3 DUP5 SUB SLT ISZERO PUSH2 0xB8C JUMPI PUSH2 0xB8B PUSH2 0xB0E JUMP JUMPDEST JUMPDEST PUSH1 0x0 PUSH2 0xB9A DUP5 DUP3 DUP6 ADD PUSH2 0xB61 JUMP JUMPDEST SWAP2 POP POP SWAP3 SWAP2 POP POP JUMP JUMPDEST PUSH1 0x0 DUP2 SWAP1 POP SWAP2 SWAP1 POP JUMP JUMPDEST PUSH2 0xBB6 DUP2 PUSH2 0xBA3 JUMP JUMPDEST DUP3 MSTORE POP POP JUMP JUMPDEST PUSH1 0x0 PUSH1 0x20 DUP3 ADD SWAP1 POP PUSH2 0xBD1 PUSH1 0x0 DUP4 ADD DUP5 PUSH2 0xBAD JUMP JUMPDEST SWAP3 SWAP2 POP POP JUMP JUMPDEST PUSH1 0x0 DUP2 MLOAD SWAP1 POP SWAP2 SWAP1 POP JUMP JUMPDEST PUSH1 0x0 DUP3 DUP3 MSTORE PUSH1 0x20 DUP3 ADD SWAP1 POP SWAP3 SWAP2 POP POP JUMP JUMPDEST PUSH1 0x0 JUMPDEST DUP4 DUP2 LT ISZERO PUSH2 0xC11 JUMPI DUP1 DUP3 ADD MLOAD DUP2 DUP5 ADD MSTORE PUSH1 0x20 DUP2 ADD SWAP1 POP PUSH2 0xBF6 JUMP JUMPDEST DUP4 DUP2 GT ISZERO PUSH2 0xC20 JUMPI PUSH1 0x0 DUP5 DUP5 ADD MSTORE JUMPDEST POP POP POP POP JUMP JUMPDEST PUSH1 0x0 PUSH1 0x1F NOT PUSH1 0x1F DUP4 ADD AND SWAP1 POP SWAP2 SWAP1 POP JUMP JUMPDEST PUSH1 0x0 PUSH2 0xC42 DUP3 PUSH2 0xBD7 JUMP JUMPDEST PUSH2 0xC4C DUP2 DUP6 PUSH2 0xBE2 JUMP JUMPDEST SWAP4 POP PUSH2 0xC5C DUP2 DUP6 PUSH1 0x20 DUP7 ADD PUSH2 0xBF3 JUMP JUMPDEST PUSH2 0xC65 DUP2 PUSH2 0xC26 JUMP JUMPDEST DUP5 ADD SWAP2 POP POP SWAP3 SWAP2 POP POP JUMP JUMPDEST PUSH1 0x0 PUSH1 0x20 DUP3 ADD SWAP1 POP DUP2 DUP2 SUB PUSH1 0x0 DUP4 ADD MSTORE PUSH2 0xC8A DUP2 DUP5 PUSH2 0xC37 JUMP JUMPDEST SWAP1 POP SWAP3 SWAP2 POP POP JUMP JUMPDEST PUSH2 0xC9B DUP2 PUSH2 0xBA3 JUMP JUMPDEST DUP2 EQ PUSH2 0xCA6 JUMPI PUSH1 0x0 DUP1 REVERT JUMPDEST POP JUMP JUMPDEST PUSH1 0x0 DUP2 CALLDATALOAD SWAP1 POP PUSH2 0xCB8 DUP2 PUSH2 0xC92 JUMP JUMPDEST SWAP3 SWAP2 POP POP JUMP JUMPDEST PUSH1 0x0 PUSH1 0x20 DUP3 DUP5 SUB SLT ISZERO PUSH2 0xCD4 JUMPI PUSH2 0xCD3 PUSH2 0xB0E JUMP JUMPDEST JUMPDEST PUSH1 0x0 PUSH2 0xCE2 DUP5 DUP3 DUP6 ADD PUSH2 0xCA9 JUMP JUMPDEST SWAP2 POP POP SWAP3 SWAP2 POP POP JUMP JUMPDEST PUSH2 0xCF4 DUP2 PUSH2 0xB38 JUMP JUMPDEST DUP3 MSTORE POP POP JUMP JUMPDEST PUSH1 0x0 PUSH1 0xE0 DUP3 ADD SWAP1 POP PUSH2 0xD0F PUSH1 0x0 DUP4 ADD DUP11 PUSH2 0xBAD JUMP JUMPDEST PUSH2 0xD1C PUSH1 0x20 DUP4 ADD DUP10 PUSH2 0xBAD JUMP JUMPDEST PUSH2 0xD29 PUSH1 0x40 DUP4 ADD DUP9 PUSH2 0xBAD JUMP JUMPDEST PUSH2 0xD36 PUSH1 0x60 DUP4 ADD DUP8 PUSH2 0xBAD JUMP JUMPDEST PUSH2 0xD43 PUSH1 0x80 DUP4 ADD DUP7 PUSH2 0xCEB JUMP JUMPDEST DUP2 DUP2 SUB PUSH1 0xA0 DUP4 ADD MSTORE PUSH2 0xD55 DUP2 DUP6 PUSH2 0xC37 JUMP JUMPDEST SWAP1 POP PUSH2 0xD64 PUSH1 0xC0 DUP4 ADD DUP5 PUSH2 0xBAD JUMP JUMPDEST SWAP9 SWAP8 POP POP POP POP POP POP POP POP JUMP JUMPDEST PUSH1 0x0 PUSH2 0xD7B DUP3 PUSH2 0xB18 JUMP JUMPDEST SWAP1 POP SWAP2 SWAP1 POP JUMP JUMPDEST PUSH2 0xD8B DUP2 PUSH2 0xD70 JUMP JUMPDEST DUP3 MSTORE POP POP JUMP JUMPDEST PUSH1 0x0 DUP2 ISZERO ISZERO SWAP1 POP SWAP2 SWAP1 POP JUMP JUMPDEST PUSH2 0xDA6 DUP2 PUSH2 0xD91 JUMP JUMPDEST DUP3 MSTORE POP POP JUMP JUMPDEST PUSH1 0x0 PUSH1 0xA0 DUP3 ADD SWAP1 POP DUP2 DUP2 SUB PUSH1 0x0 DUP4 ADD MSTORE PUSH2 0xDC6 DUP2 DUP9 PUSH2 0xC37 JUMP JUMPDEST SWAP1 POP PUSH2 0xDD5 PUSH1 0x20 DUP4 ADD DUP8 PUSH2 0xBAD JUMP JUMPDEST PUSH2 0xDE2 PUSH1 0x40 DUP4 ADD DUP7 PUSH2 0xD82 JUMP JUMPDEST PUSH2 0xDEF PUSH1 0x60 DUP4 ADD DUP6 PUSH2 0xD9D JUMP JUMPDEST PUSH2 0xDFC PUSH1 0x80 DUP4 ADD DUP5 PUSH2 0xBAD JUMP JUMPDEST SWAP7 SWAP6 POP POP POP POP POP POP JUMP JUMPDEST PUSH1 0x0 PUSH1 0x20 DUP3 ADD SWAP1 POP PUSH2 0xE1B PUSH1 0x0 DUP4 ADD DUP5 PUSH2 0xCEB JUMP JUMPDEST SWAP3 SWAP2 POP POP JUMP JUMPDEST PUSH1 0x0 DUP1 REVERT JUMPDEST PUSH1 0x0 DUP1 REVERT JUMPDEST PUSH32 0x4E487B7100000000000000000000000000000000000000000000000000000000 PUSH1 0x0 MSTORE PUSH1 0x41 PUSH1 0x4 MSTORE PUSH1 0x24 PUSH1 0x0 REVERT JUMPDEST PUSH2 0xE63 DUP3 PUSH2 0xC26 JUMP JUMPDEST DUP2 ADD DUP2 DUP2 LT PUSH8 0xFFFFFFFFFFFFFFFF DUP3 GT OR ISZERO PUSH2 0xE82 JUMPI PUSH2 0xE81 PUSH2 0xE2B JUMP JUMPDEST JUMPDEST DUP1 PUSH1 0x40 MSTORE POP POP POP JUMP JUMPDEST PUSH1 0x0 PUSH2 0xE95 PUSH2 0xB04 JUMP JUMPDEST SWAP1 POP PUSH2 0xEA1 DUP3 DUP3 PUSH2 0xE5A JUMP JUMPDEST SWAP2 SWAP1 POP JUMP JUMPDEST PUSH1 0x0 PUSH8 0xFFFFFFFFFFFFFFFF DUP3 GT ISZERO PUSH2 0xEC1 JUMPI PUSH2 0xEC0 PUSH2 0xE2B JUMP JUMPDEST JUMPDEST PUSH2 0xECA DUP3 PUSH2 0xC26 JUMP JUMPDEST SWAP1 POP PUSH1 0x20 DUP2 ADD SWAP1 POP SWAP2 SWAP1 POP JUMP JUMPDEST DUP3 DUP2 DUP4 CALLDATACOPY PUSH1 0x0 DUP4 DUP4 ADD MSTORE POP POP POP JUMP JUMPDEST PUSH1 0x0 PUSH2 0xEF9 PUSH2 0xEF4 DUP5 PUSH2 0xEA6 JUMP JUMPDEST PUSH2 0xE8B JUMP JUMPDEST SWAP1 POP DUP3 DUP2 MSTORE PUSH1 0x20 DUP2 ADD DUP5 DUP5 DUP5 ADD GT ISZERO PUSH2 0xF15 JUMPI PUSH2 0xF14 PUSH2 0xE26 JUMP JUMPDEST JUMPDEST PUSH2 0xF20 DUP5 DUP3 DUP6 PUSH2 0xED7 JUMP JUMPDEST POP SWAP4 SWAP3 POP POP POP JUMP JUMPDEST PUSH1 0x0 DUP3 PUSH1 0x1F DUP4 ADD SLT PUSH2 0xF3D JUMPI PUSH2 0xF3C PUSH2 0xE21 JUMP JUMPDEST JUMPDEST DUP2 CALLDATALOAD PUSH2 0xF4D DUP5 DUP3 PUSH1 0x20 DUP7 ADD PUSH2 0xEE6 JUMP JUMPDEST SWAP2 POP POP SWAP3 SWAP2 POP POP JUMP JUMPDEST PUSH1 0x0 DUP1 PUSH1 0x0 PUSH1 0x60 DUP5 DUP7 SUB SLT ISZERO PUSH2 0xF6F JUMPI PUSH2 0xF6E PUSH2 0xB0E JUMP JUMPDEST JUMPDEST PUSH1 0x0 DUP5 ADD CALLDATALOAD PUSH8 0xFFFFFFFFFFFFFFFF DUP2 GT ISZERO PUSH2 0xF8D JUMPI PUSH2 0xF8C PUSH2 0xB13 JUMP JUMPDEST JUMPDEST PUSH2 0xF99 DUP7 DUP3 DUP8 ADD PUSH2 0xF28 JUMP JUMPDEST SWAP4 POP POP PUSH1 0x20 PUSH2 0xFAA DUP7 DUP3 DUP8 ADD PUSH2 0xCA9 JUMP JUMPDEST SWAP3 POP POP PUSH1 0x40 PUSH2 0xFBB DUP7 DUP3 DUP8 ADD PUSH2 0xB61 JUMP JUMPDEST SWAP2 POP POP SWAP3 POP SWAP3 POP SWAP3 JUMP JUMPDEST PUSH32 0x4E487B7100000000000000000000000000000000000000000000000000000000 PUSH1 0x0 MSTORE PUSH1 0x22 PUSH1 0x4 MSTORE PUSH1 0x24 PUSH1 0x0 REVERT JUMPDEST PUSH1 0x0 PUSH1 0x2 DUP3 DIV SWAP1 POP PUSH1 0x1 DUP3 AND DUP1 PUSH2 0x100C JUMPI PUSH1 0x7F DUP3 AND SWAP2 POP JUMPDEST PUSH1 0x20 DUP3 LT DUP2 EQ ISZERO PUSH2 0x1020 JUMPI PUSH2 0x101F PUSH2 0xFC5 JUMP JUMPDEST JUMPDEST POP SWAP2 SWAP1 POP JUMP JUMPDEST PUSH32 0x4E487B7100000000000000000000000000000000000000000000000000000000 PUSH1 0x0 MSTORE PUSH1 0x12 PUSH1 0x4 MSTORE PUSH1 0x24 PUSH1 0x0 REVERT JUMPDEST PUSH32 0x4E487B7100000000000000000000000000000000000000000000000000000000 PUSH1 0x0 MSTORE PUSH1 0x11 PUSH1 0x4 MSTORE PUSH1 0x24 PUSH1 0x0 REVERT JUMPDEST PUSH1 0x0 PUSH2 0x108F DUP3 PUSH2 0xBA3 JUMP JUMPDEST SWAP2 POP PUSH2 0x109A DUP4 PUSH2 0xBA3 JUMP JUMPDEST SWAP3 POP DUP3 PUSH2 0x10AA JUMPI PUSH2 0x10A9 PUSH2 0x1026 JUMP JUMPDEST JUMPDEST DUP3 DUP3 DIV SWAP1 POP SWAP3 SWAP2 POP POP JUMP JUMPDEST PUSH1 0x0 PUSH2 0x10C0 DUP3 PUSH2 0xBA3 JUMP JUMPDEST SWAP2 POP PUSH32 0xFFFFFFFFFFFFFFFFFFFFFFFFFFFFFFFFFFFFFFFFFFFFFFFFFFFFFFFFFFFFFFFF DUP3 EQ ISZERO PUSH2 0x10F3 JUMPI PUSH2 0x10F2 PUSH2 0x1055 JUMP JUMPDEST JUMPDEST PUSH1 0x1 DUP3 ADD SWAP1 POP SWAP2 SWAP1 POP JUMP JUMPDEST PUSH1 0x0 PUSH2 0x1109 DUP3 PUSH2 0xBA3 JUMP JUMPDEST SWAP2 POP PUSH2 0x1114 DUP4 PUSH2 0xBA3 JUMP JUMPDEST SWAP3 POP DUP3 PUSH32 0xFFFFFFFFFFFFFFFFFFFFFFFFFFFFFFFFFFFFFFFFFFFFFFFFFFFFFFFFFFFFFFFF SUB DUP3 GT ISZERO PUSH2 0x1149 JUMPI PUSH2 0x1148 PUSH2 0x1055 JUMP JUMPDEST JUMPDEST DUP3 DUP3 ADD SWAP1 POP SWAP3 SWAP2 POP POP JUMP INVALID LOG2 PUSH5 0x6970667358 0x22 SLT KECCAK256 CALL 0xA8 STOP 0x28 PUSH14 0x76D85C43577610C496A41F52B3F8 PUSH7 0xD9D25E807364F5 CREATE PUSH19 0xF9473364736F6C634300080B00330000000000 "},"gasEstimates":{"creation":{"codeDepositCost":"898000","executionCost":"infinite","totalCost":"infinite"},"external":{"campaignName()":"infinite","campaignRequests(uint256)":"infinite","contractManager()":"2555","contribute()":"infinite","createManagerRequest(string,uint256,address)":"infinite","finalizeManagerRequest(uint256)":"infinite","funders(address)":"2838","fundersCount()":"2497","fundingGoal()":"2474","getRequestsCount()":"2482","getSummary()":"infinite","minimumContribution()":"2496","numRequests()":"2451","voteForRequest(uint256)":"infinite"}},"methodIdentifiers":{"campaignName()":"0724fda9","campaignRequests(uint256)":"6c60a942","contractManager()":"b39e12cf","contribute()":"d7bb99ba","createManagerRequest(string,uint256,address)":"cf97e294","finalizeManagerRequest(uint256)":"30559591","funders(address)":"031b3677","fundersCount()":"13a2e117","fundingGoal()":"7a3a0e84","getRequestsCount()":"3410452a","getSummary()":"4051ddac","minimumContribution()":"937e09b1","numRequests()":"9fb42b1f","voteForRequest(uint256)":"700127ef"}},"storageLayout":{"storage":[{"astId":54,"contract":"KickstarterCampaign.sol:KickstarterCampaign","label":"contractManager","offset":0,"slot":"0","type":"t_address"},{"astId":56,"contract":"KickstarterCampaign.sol:KickstarterCampaign","label":"campaignName","offset":0,"slot":"1","type":"t_string_storage"},{"astId":58,"contract":"KickstarterCampaign.sol:KickstarterCampaign","label":"minimumContribution","offset":0,"slot":"2","type":"t_uint256"},{"astId":60,"contract":"KickstarterCampaign.sol:KickstarterCampaign","label":"fundingGoal","offset":0,"slot":"3","type":"t_uint256"},{"astId":64,"contract":"KickstarterCampaign.sol:KickstarterCampaign","label":"funders","offset":0,"slot":"4","type":"t_mapping(t_address,t_uint256)"},{"astId":66,"contract":"KickstarterCampaign.sol:KickstarterCampaign","label":"fundersCount","offset":0,"slot":"5","type":"t_uint256"},{"astId":68,"contract":"KickstarterCampaign.sol:KickstarterCampaign","label":"numRequests","offset":0,"slot":"6","type":"t_uint256"},{"astId":73,"contract":"KickstarterCampaign.sol:KickstarterCampaign","label":"campaignRequests","offset":0,"slot":"7","type":"t_mapping(t_uint256,t_struct(CampaignRequest)347_storage)"}],"types":{"t_address":{"encoding":"inplace","label":"address","numberOfBytes":"20"},"t_address_payable":{"encoding":"inplace","label":"address payable","numberOfBytes":"20"},"t_bool":{"encoding":"inplace","label":"bool","numberOfBytes":"1"},"t_mapping(t_address,t_bool)":{"encoding":"mapping","key":"t_address","label":"mapping(address => bool)","numberOfBytes":"32","value":"t_bool"},"t_mapping(t_address,t_uint256)":{"encoding":"mapping","key":"t_address","label":"mapping(address => uint256)","numberOfBytes":"32","value":"t_uint256"},"t_mapping(t_uint256,t_struct(CampaignRequest)347_storage)":{"encoding":"mapping","key":"t_uint256","label":"mapping(uint256 => struct KickstarterCampaign.CampaignRequest)","numberOfBytes":"32","value":"t_struct(CampaignRequest)347_storage"},"t_string_storage":{"encoding":"bytes","label":"string","numberOfBytes":"32"},"t_struct(CampaignRequest)347_storage":{"encoding":"inplace","label":"struct KickstarterCampaign.CampaignRequest","members":[{"astId":334,"contract":"KickstarterCampaign.sol:KickstarterCampaign","label":"description","offset":0,"slot":"0","type":"t_string_storage"},{"astId":336,"contract":"KickstarterCampaign.sol:KickstarterCampaign","label":"payoutValue","offset":0,"slot":"1","type":"t_uint256"},{"astId":338,"contract":"KickstarterCampaign.sol:KickstarterCampaign","label":"recipient","offset":0,"slot":"2","type":"t_address_payable"},{"astId":340,"contract":"KickstarterCampaign.sol:KickstarterCampaign","label":"complete","offset":20,"slot":"2","type":"t_bool"},{"astId":342,"contract":"KickstarterCampaign.sol:KickstarterCampaign","label":"approvalCount","offset":0,"slot":"3","type":"t_uint256"},{"astId":346,"contract":"KickstarterCampaign.sol:KickstarterCampaign","label":"approvalsMapping","offset":0,"slot":"4","type":"t_mapping(t_address,t_bool)"}],"numberOfBytes":"160"},"t_uint256":{"encoding":"inplace","label":"uint256","numberOfBytes":"32"}}},"userdoc":{"kind":"user","methods":{},"version":1}}